:0200000460009A
:100000004643464200000156000000000103030081
:1000100000000000000000000000000000000000E0
:1000200000000000000000000000000000000000D0
:1000300000000000000000000000000000000000C0
:1000400000000000010408000000000000000000A3
:100050000000800000000000000000000000000020
:100060000000000000000000000000000000000090
:100070000000000000000000000000000000000080
:10008000EB04180A063204260000000000000000FD
:10009000050404240000000000000000000000002F
:1000A0000000000000000000000000000000000050
:1000B0000604000000000000000000000000000036
:1000C0000000000000000000000000000000000030
:1000D00020041808000000000000000000000000DC
:1000E0000000000000000000000000000000000010
:1000F0000000000000000000000000000000000000
:10010000D8041808000000000000000000000000F3
:100110000204180804200000000000000000000095
:1001200000000000000000000000000000000000CF
:10013000600400000000000000000000000000005B
:1001400000000000000000000000000000000000AF
:10015000000000000000000000000000000000009F
:10016000000000000000000000000000000000008F
:10017000000000000000000000000000000000007F
:10018000000000000000000000000000000000006F
:10019000000000000000000000000000000000005F
:1001A000000000000000000000000000000000004F
:1001B000000000000000000000000000000000003F
:1001C000000100000010000001000000000000001D
:1001D000000001000000000000000000000000001E
:1001E000000000000000000000000000000000000F
:1001F00000000000000000000000000000000000FF
:10020000FFFFFFFFFFFFFFFFFFFFFFFFFFFFFFFFFE
:10021000FFFFFFFFFFFFFFFFFFFFFFFFFFFFFFFFEE
:10100000D10020434D1600600000000000000000E9
:10101000201000600010006000400360000000002D
:1010200000000060004C030000000000FFFFFFFF15
:10103000FFFFFFFFFFFFFFFFFFFFFFFFFFFFFFFFC0
:10104000FFFFFFFFFFFFFFFFFFFFFFFFFFFFFFFFB0
:10105000FFFFFFFFFFFFFFFFFFFFFFFFFFFFFFFFA0
:10106000FFFFFFFFFFFFFFFFFFFFFFFFFFFFFFFF90
:10140000814205D051F8043B40F8043B8242F9D8B0
:10141000704700BF044A05494FF0000342F8043BFF
:101420009142FBD8704700BFC0660020E004042052
:101430002DE98848BFF34F8F00BF00BF00BF00BF3A
:1014400000F07CFA684B0822C3F8542100BF00BFAB
:1014500000BF00BF00BF00BF00BF00BF00BF00BF94
:1014600000BF00BF00BF00BF00BF00BF5F4A6049B0
:101470006048FFF7C5FF604A60496148FFF7C0FF59
:10148000604CFFF7C7FF4FF470004FF0E0210023DE
:101490005D4AC1F8880D44F823200133B02BFAD1FE
:1014A0005A4B80215A4A03F8011B9342FBD14FF05B
:1014B000E0254D4E4FF08039DFF884B1DFF884A18C
:1014C0004FF0FF31C5F8084D0027C6F80491C6F863
:1014D00000B1C6F8F490C6F8F0A0D5F8243DDFF8C6
:1014E000688143F4E0234B4AC5F8243DD8F81C300A
:1014F00023F07F0343F04003C8F81C30D8F82430B1
:1015000023F07F0343F04003C8F824309166D1668E
:101510001167516700F01AFA3F4B4049A363404BF3
:10152000E36363236B610323AF612B613D4BC5F81C
:10153000203DD5F8FC3D43F08073C5F8FC3D3A4BA7
:101540001A6842F001021A605B680B6000F048FC08
:10155000C6F804913548C6F800B1C6F8F490C6F84C
:10156000F0A000F0D1FDD8F86C10314B314A41F4B5
:101570004051C8F86C101F60C3F80871C3F81871A7
:10158000C3F82871C3F83871936BDB0708D442F6AF
:101590001563294951651365936B43F00103936308
:1015A000244A264C936843F00113936000F056FAE6
:1015B00000F07AFD00F0D0FD00F040FC00F0C0F932
:1015C0002368132BFCD900F0D1FC2368B3F5967F78
:1015D000FBD300F0B9F900F0B5F900F0B5FD00F06B
:1015E000A3FD30BFFDE700BF00800D4058AC0200F6
:1015F0003429006000000000C066002090D5026021
:1016000000000020006400204D13020000E400E010
:10161000A0E400E000C00A409DF80100D0EC0320E7
:10162000A1F8010000002020001000E00046C323C4
:101630000040084000400D400000C056D4EC03209C
:101640001B1018200C0D111300C00F40054B4FF458
:101650002A01054A05485A641864054A9963954663
:10166000FFF7E6FE00C00A40FFAFAAAA070020006D
:101670000000052043690A4A03EB011010B4037A05
:10168000084C02EB0313D3E901321460C2681A60FC
:1016900003690BB142691A605DF8044B704700BFE3
:1016A0000444002061F801004369027E03EB02124A
:1016B00092F808C08C451CD01A7AFF2A19D09142A2
:1016C00010B5044616D01A7EFF2A06D00121D3E9B0
:1016D000002312681A4201D1217610BD064B052263
:1016E000204603EB0C135B681A60FFF7C3FF2176FB
:1016F000F3E770470021EAE70444002043690A4AFF
:1017000003EB011010B490F82830084C02EB0313DF
:10171000D3E901321460C26A1A60036B0BB1426BE9
:101720001A605DF8044B70470444002061F8010022
:101730004369427E03EB021292F828C08C451ED00A
:1017400093F82820FF2A1AD0914210B5044617D0EA
:1017500093F83820FF2A06D00121D3E9002312682C
:101760001A4201D1617610BD064B0522204603EBDB
:101770000C135B681A60FFF7C1FF6176F3E77047EF
:101780000021EAE704440020164942698B6B23F4E8
:101790007C0343F4802370B58B630446124DD2E979
:1017A00000130A681A4303690A60022200211A61C1
:1017B0000E4A19619A6401225A629D624FF43035D3
:1017C000DD624FF001159E6C1E6519629D651A6100
:1017D000017EFFF74FFF617E2046BDE87040FFF7B6
:1017E0008DBF00BF00C00F40B80B05053B3728195F
:1017F0001BB9124B1B6F9B041ED400F03F000F4B14
:1018000022F0604221F0604140F489101867C3F86B
:101810008010C3F890201A6F22F480521A671A6F52
:10182000002AFCDAD3F87011054A0A40C3F8702187
:101830001A6F22F480321A67704700BF00800D4093
:10184000FF7F7FFFB1F5607FF0B50E468DB028BFFA
:101850004FF460760F46054672B62E4B0024702278
:10186000186021462C4B2D481C8000F059FCCFB14C
:1018700021462A484FF0010C4A0901F01F030131AB
:1018800050F822400CFA03F38E4243EA040340F876
:101890002230F1D8284600234380013300F58270BE
:1018A0009E42F9D81E4C257815B162B60DB0F0BD38
:1018B000082000F02DFC1B4B80220646009302A955
:1018C0000693194B0271056008A8029300F040FCD2
:1018D00006A9164A304600F033FC069B08A8DB68D0
:1018E0009847009B02A8DB6898472378002BDCD13F
:1018F0000F4B104AC3F858210F49D0204FF0E02376
:10190000402281F84600C3F808210123237062B603
:101910000DB0F0BD649800204A0404206C980020AB
:101920007504042000410020ADF201001B100100ED
:1019300000640020B9F2010000E400E0704700BF3D
:10194000704700BF704700BF00BF704710B44FF032
:10195000E023002110243148C3F8941DC3F89C4DA6
:101960001124C3F8A00D2E48C3F89C4D1224C3F8CF
:10197000A00D2C48C3F89C4D2B4AC3F8A00D2B4C4E
:1019800042F015022A48C3F89C4DC3F8A00D294C1B
:101990002948C3F89C4DC3F8A00D284CC3F89C2DD2
:1019A0002748284AC3F8A04DC3F89C0DC3F8A02DC2
:1019B00002F5A022244C0C322448C3F89C4DC3F8F5
:1019C000A02D234AC3F89C0D224CC3F8A02D02F190
:1019D0004062C3F89C4D2048C3F8A02D0C32C3F8D8
:1019E0009C0DC3F8A02D00BF00BF00BF00BF00BF0B
:1019F0000122C3F8942DBFF34F8FBFF36F8FC3F84D
:101A0000501FBFF34F8FBFF36F8FD3F8142D5DF8C6
:101A1000044B42F44032C3F8142D70473F000010CD
:101A20002500080709001000E0040420130020002E
:101A300021000207140000202500081309000010EF
:101A40001600202027000B1317000040180000602C
:101A50002F000B07190000701A000080F0B5B84B7A
:101A60001822B84E0120B84F83B0C3F85C62B74962
:101A7000C3F86072B64DC3F86462A6F53046B54C43
:101A8000C3F86862C3F86C52C3F87052C3F874525A
:101A9000C3F8785248F20C75DA661A675A679A6783
:101AA000DA67C3F88020C3F88420C3F88820C1F81F
:101AB0002C03A94AC1F83003C1F83403C1F8380334
:101AC000C1F83C03C1F85003A169A44B0A40A448E3
:101AD000A4491343A44AA361D4F8843043F00C030F
:101AE000C4F884304FF0FF34036843F0020303600E
:101AF00003682B404FF400551A439C4B026044602E
:101B00008A689B4C13409B4A43F000538360C36830
:101B100023F07803C360036A134023430362036A1C
:101B20001340954A2343954C43628262C26200226D
:101B3000D1F8B83023F03F0343F00103C0F8B830C8
:101B4000D1F8BC308E4923F03F0343F00103C0F8C5
:101B5000BC3040F20563026105660467C0F880305E
:101B6000456644670224C0F88430036823F002030A
:101B700003608161834B8449C46143F8042B8B4229
:101B8000FBD1774A136843F001031360136813F025
:101B90000103FBD17A48022140F2F564906140F2E2
:101BA0009940D16140F26641C2F8004242F20144DC
:101BB000C2F810127549C2F82002C2F8301240F281
:101BC00035417348C2F83442C2F84012714CC2F831
:101BD000500242F201207049C2F854120121C2F8A9
:101BE0006042C2F864025E48C2F8A030C2F8A43075
:101BF000C2F8B0104369DA07FCD5012300244FF482
:101C0000803257494361C0F8A040C0F8A420C0F812
:101C1000B0304B69DB07FCD5012300244FF40030C2
:101C20004F4A4B61C1F8A040C1F8A400C1F8B030E0
:101C30005369DF07FCD50123002458484849536104
:101C4000C2F8A040C2F8A400C2F8B0304B69DE0769
:101C5000FCD5D1F8003145F60D5221209BB24861E8
:101C6000934265D100244FF4802201233C48C1F8FF
:101C7000A040C1F8A420C1F8B0304369DD07FCD50D
:101C800001234FF400040021354A4361C0F8A0400D
:101C9000C0F8A410C0F8B0305369DC07FCD50123AC
:101CA0004FF400044FF480302D495361C2F8A04036
:101CB000C2F8A400C2F8B0304B69D807FCD50123A4
:101CC0004FF400044FF40030254A4B61C1F8A040A6
:101CD000C1F8A400C1F8B0305369D907FCD501237D
:101CE0004FF400042D481E495361C2F8A040C2F8C9
:101CF000A400C2F8B0304B69DA07FCD5D1F8003146
:101D000045F60D5221209BB24861934250D00825E0
:101D10004FF4000422490020224B234A0090157002
:101D20005A1A01232148224400F006FA03B0F0BDFC
:101D30001E4B0022C3E90022C3E9022203B0F0BD1A
:101D400000801F40F9B00100F910010000841F401D
:101D5000F970010000C00F40FFFCFF1F000300A04E
:101D600000402A4000802A401200FFFFFF37F700A2
:101D70004000008000FFF07CFF000F836300020042
:101D8000F05AF05A00422A4000432A409F0418307B
:101D9000EB06180A3806180A06320126040003006A
:101DA00000000070000000708204042078CA022045
:101DB0004FF400044FF4802201230848C1F8A040EA
:101DC000C1F8A420C1F8B0304369DB07FCD501237A
:101DD00010254FF0807443619CE700BF00402A400B
:101DE000F0B4154A40274FF480314FF480564FF439
:101DF00000554FF4404443F24200136913F0020FC0
:101E00000ED113F4005F0FD013F4805F0ED0002BBF
:101E1000F3DA13F4803F0BD15B060BD5F0BC7047AF
:101E2000946151619061E8E75561E6E75661E4E746
:101E30009161E2E75761E0E700800D403F4A0320EF
:101E40003F49F3EE095AD2F880304FF0000C9FED75
:101E50003D6A23F001039FED3C5A30B4C2F8803054
:101E6000C2F89000D1F8E010384DCBB2384C394868
:101E70002B6007EE903A0B0DC1F30B21F8EEE77AD9
:101E800006EE903A07EE101A334BB8EEC77A21608F
:101E9000F8EEE66A314937EEC66A37EEC55A76EE95
:101EA000C76A77EEE57A26EE266AC3ED006A25EE6C
:101EB000265AD2F8803067EEA64AC0ED007AC6EE08
:101EC000275A274885EE276AC4EEA76A75EE875A17
:101ED000FCEEE55A36EE076A15EE904ABCEEC66A8D
:101EE00043EA045376EE877AC2F8803016EE103A51
:101EF000D2F89041FCEEE77A01EA0341214317EE64
:101F0000903AC2F89011C3F30B03D2F890110B432F
:101F10001449C2F89031D2F8803043F00203C2F87D
:101F20008030114B80F840C0C1F840314FF0E023C1
:101F3000012230BCC3F80821704700BF00810D406A
:101F400000441F400000AA420000B442E0E9032020
:101F5000DCE90320E4E90320E8E903200000FF0FA7
:101F600000E400E00064002039150200314B40F627
:101F7000617210B5C3F8202140F2044400F0CCF89F
:101F80002D4A2E49D2F880302D4843F00303C2F881
:101F900080302C4BC1F8604102681A4203D1D1F85D
:101FA000A8319A071BD0254A4FF00041244B5963B2
:101FB000D2F8403143F00203C2F84031D2F8403148
:101FC0009B07FBD44FF400304FF0E0211C4B4FF047
:101FD0000042C1F88C0219209A6300F0A9F8184A4F
:101FE0004FF08040154C002190630A20164B116081
:101FF0004FF42072C4F8A801184600F091F84FF48D
:10200000800203464FF4810040F243111860C4F887
:1020100058311A640D4B0E4AC4F84811C3F8042213
:102020004FF0E0224FF400310123C2F80C11C4F844
:10203000403110BD00800D4000C00F4000002E4018
:1020400000900D40001C1E000000002000640020D5
:102050005917020008B50E4B1B6E9B0700D4FBBE40
:1020600072B60C4B00200C4AC3F8400103F16043E8
:102070000A49A3F55F2311649D46BFF34F8F4FF4C8
:1020800000130748074ADB6902609B68984700BF56
:1020900000441F4000002E4000C00A400300200002
:1020A00000802020000012EB104BA020104AD96EB7
:1020B00041F4403110B4D96640F23764D96E41F42E
:1020C0004071D96654649064936C1B06FCD4094A31
:1020D00040F23761A02351649364936C13F0800342
:1020E000FBD1054A13705DF8044B704700C00F40E8
:1020F00000400C4000800C407E040420F8B500BF76
:10210000F8BC08BC9E4670475FF800F01506020058
:102110005FF800F04D1102005FF800F0951E02001C
:102120005FF800F0E15402005FF800F009100200CF
:102130005FF800F0050902005FF800F06D30020062
:102140005FF800F0750002005FF800F0255802000B
:102150005FF800F021F301005FF800F03512020093
:1021600005010000398A0000350401006D180100E6
:102170006DB50100B5D40100F9D6010011D70100F9
:1021800029D7010041D7010059D7010071D70100BB
:1021900089D70100A1D70100B9D70100D1D701002B
:1021A00065DD01007DDD010095DD0100ADDD010093
:1021B000C5DD0100DDDD0100F5DD01000DDE010002
:1021C00041DE010071DE010089DE0100A1DE0100B7
:1021D000B9DE0100D1DE01002DF20100790102001B
:1021E00080C00F4000000003190000001000000034
:1021F000E8841F4001000000FF000000FF00000015
:1022000000000000000000001800000010000000A6
:10221000E4841F4001000000FF000000FF000000F8
:1022200000000000000000001F00000001A90100E4
:1022300070C00F40000C00001100000011000000F1
:10224000E0841F40020000002C000000120000008B
:10225000E0841F4001000000100000001100000099
:10226000DC841F40020000002D000000120000006E
:10227000DC841F40010000001E000000F5A80100E2
:1022800070C00F40C00000001200000013000000EA
:10229000D0841F4001000000FF000000FF0000008C
:1022A0000000000000000000130000001300000008
:1022B000CC841F4001000000FF000000FF00000070
:1022C00000000000000000001C000000E9A8010060
:1022D0000080C0E0F0F8FCFE000103070F1F3F7F05
:1022E000000000000001800000000000000000006D
:1022F000038000000000000000000007C000000094
:1023000000000000000007C0000000000000000006
:10231000000FC00000000000000000001FE00000EF
:10232000000000000000001FE000000000000000AE
:1023300000003FE00000000000000000003FF0004F
:1023400000000000000000007FF00000000000001E
:10235000001FF87FF0000000000000003FFE7FF04B
:10236000000000000000003FFF7FF00000000000C0
:1023700000001FFFFBE0000000000000000FFFF95D
:10238000FFC00000000000000FFFF9FFF800000090
:1023900000000007FFF1FFFF00000000000003FC49
:1023A00073FFFF80000000000001FE3FFFFF800080
:1023B0000000000000FF1E0FFF00000000000000F2
:1023C0007FFE1FFC000000000000003FFFFFF80040
:1023D0000000000000000FDFFFE000000000000030
:1023E000001F19FFC0000000000000003F3CFF007C
:1023F000000000000000007E7CF8000000000000EB
:1024000000007FFE7C0000000000000000FFFFFCD9
:102410000000000000000000FFFFFE0000000000C0
:10242000000000FFFFFE0000000000000001FFEFC1
:10243000FE0000000000000001FFCFFE00000000D1
:1024400000000003FF07FE0000000000000003FC86
:1024500007FE0000000000000003F003FE00000083
:1024600000000000018000FE0000000000000000ED
:1024700000007E000000000000000000003E0000A0
:1024800000000000000000000C0000000000000739
:102490008000FC000003C0000000078001FC000079
:1024A00003C0000000078001FC000003C000000022
:1024B000078001E00000001E000000078001E0002E
:1024C00000001E007FE3F79FF9FDE7787BDFC0FF88
:1024D000F7FFBFFDFDFF787BDFC0FFF7FFBFFDFD0E
:1024E000FF787BDFC0F0F787BC3DE1FF787BDE0043
:1024F000F0F787BC3DE1F0787BDE0000F787803D98
:10250000E1E0787BDE007FF7879FFDE1E0787BDE0E
:1025100000FFF787BFFDE1E0787BDE00F0F787BCC6
:102520003DE1E0787BDE00F0F787BC3DE1E0787BC1
:10253000DE00F0F787BC3DE1E0787BDE00FFF7FFCF
:10254000BFFDE1E07FFBDFC0FFF7FFBFFDE1E07F04
:10255000FBDFC07CF3F39F3DE1E03E7BCFC000009A
:10256000000000000000000000FFFFFFFFFFFFFF72
:10257000FFFFFFC0FFFFFFFFFD68DB111A31C0FF47
:10258000FFFFFFFD2B5AFB6AEFC0FFFFFFFFFD4B74
:102590005B3B1A33C0FFFFFFFFFD6B5BDB6AFDC0D7
:1025A00000006000000000000000000000000000CB
:1025B00000E000000000000000000000000000013A
:1025C000E00000000000000000000000000001F03A
:1025D0000000000000000000000000000003F00008
:1025E00000000000000000000000000007F00000F4
:1025F000000000000000000000000007F8000000DC
:10260000000000000000000000000FF800000003C0
:10261000C0007E000001E0007F0FF800000003C052
:1026200000FE000001E000FFEFF800000003C00022
:10263000FE000001E000FFFFF800000003C000F012
:102640000000000F007FFE7FC0000003C000F0000C
:1026500000000F003FFE7FF83FF1FBCFFCFEF3BC14
:102660003DEFE01FFE7FFF7FFBFFDFFEFEFFBC3D77
:10267000EFE01FC6FFFF7FFBFFDFFEFEFFBC3DEF6D
:10268000E00FE3C7FE787BC3DE1EF0FFBC3DEF002A
:1026900007FF87FC787BC3DE1EF0F83C3DEF0001AE
:1026A000FFFFF0007BC3C01EF0F03C3DEF0001F3E4
:1026B0007FE03FFBC3CFFEF0F03C3DEF0003E33F84
:1026C000807FFBC3DFFEF0F03C3DEF0007E73C00FE
:1026D000787BC3DE1EF0F03C3DEF0007FFBE0078C4
:1026E0007BC3DE1EF0F03C3DEF0007FFFE00787B71
:1026F000C3DE1EF0F03C3DEF000FFFFE007FFBFF4E
:10270000DFFEF0F03FFDEFE00FFFFF007FFBFFDF9C
:10271000FEF0F03FFDEFE00FF9FF003E79F9CF9EAC
:10272000F0F01F3DE7E01FF1FF0000000000000097
:1027300000000000001F80FF007FFFFFFFFFFFFF82
:10274000FFFFFFE01C007F007FFFFFFFFEB46D88EE
:102750008D18E000001F007FFFFFFFFE95AD7DB5E7
:1027600077E000000F007FFFFFFFFEA5AD9D8D19F4
:10277000E0000006007FFFFFFFFEB5ADEDB57EE097
:10278000AED580A8D300408D2000A1C8DB40A4A610
:102790002EAF00002200FF210000000026000000F4
:1027A00000FF2F002700000000FF2F00A300000003
:1027B00029000000012F0000A30000002A000000F3
:1027C000012F000018035400650065006E007300BF
:1027D000790020004D0049004400490018035400CE
:1027E000650065006E007300790064007500690083
:1027F0006E006F000403090409029500030100C084
:1028000032080B000202020100090400000102026A
:102810000100052400100105240101010424020621
:1028200005240600010705820310001009040100B9
:10283000020A0000000705030240000007058302AA
:102840004000000904020002010300000724010007
:1028500001250006240201010006240202020009EB
:102860002403010301020100092403020401010100
:1028700000090504024000000000052501010109CE
:10288000058402400000000005250101030000004E
:1028900009029500030100C032080B000202020188
:1028A00000090400000102020100052400100105D6
:1028B0002401010104240206052406000107058203
:1028C0000310000509040100020A000000070503C7
:1028D0000200020007058302000200090402000250
:1028E0000103000007240100012500062402010164
:1028F0000006240202020009240301030102010070
:102900000924030204010101000905040200020078
:1029100000000525010101090584020002000000F4
:1029200005250101030000000A060002EF02014034
:0429300001000000A2
:102934000000000000000000000000000000000093
:102944000000000000000000000000000000000083
:10295400F8B54FF084439D695A6915400DD0254F51
:1029640001269D6195FAA5F4B4FA84F457F824304D
:1029740006FA04F49847A543F4D11F4B9D695A699C
:1029840015400DD01D4F01269D6195FAA5F4B4FAAA
:1029940084F457F8243006FA04F49847A543F4D194
:1029A400174B9D695A6915400DD0164F01269D613C
:1029B40095FAA5F4B4FA84F457F8243006FA04F42A
:1029C4009847A543F4D1104B9D695A6915400DD021
:1029D4000E4F01269D6195FAA5F4B4FA84F457F8D4
:1029E400243006FA04F49847A543F4D1BFF34F8F7B
:1029F400F8BD00BF1C5F0020004000429C5F002027
:102A0400008000421C60002000C000429C60002046
:102A14000548064B1B1AD90F01EBA301491002D03C
:102A2400034B03B118477047C0660020C0660020FE
:102A34000000000008B5054B1BB105490548AFF37C
:102A44000080BDE80840FFF7E3BF00BF00000000BE
:102A540010DD0320004C036000207047704700BF66
:102A6400006910B10368DB6818477047006910B14A
:102A740003681B6918477047006910B103685B69F4
:102A840018474FF0FF307047006910B103689B6925
:102A940018477047006980B10368012200B583B00C
:102AA4009B680DF10701984720B19DF8070003B01A
:102AB4005DF804FB4FF0FF30F9E74FF0FF3070474B
:102AC40000B5006983B08DF8071028B103680122AE
:102AD4000DF10701DB68984703B05DF804FB00BF04
:102AE400704700BF704700BF036D0BB101207047F2
:102AF400406D003818BF0120704700BF704700BF09
:102B040010B50446806D18B124F0CAFA0023A365F9
:102B1400236D2BB104F11800BDE8104016F0CABCB7
:102B2400636D002BF6D110BD10B50446806D00B165
:102B340010BD4FF4807024F0ABFAA065B0B1002250
:102B4400236D02703BB101464FF48072184616F0B3
:102B540001F9A06D10BD636D002BE9D001464FF45F
:102B64008072184613F0C2FDA06D10BD014B1846CB
:102B7400A36510BD7C04042000B5836C83B08DF87C
:102B8400071043B101220DF10701184615F018F89A
:102B940003B05DF804FBC06C0028F9D001220DF1EC
:102BA400070113F0E1F803B05DF804FB38B5056DD7
:102BB4006DB10BB1002038BD1146284614F024FE37
:102BC4000028F7D02846BDE8384014F0BFBF446D54
:102BD400002CEFD0204612F0DBF90028EAD0204682
:102BE400BDE8384013F04EB88A79A2F150031B06B1
:102BF40022D402F26C72F0B54B7985B0046D0133C6
:102C04000D798E784F78DBB209784CB12046019665
:102C14000095CDE90271022114F02CFF05B0F0BD3E
:102C2400406D0028FAD001960095CDE90271022189
:102C340012F06CFF05B0F0BD00207047036D13B1B6
:102C4400184614F011BF406D08B112F0E9BD704789
:102C5400836C00B583B063B101220DF107011846FE
:102C640014F08AFB01280CD19DF8070003B05DF82D
:102C740004FBC06C28B101220DF1070112F0A2F887
:102C8400F0E74FF0FF30F1E7036D13B1184614F08D
:102C940047BC406D08B112F065B94FF0FF30704782
:102CA40010B50446006D80B1037813F0700F00D1A5
:102CB40010BD002114F0A8FD606D0028F8D000229A
:102CC4000023BDE8104012F063B9606D0028EFD016
:102CD40090F8313013F0500FEAD000220023BDE801
:102CE400104012F055B900BF036D10B50C4682B008
:102CF4002BB30DF1060201A9184614F02BF938B3D1
:102D0400BDF80430BDF8062053EA020120D0C2F316
:102D1400451C02F01F00D20AC3F34311400084F89B
:102D240001C0A2705A0A013903F01F0302F5EA62D6
:102D34002070012061712371A27102B010BD406D39
:102D440030B10DF1060201A911F0C8FF0028D7D156
:102D5400002002B010BD00BF036D10B50C4682B058
:102D64002BB30DF1060201A9184614F0E3F838B3A9
:102D7400BDF80430BDF8062053EA020120D0C2F3A6
:102D8400451C02F01F00D20AC3F34311400084F82B
:102D940001C0A2705A0A013903F01F0302F5EA6266
:102DA4002070012061712371A27102B010BD406DC9
:102DB40030B10DF1060201A911F07EFF0028D7D130
:102DC400002002B010BD00BF036D53B1187810F09D
:102DD40008000DD0D8695B69C01A48BF6FF0004085
:102DE4007047436DA3B193F8310010F0080000D18F
:102DF4007047186919685A69401A5B6862EB0303E3
:102E0400B0F1004F73F10003F2D36FF0004070474C
:102E14001846EDE769B170B5054608460C4625F03D
:102E240087FA2B680246214628465B68BDE8704055
:102E340018477047036D13B1586900217047436DFB
:102E440013B1D3E90001704718461946704700BF13
:102E5400036D13B1D86900217047436D13B1D3E9F1
:102E64000401704718461946704700BFF0B595B085
:102E740000224FF47A74244F1831054604A88DF8C3
:102E84000C200097CDE90124CDE9122216F07EFB37
:102E9400129B002B2DD05C20002620F0EFFD019B1F
:102EA40004464660C36004A9029B183040F8083CFD
:102EB4009DF80C3000F8043C144B40F8183C144BBB
:102EC40040F8103C16F0B4FA124B4FF47A72A76033
:102ED4002B606368A66501336E602E73AA602C6153
:102EE40063600D4B04A8009316F0E4FA284615B06D
:102EF400F0BD139B002BCED1064A2B732A602B61A5
:102F0400C5E90134EDE700BF983F0020BC3F002035
:102F1400184000205C3F0020B83C0020836C13B1B3
:102F2400184614F0FDBAC06C08B112F01BB84FF08B
:102F3400FF307047036D33B11B7813F0700F14BF6B
:102F4400012000207047406D30B190F8313013F00B
:102F5400500F14BF01200020704700BF036D13B150
:102F6400184614F009BA406D08B111F02BBF4FF0A8
:102F7400FF307047836C13B1184614F075BDC06CF4
:102F840008B112F04DBC704738B504460C4B806D47
:102F9400236018B124F084F80023A365236D04F1A1
:102FA40018054BB1284616F085FA064B2846A3604F
:102FB40016F080FA204638BD636D002BF2D1F4E799
:102FC400BC3F0020B83C0020036D13B1184614F038
:102FD400F7BD406D08B112F0C7BE7047836C13B1E2
:102FE400184614F0EDBDC06C08B112F0BDBE7047B8
:102FF4008A79A2F150031B0622D402F26C72F0B556
:103004004B7985B0046D01330D798E784F78DBB23E
:1030140009784CB1204601960095CDE9027104214E
:1030240014F028FD05B0F0BD406D0028FAD00196DB
:103034000095CDE90271042112F068FD05B0F0BDE0
:103044000020704738B504460E4B806D236018B1DC
:1030540024F026F80023A365236D04F118056BB151
:10306400284616F027FA084B2846A36016F022FAE1
:1030740020465C2120F004FD204638BD636D002B02
:10308400EED1F0E7BC3F0020B83C0020836C53B184
:10309400187810F008000DD0D8695B69C01A48BFD1
:1030A4006FF000407047C36CA3B193F8310010F087
:1030B400080000D17047186919685A69401A5B689A
:1030C40062EB0303B0F1004F73F10003F2D36FF02E
:1030D400004070471846EDE730B4029C11469C4608
:1030E40034B1012C1CD0022C0ED0002030BC70470F
:1030F400056DF5B14FF0FF33934274EB0C04F4D338
:10310400284630BC14F080BB026D0AB3D369591849
:103114004CF10003002BE8D1104630BC14F074BB12
:10312400026D62B1536959184CF10003002BDCD1D4
:10313400F2E7406D0028D8D030BC11F029BF406DB3
:103144000028D2D0D0E900238A184CEB0303F3E71C
:10315400406D0028C9D0D0E9042330BC8A184CEB58
:10316400030311F015BF00BF38B5044649B1084642
:103174000D4625F0DDF82368024629465B682046A3
:1031840098472046BDE838401FF01CBD10B5094BD8
:1031940004460069236058B14368013B43603BB96E
:1031A4000368DB6A9847206910B103685B68984735
:1031B400204610BD5C3F002010B50B4B044600694F
:1031C400236058B14368013B43603BB90368DB6A41
:1031D4009847206910B103685B689847204614211A
:1031E40020F04EFC204610BD5C3F0020214B5A6865
:1031F400D2E90010D3680968006810B418429468D2
:1032040001EA04012ED0137C03F00303D9B943F07F
:1032140008039908013B11740D2B0BD8DFE803F068
:103224000D071C070A160D0D160A071C070D536916
:10323400013B53615DF8044B704753695DF8044BDF
:1032440001335361704743F00403E0E753695DF8C9
:10325400044B023B5361704753695DF8044B0233DE
:1032640053617047137C03F003030029D1D043F06A
:103274000403CEE7049A0020224BD3F8D420D2E9E9
:103284000010D3680968006810B41842946801EA11
:1032940004012ED0137C03F00303D9B943F00803CF
:1032A4009908013B11740D2B0BD8DFE803F00D07CF
:1032B4001C070A160D0D160A071C070D5369013B5E
:1032C40053615DF8044B704753695DF8044B013357
:1032D4005361704743F00403E0E753695DF8044B1E
:1032E400023B5361704753695DF8044B02335361E9
:1032F4007047137C03F003030029D1D043F0040387
:10330400CEE700BF049A0020224BD3F8D820D2E99C
:103314000010D3680968006810B41842946801EA80
:1033240004012ED0137C03F00303D9B943F008033E
:103334009908013B11740D2B0BD8DFE803F00D073E
:103344001C070A160D0D160A071C070D5369013BCD
:1033540053615DF8044B704753695DF8044B0133C6
:103364005361704743F00403E0E753695DF8044B8D
:10337400023B5361704753695DF8044B0233536158
:103384007047137C03F003030029D1D043F00403F6
:10339400CEE700BF049A0020214B5A6FD2E90010F7
:1033A400D3680968006810B41842946801EA0401FB
:1033B4002ED0137C03F00303D9B943F00803990812
:1033C400013B11740D2B0BD8DFE803F00D071C072C
:1033D4000A160D0D160A071C070D5369013B5361AC
:1033E4005DF8044B704753695DF8044B0133536136
:1033F400704743F00403E0E753695DF8044B023B74
:103404005361704753695DF8044B0233536170474D
:10341400137C03F003030029D1D043F00403CEE767
:10342400049A0020214B9A6FD2E90010D3680968EE
:10343400006810B41842946801EA04012ED0137C89
:1034440003F00303D9B943F008039908013B11744D
:103454000D2B0BD8DFE803F00D071C070A160D0D22
:10346400160A071C070D5369013B53615DF8044BB1
:10347400704753695DF8044B01335361704743F05F
:103484000403E0E753695DF8044B023B5361704762
:1034940053695DF8044B023353617047137C03F0A6
:1034A40003030029D1D043F00403CEE7049A00209B
:1034B400214BDA6FD2E90010D3680968006810B4B0
:1034C4001842946801EA04012ED0137C03F003032C
:1034D400D9B943F008039908013B11740D2B0BD89B
:1034E400DFE803F00D071C070A160D0D160A071C6A
:1034F400070D5369013B53615DF8044B70475369F1
:103504005DF8044B01335361704743F00403E0E773
:1035140053695DF8044B023B5361704753695DF88E
:10352400044B023353617047137C03F003030029F7
:10353400D1D043F00403CEE7049A0020224BD3F801
:103544008020D2E90010D3680968006810B41842DA
:10355400946801EA04012ED0137C03F00303D9B963
:1035640043F008039908013B11740D2B0BD8DFE8D5
:1035740003F00D071C070A160D0D160A071C070D8C
:103584005369013B53615DF8044B704753695DF81F
:10359400044B01335361704743F00403E0E753697C
:1035A4005DF8044B023B5361704753695DF8044B6B
:1035B400023353617047137C03F003030029D1D015
:1035C40043F00403CEE700BF049A0020224BD3F853
:1035D4008420D2E90010D3680968006810B4184246
:1035E400946801EA04012ED0137C03F00303D9B9D3
:1035F40043F008039908013B11740D2B0BD8DFE845
:1036040003F00D071C070A160D0D160A071C070DFB
:103614005369013B53615DF8044B704753695DF88E
:10362400044B01335361704743F00403E0E75369EB
:103634005DF8044B023B5361704753695DF8044BDA
:10364400023353617047137C03F003030029D1D084
:1036540043F00403CEE700BF049A0020224BD3F8C2
:103664008820D2E90010D3680968006810B41842B1
:10367400946801EA04012ED0137C03F00303D9B942
:1036840043F008039908013B11740D2B0BD8DFE8B4
:1036940003F00D071C070A160D0D160A071C070D6B
:1036A4005369013B53615DF8044B704753695DF8FE
:1036B400044B01335361704743F00403E0E753695B
:1036C4005DF8044B023B5361704753695DF8044B4A
:1036D400023353617047137C03F003030029D1D0F4
:1036E40043F00403CEE700BF049A0020224BD3F832
:1036F4008C20D2E90010D3680968006810B418421D
:10370400946801EA04012ED0137C03F00303D9B9B1
:1037140043F008039908013B11740D2B0BD8DFE823
:1037240003F00D071C070A160D0D160A071C070DDA
:103734005369013B53615DF8044B704753695DF86D
:10374400044B01335361704743F00403E0E75369CA
:103754005DF8044B023B5361704753695DF8044BB9
:10376400023353617047137C03F003030029D1D063
:1037740043F00403CEE700BF049A0020224BD3F8A1
:103784009020D2E90010D3680968006810B4184288
:10379400946801EA04012ED0137C03F00303D9B921
:1037A40043F008039908013B11740D2B0BD8DFE893
:1037B40003F00D071C070A160D0D160A071C070D4A
:1037C4005369013B53615DF8044B704753695DF8DD
:1037D400044B01335361704743F00403E0E753693A
:1037E4005DF8044B023B5361704753695DF8044B29
:1037F400023353617047137C03F003030029D1D0D3
:1038040043F00403CEE700BF049A0020224BD3F810
:103814009420D2E90010D3680968006810B41842F3
:10382400946801EA04012ED0137C03F00303D9B990
:1038340043F008039908013B11740D2B0BD8DFE802
:1038440003F00D071C070A160D0D160A071C070DB9
:103854005369013B53615DF8044B704753695DF84C
:10386400044B01335361704743F00403E0E75369A9
:103874005DF8044B023B5361704753695DF8044B98
:10388400023353617047137C03F003030029D1D042
:1038940043F00403CEE700BF049A0020224BD3F880
:1038A4009820D2E90010D3680968006810B418425F
:1038B400946801EA04012ED0137C03F00303D9B900
:1038C40043F008039908013B11740D2B0BD8DFE872
:1038D40003F00D071C070A160D0D160A071C070D29
:1038E4005369013B53615DF8044B704753695DF8BC
:1038F400044B01335361704743F00403E0E7536919
:103904005DF8044B023B5361704753695DF8044B07
:10391400023353617047137C03F003030029D1D0B1
:1039240043F00403CEE700BF049A0020224BD3F8EF
:103934009C20D2E90010D3680968006810B41842CA
:10394400946801EA04012ED0137C03F00303D9B96F
:1039540043F008039908013B11740D2B0BD8DFE8E1
:1039640003F00D071C070A160D0D160A071C070D98
:103974005369013B53615DF8044B704753695DF82B
:10398400044B01335361704743F00403E0E7536988
:103994005DF8044B023B5361704753695DF8044B77
:1039A400023353617047137C03F003030029D1D021
:1039B40043F00403CEE700BF049A0020224BD3F85F
:1039C400A020D2E90010D3680968006810B4184236
:1039D400946801EA04012ED0137C03F00303D9B9DF
:1039E40043F008039908013B11740D2B0BD8DFE851
:1039F40003F00D071C070A160D0D160A071C070D08
:103A04005369013B53615DF8044B704753695DF89A
:103A1400044B01335361704743F00403E0E75369F7
:103A24005DF8044B023B5361704753695DF8044BE6
:103A3400023353617047137C03F003030029D1D090
:103A440043F00403CEE700BF049A0020224BD3F8CE
:103A5400A420D2E90010D3680968006810B41842A1
:103A6400946801EA04012ED0137C03F00303D9B94E
:103A740043F008039908013B11740D2B0BD8DFE8C0
:103A840003F00D071C070A160D0D160A071C070D77
:103A94005369013B53615DF8044B704753695DF80A
:103AA400044B01335361704743F00403E0E7536967
:103AB4005DF8044B023B5361704753695DF8044B56
:103AC400023353617047137C03F003030029D1D000
:103AD40043F00403CEE700BF049A0020224BD3F83E
:103AE400A820D2E90010D3680968006810B418420D
:103AF400946801EA04012ED0137C03F00303D9B9BE
:103B040043F008039908013B11740D2B0BD8DFE82F
:103B140003F00D071C070A160D0D160A071C070DE6
:103B24005369013B53615DF8044B704753695DF879
:103B3400044B01335361704743F00403E0E75369D6
:103B44005DF8044B023B5361704753695DF8044BC5
:103B5400023353617047137C03F003030029D1D06F
:103B640043F00403CEE700BF049A0020224BD3F8AD
:103B7400AC20D2E90010D3680968006810B4184278
:103B8400946801EA04012ED0137C03F00303D9B92D
:103B940043F008039908013B11740D2B0BD8DFE89F
:103BA40003F00D071C070A160D0D160A071C070D56
:103BB4005369013B53615DF8044B704753695DF8E9
:103BC400044B01335361704743F00403E0E7536946
:103BD4005DF8044B023B5361704753695DF8044B35
:103BE400023353617047137C03F003030029D1D0DF
:103BF40043F00403CEE700BF049A0020224BD3F81D
:103C0400B020D2E90010D3680968006810B41842E3
:103C1400946801EA04012ED0137C03F00303D9B99C
:103C240043F008039908013B11740D2B0BD8DFE80E
:103C340003F00D071C070A160D0D160A071C070DC5
:103C44005369013B53615DF8044B704753695DF858
:103C5400044B01335361704743F00403E0E75369B5
:103C64005DF8044B023B5361704753695DF8044BA4
:103C7400023353617047137C03F003030029D1D04E
:103C840043F00403CEE700BF049A0020224BD3F88C
:103C9400B420D2E90010D3680968006810B418424F
:103CA400946801EA04012ED0137C03F00303D9B90C
:103CB40043F008039908013B11740D2B0BD8DFE87E
:103CC40003F00D071C070A160D0D160A071C070D35
:103CD4005369013B53615DF8044B704753695DF8C8
:103CE400044B01335361704743F00403E0E7536925
:103CF4005DF8044B023B5361704753695DF8044B14
:103D0400023353617047137C03F003030029D1D0BD
:103D140043F00403CEE700BF049A0020224BD3F8FB
:103D2400B820D2E90010D3680968006810B41842BA
:103D3400946801EA04012ED0137C03F00303D9B97B
:103D440043F008039908013B11740D2B0BD8DFE8ED
:103D540003F00D071C070A160D0D160A071C070DA4
:103D64005369013B53615DF8044B704753695DF837
:103D7400044B01335361704743F00403E0E7536994
:103D84005DF8044B023B5361704753695DF8044B83
:103D9400023353617047137C03F003030029D1D02D
:103DA40043F00403CEE700BF049A0020224BD3F86B
:103DB400BC20D2E90010D3680968006810B4184226
:103DC400946801EA04012ED0137C03F00303D9B9EB
:103DD40043F008039908013B11740D2B0BD8DFE85D
:103DE40003F00D071C070A160D0D160A071C070D14
:103DF4005369013B53615DF8044B704753695DF8A7
:103E0400044B01335361704743F00403E0E7536903
:103E14005DF8044B023B5361704753695DF8044BF2
:103E2400023353617047137C03F003030029D1D09C
:103E340043F00403CEE700BF049A0020224BD3F8DA
:103E4400C020D2E90010D3680968006810B4184291
:103E5400946801EA04012ED0137C03F00303D9B95A
:103E640043F008039908013B11740D2B0BD8DFE8CC
:103E740003F00D071C070A160D0D160A071C070D83
:103E84005369013B53615DF8044B704753695DF816
:103E9400044B01335361704743F00403E0E7536973
:103EA4005DF8044B023B5361704753695DF8044B62
:103EB400023353617047137C03F003030029D1D00C
:103EC40043F00403CEE700BF049A0020224BD3F84A
:103ED400C420D2E90010D3680968006810B41842FD
:103EE400946801EA04012ED0137C03F00303D9B9CA
:103EF40043F008039908013B11740D2B0BD8DFE83C
:103F040003F00D071C070A160D0D160A071C070DF2
:103F14005369013B53615DF8044B704753695DF885
:103F2400044B01335361704743F00403E0E75369E2
:103F34005DF8044B023B5361704753695DF8044BD1
:103F4400023353617047137C03F003030029D1D07B
:103F540043F00403CEE700BF049A0020224BD3F8B9
:103F6400C820D2E90010D3680968006810B4184268
:103F7400946801EA04012ED0137C03F00303D9B939
:103F840043F008039908013B11740D2B0BD8DFE8AB
:103F940003F00D071C070A160D0D160A071C070D62
:103FA4005369013B53615DF8044B704753695DF8F5
:103FB400044B01335361704743F00403E0E7536952
:103FC4005DF8044B023B5361704753695DF8044B41
:103FD400023353617047137C03F003030029D1D0EB
:103FE40043F00403CEE700BF049A0020224BD3F829
:103FF400CC20D2E90010D3680968006810B41842D4
:10400400946801EA04012ED0137C03F00303D9B9A8
:1040140043F008039908013B11740D2B0BD8DFE81A
:1040240003F00D071C070A160D0D160A071C070DD1
:104034005369013B53615DF8044B704753695DF864
:10404400044B01335361704743F00403E0E75369C1
:104054005DF8044B023B5361704753695DF8044BB0
:10406400023353617047137C03F003030029D1D05A
:1040740043F00403CEE700BF049A0020224BD3F898
:10408400D020D2E90010D3680968006810B418423F
:10409400946801EA04012ED0137C03F00303D9B918
:1040A40043F008039908013B11740D2B0BD8DFE88A
:1040B40003F00D071C070A160D0D160A071C070D41
:1040C4005369013B53615DF8044B704753695DF8D4
:1040D400044B01335361704743F00403E0E7536931
:1040E4005DF8044B023B5361704753695DF8044B20
:1040F400023353617047137C03F003030029D1D0CA
:1041040043F00403CEE700BF049A0020214BDA6891
:10411400D2E90010D3680968006810B418429468A2
:1041240001EA04012ED0137C03F00303D9B943F050
:1041340008039908013B11740D2B0BD8DFE803F039
:104144000D071C070A160D0D160A071C070D5369E7
:10415400013B53615DF8044B704753695DF8044BB0
:1041640001335361704743F00403E0E753695DF89A
:10417400044B023B5361704753695DF8044B0233AF
:1041840053617047137C03F003030029D1D043F03B
:104194000403CEE7049A0020214B1A69D2E90010E7
:1041A400D3680968006810B41842946801EA0401ED
:1041B4002ED0137C03F00303D9B943F00803990804
:1041C400013B11740D2B0BD8DFE803F00D071C071E
:1041D4000A160D0D160A071C070D5369013B53619E
:1041E4005DF8044B704753695DF8044B0133536128
:1041F400704743F00403E0E753695DF8044B023B66
:104204005361704753695DF8044B0233536170473F
:10421400137C03F003030029D1D043F00403CEE759
:10422400049A0020214B9A68D2E90010D3680968E7
:10423400006810B41842946801EA04012ED0137C7B
:1042440003F00303D9B943F008039908013B11743F
:104254000D2B0BD8DFE803F00D071C070A160D0D14
:10426400160A071C070D5369013B53615DF8044BA3
:10427400704753695DF8044B01335361704743F051
:104284000403E0E753695DF8044B023B5361704754
:1042940053695DF8044B023353617047137C03F098
:1042A40003030029D1D043F00403CEE7049A00208D
:1042B400214B1A68D2E90010D3680968006810B469
:1042C4001842946801EA04012ED0137C03F003031E
:1042D400D9B943F008039908013B11740D2B0BD88D
:1042E400DFE803F00D071C070A160D0D160A071C5C
:1042F400070D5369013B53615DF8044B70475369E3
:104304005DF8044B01335361704743F00403E0E765
:1043140053695DF8044B023B5361704753695DF880
:10432400044B023353617047137C03F003030029E9
:10433400D1D043F00403CEE7049A0020214B5A6BFA
:10434400D2E90010D3680968006810B41842946870
:1043540001EA04012ED0137C03F00303D9B943F01E
:1043640008039908013B11740D2B0BD8DFE803F007
:104374000D071C070A160D0D160A071C070D5369B5
:10438400013B53615DF8044B704753695DF8044B7E
:1043940001335361704743F00403E0E753695DF868
:1043A400044B023B5361704753695DF8044B02337D
:1043B40053617047137C03F003030029D1D043F009
:1043C4000403CEE7049A0020214B9A6BD2E9001033
:1043D400D3680968006810B41842946801EA0401BB
:1043E4002ED0137C03F00303D9B943F008039908D2
:1043F400013B11740D2B0BD8DFE803F00D071C07EC
:104404000A160D0D160A071C070D5369013B53616B
:104414005DF8044B704753695DF8044B01335361F5
:10442400704743F00403E0E753695DF8044B023B33
:104434005361704753695DF8044B0233536170470D
:10444400137C03F003030029D1D043F00403CEE727
:10445400049A0020214BDA6BD2E90010D368096872
:10446400006810B41842946801EA04012ED0137C49
:1044740003F00303D9B943F008039908013B11740D
:104484000D2B0BD8DFE803F00D071C070A160D0DE2
:10449400160A071C070D5369013B53615DF8044B71
:1044A400704753695DF8044B01335361704743F01F
:1044B4000403E0E753695DF8044B023B5361704722
:1044C40053695DF8044B023353617047137C03F066
:1044D40003030029D1D043F00403CEE7049A00205B
:1044E400214B1A6CD2E90010D3680968006810B433
:1044F4001842946801EA04012ED0137C03F00303EC
:10450400D9B943F008039908013B11740D2B0BD85A
:10451400DFE803F00D071C070A160D0D160A071C29
:10452400070D5369013B53615DF8044B70475369B0
:104534005DF8044B01335361704743F00403E0E733
:1045440053695DF8044B023B5361704753695DF84E
:10455400044B023353617047137C03F003030029B7
:10456400D1D043F00403CEE7049A0020214B5A6CC7
:10457400D2E90010D3680968006810B4184294683E
:1045840001EA04012ED0137C03F00303D9B943F0EC
:1045940008039908013B11740D2B0BD8DFE803F0D5
:1045A4000D071C070A160D0D160A071C070D536983
:1045B400013B53615DF8044B704753695DF8044B4C
:1045C40001335361704743F00403E0E753695DF836
:1045D400044B023B5361704753695DF8044B02334B
:1045E40053617047137C03F003030029D1D043F0D7
:1045F4000403CEE7049A0020214B9A6CD2E9001000
:10460400D3680968006810B41842946801EA040188
:104614002ED0137C03F00303D9B943F0080399089F
:10462400013B11740D2B0BD8DFE803F00D071C07B9
:104634000A160D0D160A071C070D5369013B536139
:104644005DF8044B704753695DF8044B01335361C3
:10465400704743F00403E0E753695DF8044B023B01
:104664005361704753695DF8044B023353617047DB
:10467400137C03F003030029D1D043F00403CEE7F5
:10468400049A0020214BDA6CD2E90010D36809683F
:10469400006810B41842946801EA04012ED0137C17
:1046A40003F00303D9B943F008039908013B1174DB
:1046B4000D2B0BD8DFE803F00D071C070A160D0DB0
:1046C400160A071C070D5369013B53615DF8044B3F
:1046D400704753695DF8044B01335361704743F0ED
:1046E4000403E0E753695DF8044B023B53617047F0
:1046F40053695DF8044B023353617047137C03F034
:1047040003030029D1D043F00403CEE7049A002028
:10471400214B1A6DD2E90010D3680968006810B4FF
:104724001842946801EA04012ED0137C03F00303B9
:10473400D9B943F008039908013B11740D2B0BD828
:10474400DFE803F00D071C070A160D0D160A071CF7
:10475400070D5369013B53615DF8044B704753697E
:104764005DF8044B01335361704743F00403E0E701
:1047740053695DF8044B023B5361704753695DF81C
:10478400044B023353617047137C03F00303002985
:10479400D1D043F00403CEE7049A0020214B5A6D94
:1047A400D2E90010D3680968006810B4184294680C
:1047B40001EA04012ED0137C03F00303D9B943F0BA
:1047C40008039908013B11740D2B0BD8DFE803F0A3
:1047D4000D071C070A160D0D160A071C070D536951
:1047E400013B53615DF8044B704753695DF8044B1A
:1047F40001335361704743F00403E0E753695DF804
:10480400044B023B5361704753695DF8044B023318
:1048140053617047137C03F003030029D1D043F0A4
:104824000403CEE7049A0020214B9A6DD2E90010CC
:10483400D3680968006810B41842946801EA040156
:104844002ED0137C03F00303D9B943F0080399086D
:10485400013B11740D2B0BD8DFE803F00D071C0787
:104864000A160D0D160A071C070D5369013B536107
:104874005DF8044B704753695DF8044B0133536191
:10488400704743F00403E0E753695DF8044B023BCF
:104894005361704753695DF8044B023353617047A9
:1048A400137C03F003030029D1D043F00403CEE7C3
:1048B400049A0020214BDA6DD2E90010D36809680C
:1048C400006810B41842946801EA04012ED0137CE5
:1048D40003F00303D9B943F008039908013B1174A9
:1048E4000D2B0BD8DFE803F00D071C070A160D0D7E
:1048F400160A071C070D5369013B53615DF8044B0D
:10490400704753695DF8044B01335361704743F0BA
:104914000403E0E753695DF8044B023B53617047BD
:1049240053695DF8044B023353617047137C03F001
:1049340003030029D1D043F00403CEE7049A0020F6
:10494400214B1A6ED2E90010D3680968006810B4CC
:104954001842946801EA04012ED0137C03F0030387
:10496400D9B943F008039908013B11740D2B0BD8F6
:10497400DFE803F00D071C070A160D0D160A071CC5
:10498400070D5369013B53615DF8044B704753694C
:104994005DF8044B01335361704743F00403E0E7CF
:1049A40053695DF8044B023B5361704753695DF8EA
:1049B400044B023353617047137C03F00303002953
:1049C400D1D043F00403CEE7049A0020214B5A6E61
:1049D400D2E90010D3680968006810B418429468DA
:1049E40001EA04012ED0137C03F00303D9B943F088
:1049F40008039908013B11740D2B0BD8DFE803F071
:104A04000D071C070A160D0D160A071C070D53691E
:104A1400013B53615DF8044B704753695DF8044BE7
:104A240001335361704743F00403E0E753695DF8D1
:104A3400044B023B5361704753695DF8044B0233E6
:104A440053617047137C03F003030029D1D043F072
:104A54000403CEE7049A0020214B9A6ED2E9001099
:104A6400D3680968006810B41842946801EA040124
:104A74002ED0137C03F00303D9B943F0080399083B
:104A8400013B11740D2B0BD8DFE803F00D071C0755
:104A94000A160D0D160A071C070D5369013B5361D5
:104AA4005DF8044B704753695DF8044B013353615F
:104AB400704743F00403E0E753695DF8044B023B9D
:104AC4005361704753695DF8044B02335361704777
:104AD400137C03F003030029D1D043F00403CEE791
:104AE400049A0020214BDA6ED2E90010D3680968D9
:104AF400006810B41842946801EA04012ED0137CB3
:104B040003F00303D9B943F008039908013B117476
:104B14000D2B0BD8DFE803F00D071C070A160D0D4B
:104B2400160A071C070D5369013B53615DF8044BDA
:104B3400704753695DF8044B01335361704743F088
:104B44000403E0E753695DF8044B023B536170478B
:104B540053695DF8044B023353617047137C03F0CF
:104B640003030029D1D043F00403CEE7049A0020C4
:104B7400214B1A6FD2E90010D3680968006810B499
:104B84001842946801EA04012ED0137C03F0030355
:104B9400D9B943F008039908013B11740D2B0BD8C4
:104BA400DFE803F00D071C070A160D0D160A071C93
:104BB400070D5369013B53615DF8044B704753691A
:104BC4005DF8044B01335361704743F00403E0E79D
:104BD40053695DF8044B023B5361704753695DF8B8
:104BE400044B023353617047137C03F00303002921
:104BF400D1D043F00403CEE7049A0020214B5A6934
:104C0400D2E90010D3680968006810B418429468A7
:104C140001EA04012ED0137C03F00303D9B943F055
:104C240008039908013B11740D2B0BD8DFE803F03E
:104C34000D071C070A160D0D160A071C070D5369EC
:104C4400013B53615DF8044B704753695DF8044BB5
:104C540001335361704743F00403E0E753695DF89F
:104C6400044B023B5361704753695DF8044B0233B4
:104C740053617047137C03F003030029D1D043F040
:104C84000403CEE7049A0020214B9A69D2E900106C
:104C9400D3680968006810B41842946801EA0401F2
:104CA4002ED0137C03F00303D9B943F00803990809
:104CB400013B11740D2B0BD8DFE803F00D071C0723
:104CC4000A160D0D160A071C070D5369013B5361A3
:104CD4005DF8044B704753695DF8044B013353612D
:104CE400704743F00403E0E753695DF8044B023B6B
:104CF4005361704753695DF8044B02335361704745
:104D0400137C03F003030029D1D043F00403CEE75E
:104D1400049A0020214BDA69D2E90010D3680968AB
:104D2400006810B41842946801EA04012ED0137C80
:104D340003F00303D9B943F008039908013B117444
:104D44000D2B0BD8DFE803F00D071C070A160D0D19
:104D5400160A071C070D5369013B53615DF8044BA8
:104D6400704753695DF8044B01335361704743F056
:104D74000403E0E753695DF8044B023B5361704759
:104D840053695DF8044B023353617047137C03F09D
:104D940003030029D1D043F00403CEE7049A002092
:104DA400214B1A6AD2E90010D3680968006810B46C
:104DB4001842946801EA04012ED0137C03F0030323
:104DC400D9B943F008039908013B11740D2B0BD892
:104DD400DFE803F00D071C070A160D0D160A071C61
:104DE400070D5369013B53615DF8044B70475369E8
:104DF4005DF8044B01335361704743F00403E0E76B
:104E040053695DF8044B023B5361704753695DF885
:104E1400044B023353617047137C03F003030029EE
:104E2400D1D043F00403CEE7049A0020214B5A6A00
:104E3400D2E90010D3680968006810B41842946875
:104E440001EA04012ED0137C03F00303D9B943F023
:104E540008039908013B11740D2B0BD8DFE803F00C
:104E64000D071C070A160D0D160A071C070D5369BA
:104E7400013B53615DF8044B704753695DF8044B83
:104E840001335361704743F00403E0E753695DF86D
:104E9400044B023B5361704753695DF8044B023382
:104EA40053617047137C03F003030029D1D043F00E
:104EB4000403CEE7049A0020214B9A6AD2E9001039
:104EC400D3680968006810B41842946801EA0401C0
:104ED4002ED0137C03F00303D9B943F008039908D7
:104EE400013B11740D2B0BD8DFE803F00D071C07F1
:104EF4000A160D0D160A071C070D5369013B536171
:104F04005DF8044B704753695DF8044B01335361FA
:104F1400704743F00403E0E753695DF8044B023B38
:104F24005361704753695DF8044B02335361704712
:104F3400137C03F003030029D1D043F00403CEE72C
:104F4400049A0020214BDA6AD2E90010D368096878
:104F5400006810B41842946801EA04012ED0137C4E
:104F640003F00303D9B943F008039908013B117412
:104F74000D2B0BD8DFE803F00D071C070A160D0DE7
:104F8400160A071C070D5369013B53615DF8044B76
:104F9400704753695DF8044B01335361704743F024
:104FA4000403E0E753695DF8044B023B5361704727
:104FB40053695DF8044B023353617047137C03F06B
:104FC40003030029D1D043F00403CEE7049A002060
:104FD400214B1A6BD2E90010D3680968006810B439
:104FE4001842946801EA04012ED0137C03F00303F1
:104FF400D9B943F008039908013B11740D2B0BD860
:10500400DFE803F00D071C070A160D0D160A071C2E
:10501400070D5369013B53615DF8044B70475369B5
:105024005DF8044B01335361704743F00403E0E738
:1050340053695DF8044B023B5361704753695DF853
:10504400044B023353617047137C03F003030029BC
:10505400D1D043F00403CEE7049A00200B4610B5E8
:10506400362800F29782DFE810F08C02820279027F
:10507400700267025E0255024C0243023A02310298
:1050840028021F02BF01B601AD01A4019B019201D8
:105094008901800177016E0165015C0153014A01B8
:1050A400410138012F0126011D0113010901FF00EF
:1050B400F500EB00E100D700CD00C300B900AF005C
:1050C400A5009B00910087007D00730069005F00CC
:1050D40055004B0041003700C84C0422C849362013
:1050E400C4F8D8301EF0A6FB012010BDC34C042226
:1050F400C4493520C4F8D4301EF09CFB012010BDF7
:10510400BE4C0422C0493420C4F8D0301EF092FBB7
:10511400012010BDB94C0422BC493320C4F8CC3062
:105124001EF088FB012010BDB44C0422B849322083
:10513400C4F8C8301EF07EFB012010BDAF4C042221
:10514400B4493120C4F8C4301EF074FB012010BDF2
:10515400AA4C0422B0493020C4F8C0301EF06AFBC7
:10516400012010BDA54C0422AC492F20C4F8BC304A
:105174001EF060FB012010BDA04C0422A8492E2083
:10518400C4F8B8301EF056FB012010BD9B4C04221D
:10519400A4492D20C4F8B4301EF04CFB012010BDEE
:1051A400964C0422A0492C20C4F8B0301EF042FBD7
:1051B400012010BD914C04229C492B20C4F8AC3032
:1051C4001EF038FB012010BD8C4C042298492A2083
:1051D400C4F8A8301EF02EFB012010BD874C042219
:1051E40094492920C4F8A4301EF024FB012010BDEA
:1051F400824C042290492820C4F8A0301EF01AFBE7
:10520400012010BD7D4C04228C492720C4F89C3019
:105214001EF010FB012010BD784C04228849262082
:10522400C4F898301EF006FB012010BD734C042214
:1052340084492520C4F894301EF0FCFA012010BDE6
:105244006E4C042280492420C4F890301EF0F2FAF7
:10525400012010BD694C04227C492320C4F88C3001
:105264001EF0E8FA012010BD644C04227849222083
:10527400C4F888301EF0DEFA012010BD5F4C042211
:1052840074492120C4F884301EF0D4FA012010BDE2
:105294005A4C042270492020C4F880301EF0CAFA07
:1052A400012010BD554C04226C491F20E3671EF0F9
:1052B400C1FA012010BD514C042269491E20A36784
:1052C4001EF0B8FA012010BD4C4C042265491D2083
:1052D40063671EF0AFFA012010BD484C04226249F6
:1052E4001C2023671EF0A6FA012010BD434C0422A3
:1052F4005E491B20E3661EF09DFA012010BD3F4C61
:1053040004225B491A20A3661EF094FA012010BD02
:105314003A4C04225749192063661EF08BFA012087
:1053240010BD364C04225449182023661EF082FA1C
:10533400012010BD314C042250491720E3651EF0B2
:1053440079FA012010BD2D4C04224D491620A36585
:105354001EF070FA012010BD284C04224949152082
:1053640063651EF067FA012010BD244C04224649EF
:10537400142023651EF05EFA012010BD1F4C042288
:1053840042491320E3641EF055FA012010BD1B4C62
:1053940004223F491220A3641EF04CFA012010BDE0
:1053A400164C04223B49112063641EF043FA012089
:1053B40010BD124C04223849102023641EF03AFA1E
:1053C400012010BD0D4C042234490F20E3631EF06C
:1053D40031FA012010BD094C042231490E20A36387
:1053E4001EF028FA012010BD044C04222D490D2082
:1053F40063631EF01FFA012010BD00BF049A002051
:10540400D9090000490900004D170000BD1600002D
:105414002D1600009D1500000D1500007D140000E0
:10542400ED1300005D130000CD1200003D120000DA
:10543400AD1100001D1100008D100000FD0F0000D3
:105444006D0F0000DD0E00004D0E0000BD0D0000CC
:105454002D0D00009D0C00000D0C0000810B0000C0
:10546400F50A0000690A000041220000B52100008D
:10547400292100009D20000011200000851F00004C
:10548400F91E00006D1E0000E11D0000551D000006
:10549400C91C00003D1C0000B11B0000251B0000BE
:1054A400991A00000D1A00003B4C04223B490C20C1
:1054B40023631EF0BFF9012010BD374C0422384984
:1054C4000B20E3621EF0B6F9012010BD324C042219
:1054D40034490A20A3621EF0ADF9012010BD2E4C00
:1054E40004223149092063621EF0A4F9012010BD91
:1054F400294C04222D49082023621EF09BF9012027
:1055040010BD254C04222A490720E3611EF092F9BC
:10551400012010BD204C042226490620A3611EF060
:1055240089F9012010BD1C4C042223490520636124
:105534001EF080F9012010BD0422174C1F491046AB
:1055440023611EF077F9012010BD134C04221C497D
:105554000320E3601EF06EF9012010BD0E4C0422FE
:1055640018490220A3601EF065F9012010BD04460D
:10557400094804221449436001201EF05BF92046C7
:1055840010BD054C04221149002023601EF052F97D
:10559400012010BD002010BD049A0020A1260000A7
:1055A4001526000089250000FD2400007124000058
:1055B400E523000059230000CD22000069180000F3
:1055C400DD170000F5180000BD0800008119000077
:1055D40010B584B00446039102921CF015FC00221D
:1055E4002046DDE9023100921CF082FC204604B022
:1055F40010BD00BF10B50023044610460D4A617269
:1056040023722260C4E9033019B18A00194622F0DA
:10561400FFFB094A136853B11A465B69002BFBD19F
:1056240054610023204663616360A37210BD14605B
:10563400F7E700BFE83C00206898002003460022FA
:10564400144910B4144C43F8344B4FF40074C0E9BB
:1056540003230B680481C0E90D22CBB11A465B69B0
:10566400002BFBD150610D4900230D4A0D4C016004
:105674004FF4805182610C4A436143608372C0E9F4
:105684000741C0E909235DF8044BC0E90B337047B7
:105694000860E8E768980020E83C0020383F0020D4
:1056A40090298F0460EA8E0480F9855A002203460B
:1056B40013494FF4806C10B4124C43F8284BA0F8F3
:1056C40008C0C0E903230B68C0E90A22C0E90C2220
:1056D4009BB11A465B69002BFBD1506100224FF449
:1056E400803309495DF8044B426142608272016073
:1056F400C0E90633C0E9083370470860EEE700BF2D
:1057040068980020E83C0020DC3C002038B50022EA
:10571400044603461549164D4FF4007043F8185BD0
:105724002081C4E903230B68C4E90622DBB11A46CD
:105734005B69002BFBD1546100230E494FF40042F6
:1057440004F50F7063616360A37221602363C4F87E
:105754003432A4F83832C4E90833C4E90A231BF00C
:1057640027FE204638BD0C60E6E700BF689800209D
:10577400E83C0020503F00200D49002210B40B6883
:105784000C4C026104600281C2607BB11A465B6901
:10579400002BFBD150610023074A5DF8044B4361A1
:1057A4004360837202600376C36170470860F2E766
:1057B40068980020E83C0020F83E0020F5EEC00A7E
:1057C400F7EE007AF1EE10FAB4EEE70A4AD9F1EEF8
:1057D40010FA28DD3A4ADFED3B7A60EEA70AFDEEC7
:1057E400E07A17EE903ABBB372B6C1690262914295
:1057F40060D010B481FAA2F4EFF3008C1CF0006FB7
:1058040053D003F1010CBCF1020F04D992FBF3F461
:1058140091FBF3F3E41A7CB344620123037662B68A
:105824005DF8044B7047FFEE007AB4EEE70AF1EE40
:1058340010FA28D4DFED237A60EEA70AFDEEE07AB1
:1058440017EE903ADFED207A20EE270AFDEEC07ABB
:1058540017EE902A002BC7D172B60023C2610376DB
:1058640062B67047F1EE10FA0FDD154B72B60022E6
:10587400C361027662B670479142B4BF01214FF012
:10588400FF314162C9E7114AA5E7FFEE007AB4EEA1
:10589400E70AF1EE10FA11D4DFED0B7A20EE270AB5
:1058A400FDEEC07A17EE903AE0E794FBF3F4002C97
:1058B400E2D0B1E70023037662B67047034BD5E725
:1058C4000000FF7F6666304200FEFF4E000001804C
:1058D400F5EEC01AF1EE10FAB4EEE00A26D4F1EEB9
:1058E40010FA20DD30EE600AB7EEE07AB7EE005B26
:1058F40060EE211AB7EEC16A35EE475BB7EEE17A86
:10590400F7EE004A87EE050B30EE060BB7EEC00B40
:10591400B4EEE40AF1EE10FA26DCB5EEC00AF1EEBC
:1059240010FA00D470479FED130A7047F1EE10FA95
:10593400F9D5C0EE207AB7EEC15AB7EEE16AB7EEF8
:10594400007AB7EEE70A30EE450B20EE060BB7EE11
:10595400C00BB4EEC70AF1EE10FA08DCB5EEC00ACB
:10596400F1EE10FADFD47047B0EE640A7047B0EE7F
:10597400470A704700000000B34BB44A1B78117803
:1059840099420FD01370042B6CD8DFE813F06B002E
:105994009800B20099018300AD4A10460021DA61F3
:1059A400C3E90810AB4BAC4A1B781178994211D06B
:1059B4001370042B00F2FD80DFE813F0FB00C90034
:1059C400B5012C01E301A24AA44B0021C3E906213D
:1059D400C3E90811A24BA34A1B781178994211D04C
:1059E4001370042B00F2FA81DFE813F0F80183014D
:1059F400FB00E0019C00964A9B4B0021C3E9062171
:105A0400C3E90811994B9A4A1B78117899420FD02F
:105A14001370042B00F2B580DFE813F0B3003801F3
:105A2400F6010B009E018A4A0021C3E9072159624D
:105A34007047904900229FED907AD1ED007A8F4B08
:105A4400F4EEC77A9A61F1EE10FA00F3F4819FED57
:105A54008C7AF4EEC77AF1EE10FA40F1E282894AC8
:105A64001046EAE1834900229FED837AD1ED007A62
:105A7400854BF4EEC77A9A61F1EE10FA00F3E781F0
:105A84009FED7F7AF4EEC77AF1EE10FA40F1C2820C
:105A94007C4ADDE1774B9FED787AD3ED007AF4EE22
:105AA400C77AF1EE10FA00F3D8819FED757AF4EE1F
:105AB400C77AF1EE10FA40F1A682724ACEE16D493E
:105AC40000229FED6D7AD1ED007A6F4BF4EEC77A28
:105AD4001A62F1EE10FAC3E9062200F3C6819FEDC3
:105AE400687AF4EEC77AF1EE10FA40F18582654ADD
:105AF400BCE1604900229FED607AD1ED007A624BEF
:105B0400F4EEC77AC3E90622F1EE10FA00F3CA8173
:105B14009FED5B7AF4EEC77AF1EE10FA40F16582FC
:105B2400584AC0E1534B9FED547AD3ED007AF4EE1A
:105B3400C77AF1EE10FA3FF75EAF9FED517AF4EEBB
:105B4400C77AF1EE10FA40F149824E4A54E74949C6
:105B540000229FED497AD1ED007A404BF4EEC77AEA
:105B64001A62F1EE10FAC3E9062200F3A6819FED52
:105B7400447AF4EEC77AF1EE10FA40F12882414AF1
:105B84009CE13C4900229FED3C7AD1ED007A3B4BED
:105B9400F4EEC77A9A61F1EE10FA3FF744AF9FED45
:105BA400387AF4EEC77AF1EE10FA40F10982354AF8
:105BB4003AE7304900229FED307AD1ED007A274B45
:105BC400F4EEC77A9A61F1EE10FA00F370819FED5A
:105BD4002C7AF4EEC77AF1EE10FA40F1EA81294A00
:105BE40066E1244900229FED247AD1ED007A1E4B10
:105BF400F4EEC77AC3E90622F1EE10FA00F3468107
:105C04009FED1F7AF4EEC77AF1EE10FA40F1CA81E3
:105C14001C4A3CE1174900229FED177AD1ED007A26
:105C24000E4BF4EEC77A9A61F1EE10FA00F34D814F
:105C34009FED137AF4EEC77AF1EE10FA40F19681F3
:105C4400104A104643E100BF6B040420FC620020AC
:105C54000000FF7F6C040420FD620020D4D80320E0
:105C640069040420FE6200200CD903206A04042085
:105C7400FF6200206461002000FEFF4644D9032037
:105C840000FEFFC6000001809CD80320BC4900220E
:105C94009FEDBC7AD1ED007ABB4BF4EEC77A1A6261
:105CA400F1EE10FAC3E9062200F3E2809FEDB77A21
:105CB400F4EEC77AF1EE10FA40F15181B44AD8E01B
:105CC400AF4900229FEDAF7AD1ED007AB14BF4EEEB
:105CD400C77A9A61F1EE10FA3FF75EAE9FEDAB7AA8
:105CE400F4EEC77AF1EE10FA40F12F81A84A10467B
:105CF40054E6A34900229FEDA37AD1ED007AA64B86
:105D0400F4EEC77A1A62F1EE10FAC3E9062200F340
:105D1400BA809FED9E7AF4EEC77AF1EE10FA40F164
:105D24000D819B4AB0E0964900229FED967AD1ED11
:105D3400007A9A4BF4EEC77AC3E90622F1EE10FA20
:105D440000F3BE809FED917AF4EEC77AF1EE10FA7B
:105D540040F1ED808E4AB4E0894B9FED8A7AD3ED11
:105D6400007AF4EEC77AF1EE10FA00F384809FED26
:105D7400877AF4EEC77AF1EE10FA40F1D180844AC2
:105D84007AE07F4B9FED7F7AD3ED007AF4EEC77A09
:105D9400F1EE10FA3FF717AE9FED7C7AF4EEC77A76
:105DA400F1EE10FA40F1B580794A0DE6744900220B
:105DB4009FED747AD1ED007A774BF4EEC77A9A614D
:105DC400F1EE10FA67DC9FED717AF4EEC77AF1EE2A
:105DD40010FA40F195806E4A10465EE06849002250
:105DE4009FED687AD1ED007A6B4BF4EEC77A9A6135
:105DF400F1EE10FA70DC9FED657AF4EEC77AF1EEFD
:105E040010FA76D5624A68E05D4900229FED5D7A1A
:105E1400D1ED007A5C4BF4EEC77AC3E90622F1EEC9
:105E240010FA0FDC9FED597AF4EEC77AF1EE10FA0E
:105E340058D5574A07E05A4A10460021DA61C3E9A7
:105E440008107047564A0021C3E908217047544A94
:105E54000021C3E907215962A4E5514A4D4B0021B1
:105E6400C3E90621C3E908119CE54D4A5A6299E544
:105E74004B4A5A6270474A4A434B0021C3E9062100
:105E8400C3E908117047464A5A62BBE5444A0021F7
:105E9400C3E90821B6E5424A10460021DA61C3E9A4
:105EA4000810AFE53E4A0021C3E908217AE53C4ADF
:105EB4000021C3E9072159628CE5394A5A6289E510
:105EC400374A0021C3E9082184E5354A10460021F8
:105ED400DA61C3E908107DE5314A0021C3E90721ED
:105EE40059628FE5B0EE677ABEEEC87A17EE102AD3
:105EF400A9E7B0EE677ABEEEC87A17EE102AECE78F
:105F0400B0EE677ABEEEC87A17EE102AC4D52048E0
:105F1400C3E7B0EE677ABEEEC87A17EE102A53E5EF
:105F2400B0EE677ABEEEC87A17EE102AA4E7B0EE98
:105F3400677ABEEEC87A17EE102AC2E7B0EE677A27
:105F4400BEEEC87A17EE102A9EE7B0EE677ABEEE70
:105F5400C87A17EE102A7FF520AD0D481EE5B0EE85
:105F6400677ABEEEC87A17EE102A82E7B0EE677A37
:105F7400BEEEC87A17EE102AA8D50548A7E700BFD9
:105F84006461002000FEFF4644D9032000FEFFC6E2
:105F9400000001809CD803200CD90320D4D803200E
:105FA4000000FF7FB0EE677ABEEEC87A17EE102AC3
:105FB4006DE7B0EE677ABEEEC87A17EE102A77E77F
:105FC400B0EE677ABEEEC87A17EE102A2CE5B0EE72
:105FD400677ABEEEC87A17EE102A6FE7B0EE677ADA
:105FE400BEEEC87A17EE102A06E5B0EE677ABEEE6A
:105FF400C87A17EE102A56E7B0EE677ABEEEC87A72
:1060040017EE102A32E7B0EE677ABEEEC87A17EEC2
:10601400102A23E7B0EE677ABEEEC87A17EE102A8C
:1060240016E7B0EE677ABEEEC87A17EE102A7FF54F
:1060340003AF014801E700BF00000180F0B585B05F
:1060440006460446071D03AD0191204601341DF0A8
:1060540035FA05F8010BBC42F7D1039A019B9A4229
:1060640005D0042231460DEB02001DF0D1FB05B032
:10607400F0BD00BF0000000030B50446EA4AEB4B17
:10608400D2ED000AEA49EB4D2DED108B90F8220079
:1060940083B094F82B20F7EE008A01EE100AD3EDBA
:1060A40000EA05EE102A94F82320B8EE411B94F878
:1060B4002530B8EE455B06EE102A04EE903A94F8CB
:1060C4002020B8EE466B94F8263002EE902A94F81D
:1060D40021209FEDD9EAF8EE644A04EE102AF8EE86
:1060E400622A94F82820B8EE444A91ED008A02EE20
:1060F400102A94F8292072EECE2AD04907EE902A6D
:1061040034EE4E4AB8EE422ACD4AF8EE677A64EE8F
:10611400884A9FEDBD9B9FEDBECB9FEDBFAB31EE9B
:10612400491B35EE495B36EE496B81EE0C3B25EE9F
:106134000A5B26EE0A6BB7EEC55B05EE903A94F85F
:10614400273067EE887AF8EE655A07EE103A94F82D
:106154002A30B7EEC66B06EE903A94F82C3067EE10
:10616400AE7A00EE103AB74BF8EE666AC3ED002A39
:10617400B8EE477AB44B65EE885A66EE886AC1ED8C
:10618400007A83ED004AB8EE400AB04B27EE087A55
:10619400AF49C2ED005A20EE080AC1ED006AAD4ACB
:1061A400AD4982ED007A81ED005AB7EEC33BF0EEC3
:1061B400603A83ED003AA94BE8EE023A83ED006AB7
:1061C400A74BC3ED004AA74B93ED00FAA64BF0EEA4
:1061D4004F0AC3ED003A20F087F894F82D30B0EE62
:1061E400061BA24A07EE103A94F82E30D2ED00DADC
:1061F400B8EE477B06EE903A9D4B2DEE800AF8EE02
:10620400666A9C4A37EE497B93ED00DA94F82F30A6
:1062140066EE886A984927EE0A7B06EE103A974B99
:1062240082ED000AB8EE466AC1ED006A9FED7CBBC0
:10623400B7EEC77BF0EE687A83ED007AE6EE4D7A2E
:10624400B7EEE70A1FF090FD94F8343020EE0B0B04
:1062540094F83B1007EE103A94F8303094F832007A
:10626400B8EE477B06EE103A94F83530844AB8EE1F
:10627400466A37EE497B05EE103A94F83D30B7EEA6
:10628400C00B26EE086A87EE0C4B03EE103A94F826
:106294003A3007EE901A94F83E1005EE903A94F8CE
:1062A4003130F8EE677A06EE903A764BF8EE655A9E
:1062B40083ED000A00EE101A734967EE887AB8EE8F
:1062C400433B724BF8EE666A67EEAE7A33EE493BB7
:1062D400B8EE400A66EE886A23EE0A3BF0EE4F0AF7
:1062E40020EE080AB1EE4DFAB7EEC37BB2EE08CB4E
:1062F400F2EE04EAF7EEC44B91ED004A6449A8EECD
:10630400254AB8EE455B35EE495B81ED004A6149AB
:1063140025EE0A5BC1ED007A07EE900A94F8370087
:10632400F8EE677A5C49B7EEC55B77EECE7A83ED1B
:10633400005AC2ED007A07EE900A5848F8EE677AE0
:1063440094F83330564A67EE887AC0ED007A55489F
:10635400C0ED004A94F8380007EE900A94F839002A
:1063640005EE900A94F83C00F8EE677A05EE100A00
:10637400F8EE655AB8EE455A67EE887A65EE885AA3
:1063840025EE085A81ED005A474981ED007A07EE5F
:10639400103A464BB8EE477A4549C3ED007A454B6F
:1063A40037EE4E7AC1ED005AC3ED006A82ED007AF1
:1063B400414A82ED006A1FF097FF94F83F306DEE7A
:1063C40080DAB0EE680A3D4907EE103A94F841309D
:1063D4003B4AB0EE061BB8EE477B06EE103A94F843
:1063E4004030B8EE466AC1ED00DA37EE497B06EE7E
:1063F400903A344BADEE460A27EE0A7BF8EE666A15
:1064040062E000BFAFF300800000000000005040D5
:106414000000000000005940000000000000903F10
:106424009A9999999999294088900020706100203F
:10643400B85200206C90002000008042A090002000
:10644400505400207090002098950020008F002068
:106454009890002080900020A8950020908E002025
:1064640094950020F061002090900020806100202D
:10647400BC520020C0950020988E0020A08E0020E1
:1064840074900020A85200208C900020948E00204C
:1064940094900020A49000209C900020745300202D
:1064A4009C950020048F0020AC950020D8950020F6
:1064B40084900020108F0020B88E0020C495002006
:1064C4009C8E0020A48E0020B7EEC00A66EE886A77
:1064D400B7EEC77BC2ED006A83ED007A1FF044FC7F
:1064E40094F8453020EE0B0BE94801EE103A94F88D
:1064F400423094F8442007EE903A94F84330B8EED2
:10650400411BE44907EE103AF8EE677AB7EEC00B88
:10651400E14BB8EE477A67EE887A80ED000AB0EE78
:10652400000B27EE087AC1ED007A9FEDD5DB83EDF1
:10653400007ADA4B31EE4D1B1A7081EE0C1B1FF002
:1065440013FC94F8493094F8472007EE103A94F875
:10655400463007EE902A94F84D2005EE903A94F8D0
:106564004B3005EE102AB8EE477AF8EE655A04EE81
:10657400103AF8EE677ACA4BB8EE444BC94A85EE36
:10658400AE3AD3ED003AD2ED00FA94F84820C64B67
:10659400B8EE455B27EE087A34EE494B35EE495B9D
:1065A40077EECE2A24EE0A4BB7EEC77A25EE0A5BC5
:1065B40027EE077BB7EEC42BB7EEE34AB7EEC55B15
:1065C40005EE902A94F84A20B0EE406B24EE074B77
:1065D40007EE102A94F84C2007EE902A94F84E20E7
:1065E400F8EE655A00EE102AB04AB8EE477A82ED0A
:1065F400003A65EE885AAE4AB7EEC44B27EE087AE5
:10660400C2ED002AF8EE677AAA4AB8EE400AF0EE24
:106614006F0AC2ED005A67EE887AA74A20EE080A8C
:106624009FED99BB82ED004AA44A26EE0B6B82EDE6
:10663400007AA34A82ED002AA24AB7EEC66BC2EDE5
:10664400007AA14A83ED006A82ED005A1FF04CFEE5
:1066540094F84F30F0EE687A94F8511007EE103A3F
:106664009A4B01EE101A9A4AB8EE477AD3ED005AC3
:10667400B8EE411B974B25EE800ACDED015AEFEEA3
:10668400077A31EE4D1B82ED000AB0EE000B94F850
:10669400502081EE0C1B77EEA77AC3ED007A8E4B67
:1066A4001A701FF061FB94F85520B0EE407B94F80B
:1066B4005210F0EE6F0A06EE102A884A06EE901A7F
:1066C40094F85710B8EE466A854B03EE101A94F806
:1066D4005910F8EE666A26EE086AB8EE433BC6EE39
:1066E400AE1AB7EEC62A06EE101A7E4933EE493BBF
:1066F400B8EE466B22EE022B91ED004A94F853104B
:1067040036EE496BB7EEC44A23EE0A3B26EE0A6B1B
:1067140022EE042B04EE101A94F8541004EE901A8E
:1067240094F85610B7EEC66B06EE901A94F858100B
:10673400B7EEC22BF8EE666AB7EEC35B82ED002AB1
:1067440027EE0B7B684A66EE886AB8EE444AF8EE98
:10675400644AC2ED006A06EE901A644A34EE4E4A68
:10676400F8EE666A82ED005A64EE884A604AB7EE33
:10677400C77B66EE886A83ED007AC2ED006A5D4AE3
:1067840082ED006A94F85A2000EE102A5A4AB8EEB4
:10679400400AC2ED001A594A82ED004A20EE080A66
:1067A400574AC2ED004A1FF09FFD94F85B30F0EEAB
:1067B400687ADDED015A07EE103A94F85D3025EE63
:1067C400800A94F85C10B8EE477A01EE103A4D4B0B
:1067D400B8EE411B4C4AEFEE077A83ED000A4B4BAF
:1067E400B0EE000B31EE4D1B117081EE0C1B77EEF9
:1067F400A77AC3ED007A1FF0B7FA94F8613020EE5F
:106804000B0B94F85F1007EE103A94F85E3007EE25
:10681400901A3F4906EE903AB8EE477AF8EE677A56
:106824003C4AF8EE666A94F8633027EE087A92EDF3
:10683400004A77EECE7A384886EEAE6A374AB7EE2B
:10684400C44AB7EEC00B80ED000A81ED006A3449FA
:10685400C1ED007AB7EEC77A94F8651027EE077B8E
:1068640005EE101A94F86010B8EE455B06EE101AA7
:106874002C49B8EE466A24EE074B07EE903A53E0F3
:1068840000000000004051400000000000807B40F8
:10689400AC520020BC8E0020148F00206B04042016
:1068A40054610020EC610020E85200201C530020B9
:1068B400FC520020B08E0020408F0020308F00203A
:1068C400208F0020508F0020B0950020846100208C
:1068D400C8950020B05200206C040420448F00208E
:1068E400EC52002058610020348F0020248F0020B7
:1068F400548F0020B4950020205300200053002022
:10690400B48E0020CC95002069040420B4520020E9
:10691400145300205C610020E0520020A88E002067
:10692400F4520020E8610020D1ED006A94F862106E
:10693400B8EE677BE64B35EE495BCDED016A26EE9A
:10694400086A37EE497B25EE0A5B82ED006A27EE82
:106954000A7BB7EEC55BF7EEC44BF0EE660AB7EE02
:10696400C77B07EE901A94F86410F8EE677A05EE88
:10697400901AF8EE655A67EE887A65EE885AC3ED88
:10698400005AD44B83ED005A94F8663000EE103A66
:10699400D14BB8EE400AC3ED004AD04BC3ED007AA8
:1069A40020EE080ACE4B83ED007A1FF09DFC94F88C
:1069B4006730F0EE687A94F8691007EE103AC94B24
:1069C40001EE101AC84AB8EE477AD3ED00FAB8EED1
:1069D400411BC64B2FEE800AEFEE077A31EE4D1BBA
:1069E40082ED000AB0EE000B94F8682081EE0C1BD7
:1069F40077EEA77AC3ED007ABD4B1A701FF0B4F995
:106A040094F86D3020EE0BBBDDED016A07EE103A11
:106A140094F86A30F0EE660AB64A07EE903A94F8B3
:106A24006B30B8EE477A92ED003AF8EE677A06EEEC
:106A3400103A94F86C30B7EEC33A27EE087AAE4AAF
:106A4400C7EEAE4A06EE903AAC4BAD49B8EE466A94
:106A5400B7EEC77AF8EE666A36EE4E6A27EE077B23
:106A640066EE886AB7EECB4BC2ED006A27EE037B75
:106A7400C3ED004A94F86E30A24A04EE903A94F8BA
:106A84006F3081ED004A05EE103A9F4BF8EE644AF0
:106A940083ED006AB8EE455B94F87130B7EEC77BBE
:106AA40064EE884A06EE103A35EE495B94F870308D
:106AB400B8EE466B25EE0A5B07EE903A94F8723016
:106AC40036EE496B00EE103A904BF8EE677AB8EE6A
:106AD400400A26EE0A6BC3ED004A8D4BB7EEC55B48
:106AE40067EE887A20EE080AB7EEC66B83ED005A8B
:106AF400884BC2ED007A83ED006A874B83ED007A00
:106B04001FF0F2FB94F873306FEE80FA834907EEBE
:106B1400103A94F87730824A07EE903AB8EE477A02
:106B2400804BB8EE670AD1ED000AF0EE687AC2ED48
:106B340000FA20EE080AEFEE077A77EEA77AC3EDA3
:106B4400007A1FF0D1FB94F87830B7EE081B764A30
:106B540007EE103A754BD2ED007AB8EE477A27EE7D
:106B6400800AEFEE078A83ED000AB7EEE80A1FF009
:106B7400FBF8B1EE047B94F8793020EE077B06EE47
:106B8400903A6B4BF8EE666A9FED4D1B26EE880A31
:106B9400B7EEC77BB7EEC00A83ED007A1FF0E4F8C6
:106BA40094F88830634A05EE103A634B634993EDD9
:106BB400001AB8EE455B94F88730B7EEC11A604806
:106BC40004EE103A94F87C3035EE495B94F87FC0BB
:106BD40003EE103A94F88430B8EE444B07EE103AC2
:106BE40094F87A3021EE000B08EE903A94F8853050
:106BF40007EE903A94F88630F8EE688AB8EE433A95
:106C0400B7EEC00BB8EE477A23EE083A82ED000ADD
:106C1400F8EE677A4B4A27EE087A80ED003AC2ED27
:106C2400008A67EE887A484A48489FED276B80F8C7
:106C340000C0474825EE062B05EE903A94F88230C2
