:0200000460009A
:100000004643464200000156000000000103030081
:1000100000000000000000000000000000000000E0
:1000200000000000000000000000000000000000D0
:1000300000000000000000000000000000000000C0
:1000400000000000010408000000000000000000A3
:100050000000800000000000000000000000000020
:100060000000000000000000000000000000000090
:100070000000000000000000000000000000000080
:10008000EB04180A063204260000000000000000FD
:10009000050404240000000000000000000000002F
:1000A0000000000000000000000000000000000050
:1000B0000604000000000000000000000000000036
:1000C0000000000000000000000000000000000030
:1000D00020041808000000000000000000000000DC
:1000E0000000000000000000000000000000000010
:1000F0000000000000000000000000000000000000
:10010000D8041808000000000000000000000000F3
:100110000204180804200000000000000000000095
:1001200000000000000000000000000000000000CF
:10013000600400000000000000000000000000005B
:1001400000000000000000000000000000000000AF
:10015000000000000000000000000000000000009F
:10016000000000000000000000000000000000008F
:10017000000000000000000000000000000000007F
:10018000000000000000000000000000000000006F
:10019000000000000000000000000000000000005F
:1001A000000000000000000000000000000000004F
:1001B000000000000000000000000000000000003F
:1001C000000100000010000001000000000000001D
:1001D000000001000000000000000000000000001E
:1001E000000000000000000000000000000000000F
:1001F00000000000000000000000000000000000FF
:10020000FFFFFFFFFFFFFFFFFFFFFFFFFFFFFFFFFE
:10021000FFFFFFFFFFFFFFFFFFFFFFFFFFFFFFFFEE
:10100000D10020434D1600600000000000000000E9
:10101000201000600010006000300360000000003D
:1010200000000060003C030000000000FFFFFFFF25
:10103000FFFFFFFFFFFFFFFFFFFFFFFFFFFFFFFFC0
:10104000FFFFFFFFFFFFFFFFFFFFFFFFFFFFFFFFB0
:10105000FFFFFFFFFFFFFFFFFFFFFFFFFFFFFFFFA0
:10106000FFFFFFFFFFFFFFFFFFFFFFFFFFFFFFFF90
:10140000814205D051F8043B40F8043B8242F9D8B0
:10141000704700BF044A05494FF0000342F8043BFF
:101420009142FBD8704700BFC0660020A09C0320FB
:101430002DE98848BFF34F8F00BF00BF00BF00BF3A
:1014400000F07CFA684B0822C3F8542100BF00BFAB
:1014500000BF00BF00BF00BF00BF00BF00BF00BF94
:1014600000BF00BF00BF00BF00BF00BF5F4A6049B0
:101470006048FFF7C5FF604A60496148FFF7C0FF59
:10148000604CFFF7C7FF4FF470004FF0E0210023DE
:101490005D4AC1F8880D44F823200133B02BFAD1FE
:1014A0005A4B80215A4A03F8011B9342FBD14FF05B
:1014B000E0254D4E4FF08039DFF884B1DFF884A18C
:1014C0004FF0FF31C5F8084D0027C6F80491C6F863
:1014D00000B1C6F8F490C6F8F0A0D5F8243DDFF8C6
:1014E000688143F4E0234B4AC5F8243DD8F81C300A
:1014F00023F07F0343F04003C8F81C30D8F82430B1
:1015000023F07F0343F04003C8F824309166D1668E
:101510001167516700F01AFA3F4B4049A363404BF3
:10152000E36363236B610323AF612B613D4BC5F81C
:10153000203DD5F8FC3D43F08073C5F8FC3D3A4BA7
:101540001A6842F001021A605B680B6000F048FC08
:10155000C6F804913548C6F800B1C6F8F490C6F84C
:10156000F0A000F0E9FDD8F86C10314B314A41F49D
:101570004051C8F86C101F60C3F80871C3F81871A7
:10158000C3F82871C3F83871936BDB0708D442F6AF
:101590001563294951651365936B43F00103936308
:1015A000244A264C936843F00113936000F056FAE6
:1015B00000F07AFD00F0ACFD00F040FC00F0C0F956
:1015C0002368132BFCD900F0D1FC2368B3F5967F78
:1015D000FBD300F0B9F900F0B5F900F0A9FD00F077
:1015E000BBFD30BFFDE700BF00800D40989E0200AC
:1015F0003429006000000000C0660020D0C70260EF
:1016000000000020006400203D07020000E400E02C
:10161000A0E400E000C00A40F5ED0100B88403201A
:10162000F9ED010000002020001000E00046C32377
:101630000040084000400D400000C056BC8403201C
:101640001B1018200C0D111300C00F40054B4FF458
:101650002A01054A05485A641864054A9963954663
:10166000FFF7E6FE00C00A40FFAFAAAA070020006D
:101670000000052043690A4A03EB011010B4037A05
:10168000084C02EB0313D3E901321460C2681A60FC
:1016900003690BB142691A605DF8044B704700BFE3
:1016A0006C43002061F801004369027E03EB0212E3
:1016B00092F808C08C451CD01A7AFF2A19D09142A2
:1016C00010B5044616D01A7EFF2A06D00121D3E9B0
:1016D000002312681A4201D1217610BD064B052263
:1016E000204603EB0C135B681A60FFF7C3FF2176FB
:1016F000F3E770470021EAE76C43002043690A4A98
:1017000003EB011010B490F82830084C02EB0313DF
:10171000D3E901321460C26A1A60036B0BB1426BE9
:101720001A605DF8044B70476C43002061F80100BB
:101730004369427E03EB021292F828C08C451ED00A
:1017400093F82820FF2A1AD0914210B5044617D0EA
:1017500093F83820FF2A06D00121D3E9002312682C
:101760001A4201D1617610BD064B0522204603EBDB
:101770000C135B681A60FFF7C1FF6176F3E77047EF
:101780000021EAE76C430020164942698B6B23F481
:101790007C0343F4802370B58B630446124DD2E979
:1017A00000130A681A4303690A60022200211A61C1
:1017B0000E4A19619A6401225A629D624FF43035D3
:1017C000DD624FF001159E6C1E6519629D651A6100
:1017D000017EFFF74FFF617E2046BDE87040FFF7B6
:1017E0008DBF00BF00C00F40B80B05053B3728195F
:1017F0001BB9124B1B6F9B041ED400F03F000F4B14
:1018000022F0604221F0604140F489101867C3F86B
:101810008010C3F890201A6F22F480521A671A6F52
:10182000002AFCDAD3F87011054A0A40C3F8702187
:101830001A6F22F480321A67704700BF00800D4093
:10184000FF7F7FFFB1F5607FF0B50E468DB028BFFA
:101850004FF460760F46054672B62E4B0024702278
:10186000186021462C4B2D481C8000F04DFCCFB158
:1018700021462A484FF0010C4A0901F01F030131AB
:1018800050F822400CFA03F38E4243EA040340F876
:101890002230F1D8284600234380013300F58270BE
:1018A0009E42F9D81E4C257815B162B60DB0F0BD38
:1018B000082000F035FC1B4B80220646009302A94D
:1018C0000693194B0271056008A8029300F040FCD2
:1018D00006A9164A304600F037FC069B08A8DB68CC
:1018E0009847009B02A8DB6898472378002BDCD13F
:1018F0000F4B104AC3F858210F49D0204FF0E02376
:10190000402281F84600C3F808210123237062B603
:101910000DB0F0BDD49600200E9C0320DC96002074
:10192000399C03206840002005E801001B100100DD
:101930000064002011E8010000E400E0704700BFEF
:10194000704700BF704700BF00BF704710B44FF032
:10195000E023002110243148C3F8941DC3F89C4DA6
:101960001124C3F8A00D2E48C3F89C4D1224C3F8CF
:10197000A00D2C48C3F89C4D2B4AC3F8A00D2B4C4E
:1019800042F015022A48C3F89C4DC3F8A00D294C1B
:101990002948C3F89C4DC3F8A00D284CC3F89C2DD2
:1019A0002748284AC3F8A04DC3F89C0DC3F8A02DC2
:1019B00002F5A022244C0C322448C3F89C4DC3F8F5
:1019C000A02D234AC3F89C0D224CC3F8A02D02F190
:1019D0004062C3F89C4D2048C3F8A02D0C32C3F8D8
:1019E0009C0DC3F8A02D00BF00BF00BF00BF00BF0B
:1019F0000122C3F8942DBFF34F8FBFF36F8FC3F84D
:101A0000501FBFF34F8FBFF36F8FD3F8142D5DF8C6
:101A1000044B42F44032C3F8142D70473F000010CD
:101A20002500080709001000A09C032013002000D7
:101A300021000207140000202500081309000010EF
:101A40001600202027000B1317000040180000602C
:101A50002F000B07190000701A000080F0B5B84B7A
:101A60001822B84E0120B84F83B0C3F85C62B74962
:101A7000C3F86072B64DC3F86462A6F53046B54C43
:101A8000C3F86862C3F86C52C3F87052C3F874525A
:101A9000C3F8785248F20C75DA661A675A679A6783
:101AA000DA67C3F88020C3F88420C3F88820C1F81F
:101AB0002C03A94AC1F83003C1F83403C1F8380334
:101AC000C1F83C03C1F85003A169A44B0A40A448E3
:101AD000A4491343A44AA361D4F8843043F00C030F
:101AE000C4F884304FF0FF34036843F0020303600E
:101AF00003682B404FF400551A439C4B026044602E
:101B00008A689B4C13409B4A43F000538360C36830
:101B100023F07803C360036A134023430362036A1C
:101B20001340954A2343954C43628262C26200226D
:101B3000D1F8B83023F03F0343F00103C0F8B830C8
:101B4000D1F8BC308E4923F03F0343F00103C0F8C5
:101B5000BC3040F20563026105660467C0F880305E
:101B6000456644670224C0F88430036823F002030A
:101B700003608161834B8449C46143F8042B8B4229
:101B8000FBD1774A136843F001031360136813F025
:101B90000103FBD17A48022140F2F564906140F2E2
:101BA0009940D16140F26641C2F8004242F20144DC
:101BB000C2F810127549C2F82002C2F8301240F281
:101BC00035417348C2F83442C2F84012714CC2F831
:101BD000500242F201207049C2F854120121C2F8A9
:101BE0006042C2F864025E48C2F8A030C2F8A43075
:101BF000C2F8B0104369DA07FCD5012300244FF482
:101C0000803257494361C0F8A040C0F8A420C0F812
:101C1000B0304B69DB07FCD5012300244FF40030C2
:101C20004F4A4B61C1F8A040C1F8A400C1F8B030E0
:101C30005369DF07FCD50123002458484849536104
:101C4000C2F8A040C2F8A400C2F8B0304B69DE0769
:101C5000FCD5D1F8003145F60D5221209BB24861E8
:101C6000934265D100244FF4802201233C48C1F8FF
:101C7000A040C1F8A420C1F8B0304369DD07FCD50D
:101C800001234FF400040021354A4361C0F8A0400D
:101C9000C0F8A410C0F8B0305369DC07FCD50123AC
:101CA0004FF400044FF480302D495361C2F8A04036
:101CB000C2F8A400C2F8B0304B69D807FCD50123A4
:101CC0004FF400044FF40030254A4B61C1F8A040A6
:101CD000C1F8A400C1F8B0305369D907FCD501237D
:101CE0004FF400042D481E495361C2F8A040C2F8C9
:101CF000A400C2F8B0304B69DA07FCD5D1F8003146
:101D000045F60D5221209BB24861934250D00825E0
:101D10004FF4000422490020224B234A0090157002
:101D20005A1A01232148224400F0F6F903B0F0BD0D
:101D30001E4B0022C3E90022C3E9022203B0F0BD1A
:101D400000801F40F9B00100F910010000841F401D
:101D5000F970010000C00F40FFFCFF1F000300A04E
:101D600000402A4000802A401200FFFFFF37F700A2
:101D70004000008000FFF07CFF000F836300020042
:101D8000F05AF05A00422A4000432A409F0418307B
:101D9000EB06180A3806180A06320126040003006A
:101DA0000000007000000070469C0320E8C802207C
:101DB0004FF400044FF4802201230848C1F8A040EA
:101DC000C1F8A420C1F8B0304369DB07FCD501237A
:101DD00010254FF0807443619CE700BF00402A400B
:101DE000F0B4154A40274FF480314FF480564FF439
:101DF00000554FF4404443F24200136913F0020FC0
:101E00000ED113F4005F0FD013F4805F0ED0002BBF
:101E1000F3DA13F4803F0BD15B060BD5F0BC7047AF
:101E2000946151619061E8E75561E6E75661E4E746
:101E30009161E2E75761E0E700800D403F4A0320EF
:101E40003F49F3EE095AD2F880304FF0000C9FED75
:101E50003D6A23F001039FED3C5A30B4C2F8803054
:101E6000C2F89000D1F8E010384DCBB2384C394868
:101E70002B6007EE903A0B0DC1F30B21F8EEE77AD9
:101E800006EE903A07EE101A334BB8EEC77A21608F
:101E9000F8EEE66A314937EEC66A37EEC55A76EE95
:101EA000C76A77EEE57A26EE266AC3ED006A25EE6C
:101EB000265AD2F8803067EEA64AC0ED007AC6EE08
:101EC000275A274885EE276AC4EEA76A75EE875A17
:101ED000FCEEE55A36EE076A15EE904ABCEEC66A8D
:101EE00043EA045376EE877AC2F8803016EE103A51
:101EF000D2F89041FCEEE77A01EA0341214317EE64
:101F0000903AC2F89011C3F30B03D2F890110B432F
:101F10001449C2F89031D2F8803043F00203C2F87D
:101F20008030114B80F840C0C1F840314FF0E023C1
:101F3000012230BCC3F80821704700BF00810D406A
:101F400000441F400000AA420000B442A4820320C3
:101F5000A0820320A8820320AC8203200000FF0F90
:101F600000E400E00064002029090200314B40F643
:101F7000617210B5C3F8202140F2044400F0D4F897
:101F80002D4A2E49D2F880302D4843F00303C2F881
:101F900080302C4BC1F8604102681A4203D1D1F85D
:101FA000A8319A071BD0254A4FF00041244B5963B2
:101FB000D2F8403143F00203C2F84031D2F8403148
:101FC0009B07FBD44FF400304FF0E0211C4B4FF047
:101FD0000042C1F88C0219209A6300F0B1F8184A47
:101FE0004FF08040154C002190630A20164B116081
:101FF0004FF42072C4F8A801184600F085F84FF499
:10200000800203464FF4810040F243111860C4F887
:1020100058311A640D4B0E4AC4F84811C3F8042213
:102020004FF0E0224FF400310123C2F80C11C4F844
:10203000403110BD00800D4000C00F4000002E4018
:1020400000900D40001C1E000000002000640020D5
:10205000490B020008B50E4B1B6E9B0700D4FBBE5C
:1020600072B60C4B00200C4AC3F8400103F16043E8
:102070000A49A3F55F2311649D46BFF34F8F4FF4C8
:1020800000130748074ADB6902609B68984700BF56
:1020900000441F4000002E4000C00A400300200002
:1020A00000802020000012EB104BA020104AD96EB7
:1020B00041F4403110B4D96640F23764D96E41F42E
:1020C0004071D96654649064936C1B06FCD4094A31
:1020D00040F23761A02351649364936C13F0800342
:1020E000FBD1054A13705DF8044B704700C00F40E8
:1020F00000400C4000800C40429C0320F8B500BF1B
:10210000F8BC08BC9E4670475FF800F0B948020072
:102110005FF800F0250602005FF800F05D24020081
:102120005FF800F03D0502005FF800F08512020044
:102130005FF800F0314B02005FF800F005FA010093
:102140005FF800F0F5FC01005FF800F0C1F5010058
:102150005FF800F079E801005FF800F0F903020091
:1021600005010000E98B0000ED02010025170100C8
:1021700011B401000DCA010051CC010069CC01006D
:1021800081CC010099CC0100B1CC0100C9CC010087
:10219000E1CC0100F9CC010011CD010029CD0100F5
:1021A000BDD20100D5D20100EDD2010005D301005E
:1021B0001DD3010035D301004DD3010065D30100CB
:1021C00099D30100C9D30100E1D30100F9D3010083
:1021D00011D4010029D4010085E70100C5F60100F2
:1021E00080C00F4000000003190000001000000034
:1021F000E8841F4001000000FF000000FF00000015
:1022000000000000000000001800000010000000A6
:10221000E4841F4001000000FF000000FF000000F8
:1022200000000000000000001F000000A5A7010042
:1022300070C00F40000C00001100000011000000F1
:10224000E0841F40020000002C000000120000008B
:10225000E0841F4001000000100000001100000099
:10226000DC841F40020000002D000000120000006E
:10227000DC841F40010000001E00000099A701003F
:1022800070C00F40C00000001200000013000000EA
:10229000D0841F4001000000FF000000FF0000008C
:1022A0000000000000000000130000001300000008
:1022B000CC841F4001000000FF000000FF00000070
:1022C00000000000000000001C0000008DA70100BD
:1022D0000080C0E0F0F8FCFE000103070F1F3F7F05
:1022E000000000000001800000000000000000006D
:1022F000038000000000000000000007C000000094
:1023000000000000000007C0000000000000000006
:10231000000FC00000000000000000001FE00000EF
:10232000000000000000001FE000000000000000AE
:1023300000003FE00000000000000000003FF0004F
:1023400000000000000000007FF00000000000001E
:10235000001FF87FF0000000000000003FFE7FF04B
:10236000000000000000003FFF7FF00000000000C0
:1023700000001FFFFBE0000000000000000FFFF95D
:10238000FFC00000000000000FFFF9FFF800000090
:1023900000000007FFF1FFFF00000000000003FC49
:1023A00073FFFF80000000000001FE3FFFFF800080
:1023B0000000000000FF1E0FFF00000000000000F2
:1023C0007FFE1FFC000000000000003FFFFFF80040
:1023D0000000000000000FDFFFE000000000000030
:1023E000001F19FFC0000000000000003F3CFF007C
:1023F000000000000000007E7CF8000000000000EB
:1024000000007FFE7C0000000000000000FFFFFCD9
:102410000000000000000000FFFFFE0000000000C0
:10242000000000FFFFFE0000000000000001FFEFC1
:10243000FE0000000000000001FFCFFE00000000D1
:1024400000000003FF07FE0000000000000003FC86
:1024500007FE0000000000000003F003FE00000083
:1024600000000000018000FE0000000000000000ED
:1024700000007E000000000000000000003E0000A0
:1024800000000000000000000C0000000000000739
:102490008000FC000003C0000000078001FC000079
:1024A00003C0000000078001FC000003C000000022
:1024B000078001E00000001E000000078001E0002E
:1024C00000001E007FE3F79FF9FDE7787BDFC0FF88
:1024D000F7FFBFFDFDFF787BDFC0FFF7FFBFFDFD0E
:1024E000FF787BDFC0F0F787BC3DE1FF787BDE0043
:1024F000F0F787BC3DE1F0787BDE0000F787803D98
:10250000E1E0787BDE007FF7879FFDE1E0787BDE0E
:1025100000FFF787BFFDE1E0787BDE00F0F787BCC6
:102520003DE1E0787BDE00F0F787BC3DE1E0787BC1
:10253000DE00F0F787BC3DE1E0787BDE00FFF7FFCF
:10254000BFFDE1E07FFBDFC0FFF7FFBFFDE1E07F04
:10255000FBDFC07CF3F39F3DE1E03E7BCFC000009A
:10256000000000000000000000FFFFFFFFFFFFFF72
:10257000FFFFFFC0FFFFFFFFFD68DB111A31C0FF47
:10258000FFFFFFFD2B5AFB6AEFC0FFFFFFFFFD4B74
:102590005B3B1A33C0FFFFFFFFFD6B5BDB6AFDC0D7
:1025A00000006000000000000000000000000000CB
:1025B00000E000000000000000000000000000013A
:1025C000E00000000000000000000000000001F03A
:1025D0000000000000000000000000000003F00008
:1025E00000000000000000000000000007F00000F4
:1025F000000000000000000000000007F8000000DC
:10260000000000000000000000000FF800000003C0
:10261000C0007E000001E0007F0FF800000003C052
:1026200000FE000001E000FFEFF800000003C00022
:10263000FE000001E000FFFFF800000003C000F012
:102640000000000F007FFE7FC0000003C000F0000C
:1026500000000F003FFE7FF83FF1FBCFFCFEF3BC14
:102660003DEFE01FFE7FFF7FFBFFDFFEFEFFBC3D77
:10267000EFE01FC6FFFF7FFBFFDFFEFEFFBC3DEF6D
:10268000E00FE3C7FE787BC3DE1EF0FFBC3DEF002A
:1026900007FF87FC787BC3DE1EF0F83C3DEF0001AE
:1026A000FFFFF0007BC3C01EF0F03C3DEF0001F3E4
:1026B0007FE03FFBC3CFFEF0F03C3DEF0003E33F84
:1026C000807FFBC3DFFEF0F03C3DEF0007E73C00FE
:1026D000787BC3DE1EF0F03C3DEF0007FFBE0078C4
:1026E0007BC3DE1EF0F03C3DEF0007FFFE00787B71
:1026F000C3DE1EF0F03C3DEF000FFFFE007FFBFF4E
:10270000DFFEF0F03FFDEFE00FFFFF007FFBFFDF9C
:10271000FEF0F03FFDEFE00FF9FF003E79F9CF9EAC
:10272000F0F01F3DE7E01FF1FF0000000000000097
:1027300000000000001F80FF007FFFFFFFFFFFFF82
:10274000FFFFFFE01C007F007FFFFFFFFEB46D88EE
:102750008D18E000001F007FFFFFFFFE95AD7DB5E7
:1027600077E000000F007FFFFFFFFEA5AD9D8D19F4
:10277000E0000006007FFFFFFFFEB5ADEDB57EE097
:10278000AED580A8D300408D2000A1C8DB40A4A610
:102790002EAF00002200FF210000000026000000F4
:1027A00000FF2F002700000000FF2F00A300000003
:1027B00029000000012F0000A30000002A000000F3
:1027C000012F000018035400650065006E007300BF
:1027D000790020004D0049004400490018035400CE
:1027E000650065006E007300790064007500690083
:1027F0006E006F000403090409029500030100C084
:1028000032080B000202020100090400000102026A
:102810000100052400100105240101010424020621
:1028200005240600010705820310001009040100B9
:10283000020A0000000705030240000007058302AA
:102840004000000904020002010300000724010007
:1028500001250006240201010006240202020009EB
:102860002403010301020100092403020401010100
:1028700000090504024000000000052501010109CE
:10288000058402400000000005250101030000004E
:1028900009029500030100C032080B000202020188
:1028A00000090400000102020100052400100105D6
:1028B0002401010104240206052406000107058203
:1028C0000310000509040100020A000000070503C7
:1028D0000200020007058302000200090402000250
:1028E0000103000007240100012500062402010164
:1028F0000006240202020009240301030102010070
:102900000924030204010101000905040200020078
:1029100000000525010101090584020002000000F4
:1029200005250101030000000A060002EF02014034
:0429300001000000A2
:102934000000000000000000000000000000000093
:102944000000000000000000000000000000000083
:10295400F8B54FF084439D695A6915400DD0254F51
:1029640001269D6195FAA5F4B4FA84F457F824304D
:1029740006FA04F49847A543F4D11F4B9D695A699C
:1029840015400DD01D4F01269D6195FAA5F4B4FAAA
:1029940084F457F8243006FA04F49847A543F4D194
:1029A400174B9D695A6915400DD0164F01269D613C
:1029B40095FAA5F4B4FA84F457F8243006FA04F42A
:1029C4009847A543F4D1104B9D695A6915400DD021
:1029D4000E4F01269D6195FAA5F4B4FA84F457F8D4
:1029E400243006FA04F49847A543F4D1BFF34F8F7B
:1029F400F8BD00BF0C5E0020004000428C5E002049
:102A0400008000420C5F002000C000428C5F002068
:102A14000548064B1B1AD90F01EBA301491002D03C
:102A2400034B03B118477047C0660020C0660020FE
:102A34000000000008B5054B1BB105490548AFF37C
:102A44000080BDE80840FFF7E3BF00BF00000000BE
:102A540028760320003C036000207047704700BFC5
:102A6400006910B10368DB6818477047006910B14A
:102A740003681B6918477047006910B103685B69F4
:102A840018474FF0FF307047006910B103689B6925
:102A940018477047006980B10368012200B583B00C
:102AA4009B680DF10701984720B19DF8070003B01A
:102AB4005DF804FB4FF0FF30F9E74FF0FF3070474B
:102AC40000B5006983B08DF8071028B103680122AE
:102AD4000DF10701DB68984703B05DF804FB00BF04
:102AE400704700BF704700BF036D0BB101207047F2
:102AF400406D003818BF0120704700BF10B5044670
:102B0400806D18B123F0C4FC0023A365236D2BB1A1
:102B140004F11800BDE8104016F028BC636D002BCA
:102B2400F6D110BD10B50446806D00B110BD4FF450
:102B3400807023F0A5FCA065B0B10022236D027063
:102B44003BB101464FF48072184616F05FF8A06D51
:102B540010BD636D002BE9D001464FF48072184616
:102B640013F020FDA06D10BD014B1846A36510BDE8
:102B7400409C032000B5836C83B08DF8071043B1EB
:102B840001220DF10701184614F076FF03B05DF839
:102B940004FBC06C0028F9D001220DF1070113F0E9
:102BA4003FF803B05DF804FB38B5056D6DB10BB1AA
:102BB400002038BD1146284614F082FD0028F7D0C5
:102BC4002846BDE8384014F01DBF446D002CEFD0FA
:102BD400204612F039F90028EAD02046BDE83840F2
:102BE40012F0ACBF8A79A2F150031B0622D402F280
:102BF4006C72F0B54B7985B0046D01330D798E7824
:102C04004F78DBB209784CB1204601960095CDE9A6
:102C14000271042114F08AFE05B0F0BD406D002855
:102C2400FAD001960095CDE90271042112F0CAFE92
:102C340005B0F0BD00207047036D13B1184614F0C1
:102C44006FBE406D08B112F047BD7047836C00B58C
:102C540083B063B101220DF10701184614F0E8FABC
:102C640001280CD19DF8070003B05DF804FBC06C8B
:102C740028B101220DF1070112F000F8F0E74FF03E
:102C8400FF30F1E7836C13B1184614F0A5BBC06C98
:102C940008B112F0C3B84FF0FF30704710B50446C6
:102CA400006D80B1037813F0700F00D110BD0021C6
:102CB40014F006FD606D0028F8D000220023BDE862
:102CC400104012F0C1B8606D0028EFD090F8313098
:102CD40013F0500FEAD000220023BDE8104012F098
:102CE400B3B800BF036D10B50C4682B02BB30DF121
:102CF400060201A9184614F089F838B3BDF8043067
:102D0400BDF8062053EA020120D0C2F3451C02F0AC
:102D14001F00D20AC3F34311400084F801C0A2701B
:102D24005A0A013903F01F0302F5EA6220700120F8
:102D340061712371A27102B010BD406D30B10DF10B
:102D4400060201A911F026FF0028D7D1002002B005
:102D540010BD00BF036D10B50C4682B02BB30DF14E
:102D6400060201A9184614F041F838B3BDF804303E
:102D7400BDF8062053EA020120D0C2F3451C02F03C
:102D84001F00D20AC3F34311400084F801C0A270AB
:102D94005A0A013903F01F0302F5EA622070012088
:102DA40061712371A27102B010BD406D30B10DF19B
:102DB400060201A911F0DCFE0028D7D1002002B0E0
:102DC40010BD00BF836C53B1187810F008000DD00B
:102DD400D8695B69C01A48BF6FF000407047C36C84
:102DE400A3B193F8310010F0080000D170471869BE
:102DF40019685A69401A5B6862EB0303B0F1004F2B
:102E040073F10003F2D36FF0004070471846EDE70A
:102E140069B170B5054608460C4624F0A9FB2B6839
:102E24000246214628465B68BDE870401847704753
:102E3400036D13B1586900217047436D13B1D3E991
:102E44000001704718461946704700BF036D13B15F
:102E5400D86900217047436D13B1D3E90401704769
:102E640018461946704700BFF0B595B000224FF4DC
:102E74007A74244F1831054604A88DF80C20009765
:102E8400CDE90124CDE9122216F0DCFA129B002BC5
:102E94002DD05C2000261FF0E9FF019B044646600C
:102EA400C36004A9029B183040F8083C9DF80C301C
:102EB40000F8043C144B40F8183C144B40F8103C08
:102EC40016F012FA124B4FF47A72A7602B60636803
:102ED400A66501336E602E73AA602C6163600D4B8E
:102EE40004A8009316F042FA284615B0F0BD139BCF
:102EF400002BCED1064A2B732A602B61C5E901341D
:102F0400EDE700BF003F0020243F0020803F002069
:102F1400C43E0020203C0020036D13B1184614F079
:102F24005BBA406D08B111F079BF4FF0FF307047C4
:102F3400036D33B11B7813F0700F14BF0120002010
:102F44007047406D30B190F8313013F0500F14BF1A
:102F540001200020704700BF036D13B1184614F020
:102F640067B9406D08B111F089BE4FF0FF3070476A
:102F7400836C13B1184614F0D3BCC06C08B112F0C2
:102F8400ABBB704738B504460C4B806D236018B159
:102F940023F07EFA0023A365236D04F118054BB1D9
:102FA400284616F0E3F9064B2846A36016F0DEF92E
:102FB400204638BD636D002BF2D1F4E7243F002096
:102FC400203C0020036D13B1184614F055BD406D2C
:102FD40008B112F025BE7047836C13B1184614F083
:102FE4004BBDC06C08B112F01BBE70478A79A2F1C8
:102FF40050031B0622D402F26C72F0B54B7985B0F3
:10300400046D01330D798E784F78DBB209784CB1B9
:10301400204601960095CDE90271022114F086FC48
:1030240005B0F0BD406D0028FAD001960095CDE9B9
:103034000271022112F0C6FC05B0F0BD00207047F9
:1030440038B504460E4B806D236018B123F020FA86
:103054000023A365236D04F118056BB1284616F00F
:1030640085F9084B2846A36016F080F920465C21B8
:103074001FF0FEFE204638BD636D002BEED1F0E755
:10308400243F0020203C0020036D53B1187810F039
:1030940008000DD0D8695B69C01A48BF6FF00040C2
:1030A4007047436DA3B193F8310010F0080000D1CC
:1030B4007047186919685A69401A5B6862EB030320
:1030C400B0F1004F73F10003F2D36FF0004070478A
:1030D4001846EDE730B4029C11469C4634B1012CED
:1030E4001CD0022C0ED0002030BC7047056DF5B109
:1030F4004FF0FF33934274EB0C04F4D3284630BCF6
:1031040014F0DEBA026D0AB3D36959184CF1000306
:10311400002BE8D1104630BC14F0D2BA026D62B173
:10312400536959184CF10003002BDCD1F2E7406DD0
:103134000028D8D030BC11F087BE406D0028D2D012
:10314400D0E900238A184CEB0303F3E7406D002811
:10315400C9D0D0E9042330BC8A184CEB030311F026
:1031640073BE00BF38B5044649B108460D4624F085
:10317400FFF92368024629465B68204698472046A3
:10318400BDE838401EF0C4BF10B5094B04460069C1
:10319400236058B14368013B43603BB90368DB6A71
:1031A4009847206910B103685B689847204610BDB2
:1031B400C43E002010B50B4B04460069236058B18F
:1031C4004368013B43603BB90368DB6A9847206965
:1031D40010B103685B689847204614211FF048FE2D
:1031E400204610BDC43E0020214B1A68D2E90010CD
:1031F400D3680968006810B41842946801EA0401AD
:103204002ED0137C03F00303D9B943F008039908C3
:10321400013B11740D2B0BD8DFE803F00D071C07DD
:103224000A160D0D160A071C070D5369013B53615D
:103234005DF8044B704753695DF8044B01335361E7
:10324400704743F00403E0E753695DF8044B023B25
:103254005361704753695DF8044B023353617047FF
:10326400137C03F003030029D1D043F00403CEE719
:1032740074980020214B5A6BD2E90010D368096876
:10328400006810B41842946801EA04012ED0137C3B
:1032940003F00303D9B943F008039908013B1174FF
:1032A4000D2B0BD8DFE803F00D071C070A160D0DD4
:1032B400160A071C070D5369013B53615DF8044B63
:1032C400704753695DF8044B01335361704743F011
:1032D4000403E0E753695DF8044B023B5361704714
:1032E40053695DF8044B023353617047137C03F058
:1032F40003030029D1D043F00403CEE774980020DF
:10330400214B9A6BD2E90010D3680968006810B4A5
:103314001842946801EA04012ED0137C03F00303DD
:10332400D9B943F008039908013B11740D2B0BD84C
:10333400DFE803F00D071C070A160D0D160A071C1B
:10334400070D5369013B53615DF8044B70475369A2
:103354005DF8044B01335361704743F00403E0E725
:1033640053695DF8044B023B5361704753695DF840
:10337400044B023353617047137C03F003030029A9
:10338400D1D043F00403CEE774980020214BDA6BCC
:10339400D2E90010D3680968006810B41842946830
:1033A40001EA04012ED0137C03F00303D9B943F0DE
:1033B40008039908013B11740D2B0BD8DFE803F0C7
:1033C4000D071C070A160D0D160A071C070D536975
:1033D400013B53615DF8044B704753695DF8044B3E
:1033E40001335361704743F00403E0E753695DF828
:1033F400044B023B5361704753695DF8044B02333D
:1034040053617047137C03F003030029D1D043F0C8
:103414000403CEE774980020214B1A6CD2E9001003
:10342400D3680968006810B41842946801EA04017A
:103434002ED0137C03F00303D9B943F00803990891
:10344400013B11740D2B0BD8DFE803F00D071C07AB
:103454000A160D0D160A071C070D5369013B53612B
:103464005DF8044B704753695DF8044B01335361B5
:10347400704743F00403E0E753695DF8044B023BF3
:103484005361704753695DF8044B023353617047CD
:10349400137C03F003030029D1D043F00403CEE7E7
:1034A40074980020214B5A6CD2E90010D368096843
:1034B400006810B41842946801EA04012ED0137C09
:1034C40003F00303D9B943F008039908013B1174CD
:1034D4000D2B0BD8DFE803F00D071C070A160D0DA2
:1034E400160A071C070D5369013B53615DF8044B31
:1034F400704753695DF8044B01335361704743F0DF
:103504000403E0E753695DF8044B023B53617047E1
:1035140053695DF8044B023353617047137C03F025
:1035240003030029D1D043F00403CEE774980020AC
:10353400214B9A6CD2E90010D3680968006810B472
:103544001842946801EA04012ED0137C03F00303AB
:10355400D9B943F008039908013B11740D2B0BD81A
:10356400DFE803F00D071C070A160D0D160A071CE9
:10357400070D5369013B53615DF8044B7047536970
:103584005DF8044B01335361704743F00403E0E7F3
:1035940053695DF8044B023B5361704753695DF80E
:1035A400044B023353617047137C03F00303002977
:1035B400D1D043F00403CEE774980020214BDA6C99
:1035C400D2E90010D3680968006810B418429468FE
:1035D40001EA04012ED0137C03F00303D9B943F0AC
:1035E40008039908013B11740D2B0BD8DFE803F095
:1035F4000D071C070A160D0D160A071C070D536943
:10360400013B53615DF8044B704753695DF8044B0B
:1036140001335361704743F00403E0E753695DF8F5
:10362400044B023B5361704753695DF8044B02330A
:1036340053617047137C03F003030029D1D043F096
:103644000403CEE774980020214B1A6DD2E90010D0
:10365400D3680968006810B41842946801EA040148
:103664002ED0137C03F00303D9B943F0080399085F
:10367400013B11740D2B0BD8DFE803F00D071C0779
:103684000A160D0D160A071C070D5369013B5361F9
:103694005DF8044B704753695DF8044B0133536183
:1036A400704743F00403E0E753695DF8044B023BC1
:1036B4005361704753695DF8044B0233536170479B
:1036C400137C03F003030029D1D043F00403CEE7B5
:1036D40074980020214B5A6DD2E90010D368096810
:1036E400006810B41842946801EA04012ED0137CD7
:1036F40003F00303D9B943F008039908013B11749B
:103704000D2B0BD8DFE803F00D071C070A160D0D6F
:10371400160A071C070D5369013B53615DF8044BFE
:10372400704753695DF8044B01335361704743F0AC
:103734000403E0E753695DF8044B023B53617047AF
:1037440053695DF8044B023353617047137C03F0F3
:1037540003030029D1D043F00403CEE7749800207A
:10376400214B9A6DD2E90010D3680968006810B43F
:103774001842946801EA04012ED0137C03F0030379
:10378400D9B943F008039908013B11740D2B0BD8E8
:10379400DFE803F00D071C070A160D0D160A071CB7
:1037A400070D5369013B53615DF8044B704753693E
:1037B4005DF8044B01335361704743F00403E0E7C1
:1037C40053695DF8044B023B5361704753695DF8DC
:1037D400044B023353617047137C03F00303002945
:1037E400D1D043F00403CEE774980020214BDA6D66
:1037F400D2E90010D3680968006810B418429468CC
:1038040001EA04012ED0137C03F00303D9B943F079
:1038140008039908013B11740D2B0BD8DFE803F062
:103824000D071C070A160D0D160A071C070D536910
:10383400013B53615DF8044B704753695DF8044BD9
:1038440001335361704743F00403E0E753695DF8C3
:10385400044B023B5361704753695DF8044B0233D8
:1038640053617047137C03F003030029D1D043F064
:103874000403CEE774980020214B1A6ED2E900109D
:10388400D3680968006810B41842946801EA040116
:103894002ED0137C03F00303D9B943F0080399082D
:1038A400013B11740D2B0BD8DFE803F00D071C0747
:1038B4000A160D0D160A071C070D5369013B5361C7
:1038C4005DF8044B704753695DF8044B0133536151
:1038D400704743F00403E0E753695DF8044B023B8F
:1038E4005361704753695DF8044B02335361704769
:1038F400137C03F003030029D1D043F00403CEE783
:1039040074980020214B5A6ED2E90010D3680968DC
:10391400006810B41842946801EA04012ED0137CA4
:1039240003F00303D9B943F008039908013B117468
:103934000D2B0BD8DFE803F00D071C070A160D0D3D
:10394400160A071C070D5369013B53615DF8044BCC
:10395400704753695DF8044B01335361704743F07A
:103964000403E0E753695DF8044B023B536170477D
:1039740053695DF8044B023353617047137C03F0C1
:1039840003030029D1D043F00403CEE77498002048
:10399400214B9A6ED2E90010D3680968006810B40C
:1039A4001842946801EA04012ED0137C03F0030347
:1039B400D9B943F008039908013B11740D2B0BD8B6
:1039C400DFE803F00D071C070A160D0D160A071C85
:1039D400070D5369013B53615DF8044B704753690C
:1039E4005DF8044B01335361704743F00403E0E78F
:1039F40053695DF8044B023B5361704753695DF8AA
:103A0400044B023353617047137C03F00303002912
:103A1400D1D043F00403CEE774980020214BDA6E32
:103A2400D2E90010D3680968006810B41842946899
:103A340001EA04012ED0137C03F00303D9B943F047
:103A440008039908013B11740D2B0BD8DFE803F030
:103A54000D071C070A160D0D160A071C070D5369DE
:103A6400013B53615DF8044B704753695DF8044BA7
:103A740001335361704743F00403E0E753695DF891
:103A8400044B023B5361704753695DF8044B0233A6
:103A940053617047137C03F003030029D1D043F032
:103AA4000403CEE774980020214B1A6FD2E900106A
:103AB400D3680968006810B41842946801EA0401E4
:103AC4002ED0137C03F00303D9B943F008039908FB
:103AD400013B11740D2B0BD8DFE803F00D071C0715
:103AE4000A160D0D160A071C070D5369013B536195
:103AF4005DF8044B704753695DF8044B013353611F
:103B0400704743F00403E0E753695DF8044B023B5C
:103B14005361704753695DF8044B02335361704736
:103B2400137C03F003030029D1D043F00403CEE750
:103B340074980020214B5A69D2E90010D3680968AF
:103B4400006810B41842946801EA04012ED0137C72
:103B540003F00303D9B943F008039908013B117436
:103B64000D2B0BD8DFE803F00D071C070A160D0D0B
:103B7400160A071C070D5369013B53615DF8044B9A
:103B8400704753695DF8044B01335361704743F048
:103B94000403E0E753695DF8044B023B536170474B
:103BA40053695DF8044B023353617047137C03F08F
:103BB40003030029D1D043F00403CEE77498002016
:103BC400214B9A69D2E90010D3680968006810B4DF
:103BD4001842946801EA04012ED0137C03F0030315
:103BE400D9B943F008039908013B11740D2B0BD884
:103BF400DFE803F00D071C070A160D0D160A071C53
:103C0400070D5369013B53615DF8044B70475369D9
:103C14005DF8044B01335361704743F00403E0E75C
:103C240053695DF8044B023B5361704753695DF877
:103C3400044B023353617047137C03F003030029E0
:103C4400D1D043F00403CEE774980020214BDA6905
:103C5400D2E90010D3680968006810B41842946867
:103C640001EA04012ED0137C03F00303D9B943F015
:103C740008039908013B11740D2B0BD8DFE803F0FE
:103C84000D071C070A160D0D160A071C070D5369AC
:103C9400013B53615DF8044B704753695DF8044B75
:103CA40001335361704743F00403E0E753695DF85F
:103CB400044B023B5361704753695DF8044B023374
:103CC40053617047137C03F003030029D1D043F000
:103CD4000403CEE774980020214B1A6AD2E900103D
:103CE400D3680968006810B41842946801EA0401B2
:103CF4002ED0137C03F00303D9B943F008039908C9
:103D0400013B11740D2B0BD8DFE803F00D071C07E2
:103D14000A160D0D160A071C070D5369013B536162
:103D24005DF8044B704753695DF8044B01335361EC
:103D3400704743F00403E0E753695DF8044B023B2A
:103D44005361704753695DF8044B02335361704704
:103D5400137C03F003030029D1D043F00403CEE71E
:103D640074980020214B5A6AD2E90010D36809687C
:103D7400006810B41842946801EA04012ED0137C40
:103D840003F00303D9B943F008039908013B117404
:103D94000D2B0BD8DFE803F00D071C070A160D0DD9
:103DA400160A071C070D5369013B53615DF8044B68
:103DB400704753695DF8044B01335361704743F016
:103DC4000403E0E753695DF8044B023B5361704719
:103DD40053695DF8044B023353617047137C03F05D
:103DE40003030029D1D043F00403CEE774980020E4
:103DF400214B9A6AD2E90010D3680968006810B4AC
:103E04001842946801EA04012ED0137C03F00303E2
:103E1400D9B943F008039908013B11740D2B0BD851
:103E2400DFE803F00D071C070A160D0D160A071C20
:103E3400070D5369013B53615DF8044B70475369A7
:103E44005DF8044B01335361704743F00403E0E72A
:103E540053695DF8044B023B5361704753695DF845
:103E6400044B023353617047137C03F003030029AE
:103E7400D1D043F00403CEE774980020214BDA6AD2
:103E8400D2E90010D3680968006810B41842946835
:103E940001EA04012ED0137C03F00303D9B943F0E3
:103EA40008039908013B11740D2B0BD8DFE803F0CC
:103EB4000D071C070A160D0D160A071C070D53697A
:103EC400013B53615DF8044B704753695DF8044B43
:103ED40001335361704743F00403E0E753695DF82D
:103EE400044B023B5361704753695DF8044B023342
:103EF40053617047137C03F003030029D1D043F0CE
:103F04000403CEE774980020214B1A6BD2E9001009
:103F1400D3680968006810B41842946801EA04017F
:103F24002ED0137C03F00303D9B943F00803990896
:103F3400013B11740D2B0BD8DFE803F00D071C07B0
:103F44000A160D0D160A071C070D5369013B536130
:103F54005DF8044B704753695DF8044B01335361BA
:103F6400704743F00403E0E753695DF8044B023BF8
:103F74005361704753695DF8044B023353617047D2
:103F8400137C03F003030029D1D043F00403CEE7EC
:103F940074980020214B5A68D2E90010D36809684C
:103FA400006810B41842946801EA04012ED0137C0E
:103FB40003F00303D9B943F008039908013B1174D2
:103FC4000D2B0BD8DFE803F00D071C070A160D0DA7
:103FD400160A071C070D5369013B53615DF8044B36
:103FE400704753695DF8044B01335361704743F0E4
:103FF4000403E0E753695DF8044B023B53617047E7
:1040040053695DF8044B023353617047137C03F02A
:1040140003030029D1D043F00403CEE774980020B1
:10402400214B9A68D2E90010D3680968006810B47B
:104034001842946801EA04012ED0137C03F00303B0
:10404400D9B943F008039908013B11740D2B0BD81F
:10405400DFE803F00D071C070A160D0D160A071CEE
:10406400070D5369013B53615DF8044B7047536975
:104074005DF8044B01335361704743F00403E0E7F8
:1040840053695DF8044B023B5361704753695DF813
:10409400044B023353617047137C03F0030300297C
:1040A400D1D043F00403CEE774980020214BDA68A2
:1040B400D2E90010D3680968006810B41842946803
:1040C40001EA04012ED0137C03F00303D9B943F0B1
:1040D40008039908013B11740D2B0BD8DFE803F09A
:1040E4000D071C070A160D0D160A071C070D536948
:1040F400013B53615DF8044B704753695DF8044B11
:1041040001335361704743F00403E0E753695DF8FA
:10411400044B023B5361704753695DF8044B02330F
:1041240053617047137C03F003030029D1D043F09B
:104134000403CEE774980020214B1A69D2E90010D9
:10414400D3680968006810B41842946801EA04014D
:104154002ED0137C03F00303D9B943F00803990864
:10416400013B11740D2B0BD8DFE803F00D071C077E
:104174000A160D0D160A071C070D5369013B5361FE
:104184005DF8044B704753695DF8044B0133536188
:10419400704743F00403E0E753695DF8044B023BC6
:1041A4005361704753695DF8044B023353617047A0
:1041B400137C03F003030029D1D043F00403CEE7BA
:1041C40074980020224BD3F8D420D2E90010D3688D
:1041D4000968006810B41842946801EA04012ED0FA
:1041E400137C03F00303D9B943F008039908013B96
:1041F40011740D2B0BD8DFE803F00D071C070A160A
:104204000D0D160A071C070D5369013B53615DF838
:10421400044B704753695DF8044B01335361704795
:1042240043F00403E0E753695DF8044B023B536138
:10423400704753695DF8044B023353617047137C34
:1042440003F003030029D1D043F00403CEE700BFF9
:1042540074980020224BD3F8D820D2E90010D368F8
:104264000968006810B41842946801EA04012ED069
:10427400137C03F00303D9B943F008039908013B05
:1042840011740D2B0BD8DFE803F00D071C070A1679
:104294000D0D160A071C070D5369013B53615DF8A8
:1042A400044B704753695DF8044B01335361704705
:1042B40043F00403E0E753695DF8044B023B5361A8
:1042C400704753695DF8044B023353617047137CA4
:1042D40003F003030029D1D043F00403CEE700BF69
:1042E40074980020224BD3F8B420D2E90010D3688C
:1042F4000968006810B41842946801EA04012ED0D9
:10430400137C03F00303D9B943F008039908013B74
:1043140011740D2B0BD8DFE803F00D071C070A16E8
:104324000D0D160A071C070D5369013B53615DF817
:10433400044B704753695DF8044B01335361704774
:1043440043F00403E0E753695DF8044B023B536117
:10435400704753695DF8044B023353617047137C13
:1043640003F003030029D1D043F00403CEE700BFD8
:1043740074980020224BD3F8B820D2E90010D368F7
:104384000968006810B41842946801EA04012ED048
:10439400137C03F00303D9B943F008039908013BE4
:1043A40011740D2B0BD8DFE803F00D071C070A1658
:1043B4000D0D160A071C070D5369013B53615DF887
:1043C400044B704753695DF8044B013353617047E4
:1043D40043F00403E0E753695DF8044B023B536187
:1043E400704753695DF8044B023353617047137C83
:1043F40003F003030029D1D043F00403CEE700BF48
:1044040074980020224BD3F8BC20D2E90010D36862
:104414000968006810B41842946801EA04012ED0B7
:10442400137C03F00303D9B943F008039908013B53
:1044340011740D2B0BD8DFE803F00D071C070A16C7
:104444000D0D160A071C070D5369013B53615DF8F6
:10445400044B704753695DF8044B01335361704753
:1044640043F00403E0E753695DF8044B023B5361F6
:10447400704753695DF8044B023353617047137CF2
:1044840003F003030029D1D043F00403CEE700BFB7
:1044940074980020224BD3F8C020D2E90010D368CE
:1044A4000968006810B41842946801EA04012ED027
:1044B400137C03F00303D9B943F008039908013BC3
:1044C40011740D2B0BD8DFE803F00D071C070A1637
:1044D4000D0D160A071C070D5369013B53615DF866
:1044E400044B704753695DF8044B013353617047C3
:1044F40043F00403E0E753695DF8044B023B536166
:10450400704753695DF8044B023353617047137C61
:1045140003F003030029D1D043F00403CEE700BF26
:1045240074980020224BD3F8C420D2E90010D36839
:104534000968006810B41842946801EA04012ED096
:10454400137C03F00303D9B943F008039908013B32
:1045540011740D2B0BD8DFE803F00D071C070A16A6
:104564000D0D160A071C070D5369013B53615DF8D5
:10457400044B704753695DF8044B01335361704732
:1045840043F00403E0E753695DF8044B023B5361D5
:10459400704753695DF8044B023353617047137CD1
:1045A40003F003030029D1D043F00403CEE700BF96
:1045B40074980020224BD3F8C820D2E90010D368A5
:1045C4000968006810B41842946801EA04012ED006
:1045D400137C03F00303D9B943F008039908013BA2
:1045E40011740D2B0BD8DFE803F00D071C070A1616
:1045F4000D0D160A071C070D5369013B53615DF845
:10460400044B704753695DF8044B013353617047A1
:1046140043F00403E0E753695DF8044B023B536144
:10462400704753695DF8044B023353617047137C40
:1046340003F003030029D1D043F00403CEE700BF05
:1046440074980020224BD3F8CC20D2E90010D36810
:104654000968006810B41842946801EA04012ED075
:10466400137C03F00303D9B943F008039908013B11
:1046740011740D2B0BD8DFE803F00D071C070A1685
:104684000D0D160A071C070D5369013B53615DF8B4
:10469400044B704753695DF8044B01335361704711
:1046A40043F00403E0E753695DF8044B023B5361B4
:1046B400704753695DF8044B023353617047137CB0
:1046C40003F003030029D1D043F00403CEE700BF75
:1046D40074980020224BD3F8D020D2E90010D3687C
:1046E4000968006810B41842946801EA04012ED0E5
:1046F400137C03F00303D9B943F008039908013B81
:1047040011740D2B0BD8DFE803F00D071C070A16F4
:104714000D0D160A071C070D5369013B53615DF823
:10472400044B704753695DF8044B01335361704780
:1047340043F00403E0E753695DF8044B023B536123
:10474400704753695DF8044B023353617047137C1F
:1047540003F003030029D1D043F00403CEE700BFE4
:1047640074980020214B5A6FD2E90010D36809686D
:10477400006810B41842946801EA04012ED0137C36
:1047840003F00303D9B943F008039908013B1174FA
:104794000D2B0BD8DFE803F00D071C070A160D0DCF
:1047A400160A071C070D5369013B53615DF8044B5E
:1047B400704753695DF8044B01335361704743F00C
:1047C4000403E0E753695DF8044B023B536170470F
:1047D40053695DF8044B023353617047137C03F053
:1047E40003030029D1D043F00403CEE774980020DA
:1047F400214B9A6FD2E90010D3680968006810B49D
:104804001842946801EA04012ED0137C03F00303D8
:10481400D9B943F008039908013B11740D2B0BD847
:10482400DFE803F00D071C070A160D0D160A071C16
:10483400070D5369013B53615DF8044B704753699D
:104844005DF8044B01335361704743F00403E0E720
:1048540053695DF8044B023B5361704753695DF83B
:10486400044B023353617047137C03F003030029A4
:10487400D1D043F00403CEE774980020214BDA6FC3
:10488400D2E90010D3680968006810B4184294682B
:1048940001EA04012ED0137C03F00303D9B943F0D9
:1048A40008039908013B11740D2B0BD8DFE803F0C2
:1048B4000D071C070A160D0D160A071C070D536970
:1048C400013B53615DF8044B704753695DF8044B39
:1048D40001335361704743F00403E0E753695DF823
:1048E400044B023B5361704753695DF8044B023338
:1048F40053617047137C03F003030029D1D043F0C4
:104904000403CEE774980020224BD3F88020D2E928
:104914000010D3680968006810B41842946801EA6A
:1049240004012ED0137C03F00303D9B943F0080328
:104934009908013B11740D2B0BD8DFE803F00D0728
:104944001C070A160D0D160A071C070D5369013BB7
:1049540053615DF8044B704753695DF8044B0133B0
:104964005361704743F00403E0E753695DF8044B77
:10497400023B5361704753695DF8044B0233536142
:104984007047137C03F003030029D1D043F00403E0
:10499400CEE700BF74980020224BD3F88420D2E9DC
:1049A4000010D3680968006810B41842946801EADA
:1049B40004012ED0137C03F00303D9B943F0080398
:1049C4009908013B11740D2B0BD8DFE803F00D0798
:1049D4001C070A160D0D160A071C070D5369013B27
:1049E40053615DF8044B704753695DF8044B013320
:1049F4005361704743F00403E0E753695DF8044BE7
:104A0400023B5361704753695DF8044B02335361B1
:104A14007047137C03F003030029D1D043F004034F
:104A2400CEE700BF74980020224BD3F88820D2E947
:104A34000010D3680968006810B41842946801EA49
:104A440004012ED0137C03F00303D9B943F0080307
:104A54009908013B11740D2B0BD8DFE803F00D0707
:104A64001C070A160D0D160A071C070D5369013B96
:104A740053615DF8044B704753695DF8044B01338F
:104A84005361704743F00403E0E753695DF8044B56
:104A9400023B5361704753695DF8044B0233536121
:104AA4007047137C03F003030029D1D043F00403BF
:104AB400CEE700BF74980020224BD3F88C20D2E9B3
:104AC4000010D3680968006810B41842946801EAB9
:104AD40004012ED0137C03F00303D9B943F0080377
:104AE4009908013B11740D2B0BD8DFE803F00D0777
:104AF4001C070A160D0D160A071C070D5369013B06
:104B040053615DF8044B704753695DF8044B0133FE
:104B14005361704743F00403E0E753695DF8044BC5
:104B2400023B5361704753695DF8044B0233536190
:104B34007047137C03F003030029D1D043F004032E
:104B4400CEE700BF74980020224BD3F89020D2E91E
:104B54000010D3680968006810B41842946801EA28
:104B640004012ED0137C03F00303D9B943F00803E6
:104B74009908013B11740D2B0BD8DFE803F00D07E6
:104B84001C070A160D0D160A071C070D5369013B75
:104B940053615DF8044B704753695DF8044B01336E
:104BA4005361704743F00403E0E753695DF8044B35
:104BB400023B5361704753695DF8044B0233536100
:104BC4007047137C03F003030029D1D043F004039E
:104BD400CEE700BF74980020224BD3F89420D2E98A
:104BE4000010D3680968006810B41842946801EA98
:104BF40004012ED0137C03F00303D9B943F0080356
:104C04009908013B11740D2B0BD8DFE803F00D0755
:104C14001C070A160D0D160A071C070D5369013BE4
:104C240053615DF8044B704753695DF8044B0133DD
:104C34005361704743F00403E0E753695DF8044BA4
:104C4400023B5361704753695DF8044B023353616F
:104C54007047137C03F003030029D1D043F004030D
:104C6400CEE700BF74980020224BD3F89820D2E9F5
:104C74000010D3680968006810B41842946801EA07
:104C840004012ED0137C03F00303D9B943F00803C5
:104C94009908013B11740D2B0BD8DFE803F00D07C5
:104CA4001C070A160D0D160A071C070D5369013B54
:104CB40053615DF8044B704753695DF8044B01334D
:104CC4005361704743F00403E0E753695DF8044B14
:104CD400023B5361704753695DF8044B02335361DF
:104CE4007047137C03F003030029D1D043F004037D
:104CF400CEE700BF74980020224BD3F89C20D2E961
:104D04000010D3680968006810B41842946801EA76
:104D140004012ED0137C03F00303D9B943F0080334
:104D24009908013B11740D2B0BD8DFE803F00D0734
:104D34001C070A160D0D160A071C070D5369013BC3
:104D440053615DF8044B704753695DF8044B0133BC
:104D54005361704743F00403E0E753695DF8044B83
:104D6400023B5361704753695DF8044B023353614E
:104D74007047137C03F003030029D1D043F00403EC
:104D8400CEE700BF74980020224BD3F8A020D2E9CC
:104D94000010D3680968006810B41842946801EAE6
:104DA40004012ED0137C03F00303D9B943F00803A4
:104DB4009908013B11740D2B0BD8DFE803F00D07A4
:104DC4001C070A160D0D160A071C070D5369013B33
:104DD40053615DF8044B704753695DF8044B01332C
:104DE4005361704743F00403E0E753695DF8044BF3
:104DF400023B5361704753695DF8044B02335361BE
:104E04007047137C03F003030029D1D043F004035B
:104E1400CEE700BF74980020224BD3F8A420D2E937
:104E24000010D3680968006810B41842946801EA55
:104E340004012ED0137C03F00303D9B943F0080313
:104E44009908013B11740D2B0BD8DFE803F00D0713
:104E54001C070A160D0D160A071C070D5369013BA2
:104E640053615DF8044B704753695DF8044B01339B
:104E74005361704743F00403E0E753695DF8044B62
:104E8400023B5361704753695DF8044B023353612D
:104E94007047137C03F003030029D1D043F00403CB
:104EA400CEE700BF74980020224BD3F8A820D2E9A3
:104EB4000010D3680968006810B41842946801EAC5
:104EC40004012ED0137C03F00303D9B943F0080383
:104ED4009908013B11740D2B0BD8DFE803F00D0783
:104EE4001C070A160D0D160A071C070D5369013B12
:104EF40053615DF8044B704753695DF8044B01330B
:104F04005361704743F00403E0E753695DF8044BD1
:104F1400023B5361704753695DF8044B023353619C
:104F24007047137C03F003030029D1D043F004033A
:104F3400CEE700BF74980020224BD3F8AC20D2E90E
:104F44000010D3680968006810B41842946801EA34
:104F540004012ED0137C03F00303D9B943F00803F2
:104F64009908013B11740D2B0BD8DFE803F00D07F2
:104F74001C070A160D0D160A071C070D5369013B81
:104F840053615DF8044B704753695DF8044B01337A
:104F94005361704743F00403E0E753695DF8044B41
:104FA400023B5361704753695DF8044B023353610C
:104FB4007047137C03F003030029D1D043F00403AA
:104FC400CEE700BF74980020224BD3F8B020D2E97A
:104FD4000010D3680968006810B41842946801EAA4
:104FE40004012ED0137C03F00303D9B943F0080362
:104FF4009908013B11740D2B0BD8DFE803F00D0762
:105004001C070A160D0D160A071C070D5369013BF0
:1050140053615DF8044B704753695DF8044B0133E9
:105024005361704743F00403E0E753695DF8044BB0
:10503400023B5361704753695DF8044B023353617B
:105044007047137C03F003030029D1D043F0040319
:10505400CEE700BF749800200B4610B5362800F246
:105064009782DFE810F08C028202790270026702F4
:105074005E0255024C0243023A02310228021F0228
:10508400BF01B601AD01A4019B0192018901800118
:1050940077016E0165015C0153014A014101380148
:1050A4002F0126011D0113010901FF00F500EB008A
:1050B400E100D700CD00C300B900AF00A5009B00FC
:1050C400910087007D00730069005F0055004B006C
:1050D40041003700C84C0422C8493620C4F8D830EF
:1050E4001DF0A0FD012010BDC34C0422C44935208D
:1050F400C4F8D4301DF096FD012010BDBE4C04222E
:10510400C0493420C4F8D0301DF08CFD012010BDFE
:10511400B94C0422BC493320C4F8CC301DF082FDC4
:10512400012010BDB44C0422B8493220C4F8C83060
:105134001DF078FD012010BDAF4C0422B44931208C
:10514400C4F8C4301DF06EFD012010BDAA4C042229
:10515400B0493020C4F8C0301DF064FD012010BDFA
:10516400A54C0422AC492F20C4F8BC301DF05AFDD4
:10517400012010BDA04C0422A8492E20C4F8B83048
:105184001DF050FD012010BD9B4C0422A4492D208C
:10519400C4F8B4301DF046FD012010BD964C042225
:1051A400A0492C20C4F8B0301DF03CFD012010BDF6
:1051B400914C04229C492B20C4F8AC301DF032FDE4
:1051C400012010BD8C4C042298492A20C4F8A83030
:1051D4001DF028FD012010BD874C0422944929208C
:1051E400C4F8A4301DF01EFD012010BD824C042221
:1051F40090492820C4F8A0301DF014FD012010BDF2
:105204007D4C04228C492720C4F89C301DF00AFDF3
:10521400012010BD784C042288492620C4F8983017
:105224001DF000FD012010BD734C0422844925208B
:10523400C4F894301DF0F6FC012010BD6E4C04221D
:1052440080492420C4F890301DF0ECFC012010BDEE
:10525400694C04227C492320C4F88C301DF0E2FC04
:10526400012010BD644C042278492220C4F88830FF
:105274001DF0D8FC012010BD5F4C0422744921208C
:10528400C4F884301DF0CEFC012010BD5A4C042219
:1052940070492020C4F880301DF0C4FC012010BDEA
:1052A400554C04226C491F20E3671DF0BBFC012010
:1052B40010BD514C042269491E20A3671DF0B2FCA5
:1052C400012010BD4C4C042265491D2063671DF06C
:1052D400A9FC012010BD484C042262491C2023670C
:1052E4001DF0A0FC012010BD434C04225E491B208C
:1052F400E3661DF097FC012010BD3F4C04225B497E
:105304001A20A3661DF08EFC012010BD3A4C042225
:105314005749192063661DF085FC012010BD364CE9
:1053240004225449182023661DF07CFC012010BD82
:10533400314C042250491720E3651DF073FC012011
:1053440010BD2D4C04224D491620A3651DF06AFCA6
:10535400012010BD284C04224949152063651DF025
:1053640061FC012010BD244C04224649142023650D
:105374001DF058FC012010BD1F4C0422424913208B
:10538400E3641DF04FFC012010BD1B4C04223F4977
:105394001220A3641DF046FC012010BD164C04220B
:1053A4003B49112063641DF03DFC012010BD124CEB
:1053B40004223849102023641DF034FC012010BD60
:1053C4000D4C042234490F20E3631DF02BFC012013
:1053D40010BD094C042231490E20A3631DF022FCA8
:1053E400012010BD044C04222D490D2063631DF0DF
:1053F40019FC012010BD00BF74980020251900007D
:1054040095180000A51D0000151D0000851C000056
:10541400F51B0000651B0000D51A0000451A0000AA
:10542400B51900009926000009260000792500001E
:10543400E924000059240000C92300003923000096
:10544400A92200001922000089210000F92000008F
:1054540069200000D91F00004D1F0000C11E00007C
:10546400351E000079110000ED10000061100000ED
:10547400D50F0000490F0000BD0E0000310E0000E2
:10548400A50D0000190D00008D0C0000010C00009A
:10549400750B0000E90A00005D0A0000D109000054
:1054A400450900003B4C04223B490C2023631DF0BA
:1054B400B9FB012010BD374C042238490B20E362AC
:1054C4001DF0B0FB012010BD324C042234490A20E7
:1054D400A3621DF0A7FB012010BD2E4C042231490C
:1054E400092063621DF09EFB012010BD294C04229B
:1054F4002D49082023621DF095FB012010BD254C89
:1055040004222A490720E3611DF08CFB012010BD11
:10551400204C042226490620A3611DF083FB0120B0
:1055240010BD1C4C04222349052063611DF07AFB45
:10553400012010BD0422174C1F49104623611DF0A1
:1055440071FB012010BD134C04221C490320E360AD
:105554001DF068FB012010BD0E4C042218490220E6
:10556400A3601DF05FFB012010BD0446094804221E
:105574001449436001201DF055FB204610BD054C25
:1055840004221149002023601DF04CFB012010BDB2
:10559400002010BD74980020D91500004D1500009E
:1055A400C114000035140000A91300001D130000ED
:1055B4009112000005120000091800007D17000078
:1055C400F116000065160000B908000010B584B09B
:1055D4000446039102921BF0C3FE00222046DDE93B
:1055E400023100921BF030FF204604B010BD00BF12
:1055F40010B50023044610460D4A617223722260DE
:10560400C4E9033019B18A00194621F0EDFD094AB5
:10561400136853B11A465B69002BFBD15461002314
:10562400204663616360A37210BD1460F7E700BF96
:10563400503C0020D896002003460022144910B4A0
:10564400144C43F8344B4FF40074C0E903230B6843
:105654000481C0E90D22CBB11A465B69002BFBD152
:1056640050610D4900230D4A0D4C01604FF48051E7
:1056740082610C4A436143608372C0E90741C0E917
:1056840009235DF8044BC0E90B3370470860E8E771
:10569400D8960020503C0020AC3E002090298F0476
:1056A40060EA8E0480F9855A0022034613494FF4B8
:1056B400806C10B4124C43F8284BA0F808C0C0E921
:1056C40003230B68C0E90A22C0E90C229BB11A46E5
:1056D4005B69002BFBD1506100224FF480330949F0
:1056E4005DF8044B4261426082720160C0E9063396
:1056F400C0E9083370470860EEE700BFD896002081
:10570400503C0020443C002038B5002204460346A7
:105714001549164D4FF4007043F8185B2081C4E915
:1057240003230B68C4E90622DBB11A465B69002B2C
:10573400FBD1546100230E494FF4004204F50F706D
:1057440063616360A37221602363C4F83432A4F8F4
:105754003832C4E90833C4E90A231BF0D5F82046DB
:1057640038BD0C60E6E700BFD8960020503C00200E
:10577400B83E00200D49002210B40B680C4C0261A5
:1057840004600281C2607BB11A465B69002BFBD1C5
:1057940050610023074A5DF8044B43614360837200
:1057A40002600376C36170470860F2E7D896002070
:1057B400503C00206C3E0020F5EEC00AF7EE007A63
:1057C400F1EE10FAB4EEE70A4AD9F1EE10FA28DD48
:1057D4003A4ADFED3B7A60EEA70AFDEEE07A17EE77
:1057E400903ABBB372B6C1690262914260D010B400
:1057F40081FAA2F4EFF3008C1CF0006F53D003F194
:10580400010CBCF1020F04D992FBF3F491FBF3F306
:10581400E41A7CB344620123037662B65DF8044B58
:105824007047FFEE007AB4EEE70AF1EE10FA28D4DE
:10583400DFED237A60EEA70AFDEEE07A17EE903AE8
:10584400DFED207A20EE270AFDEEC07A17EE902ACB
:10585400002BC7D172B60023C261037662B67047CB
:10586400F1EE10FA0FDD154B72B60022C361027619
:1058740062B670479142B4BF01214FF0FF314162DB
:10588400C9E7114AA5E7FFEE007AB4EEE70AF1EEA4
:1058940010FA11D4DFED0B7A20EE270AFDEEC07A60
:1058A40017EE903AE0E794FBF3F4002CE2D0B1E772
:1058B4000023037662B67047034BD5E70000FF7FF1
:1058C4006666304200FEFF4E00000180F5EEC01A0D
:1058D400F1EE10FAB4EEE00A26D4F1EE10FA20DD6F
:1058E40030EE600AB7EEE07AB7EE005B60EE211AA4
:1058F400B7EEC16A35EE475BB7EEE17AF7EE004AE0
:1059040087EE050B30EE060BB7EEC00BB4EEE40ADF
:10591400F1EE10FA26DCB5EEC00AF1EE10FA00D46E
:1059240070479FED130A7047F1EE10FAF9D5C0EEF7
:10593400207AB7EEC15AB7EEE16AB7EE007AB7EE55
:10594400E70A30EE450B20EE060BB7EEC00BB4EEC3
:10595400C70AF1EE10FA08DCB5EEC00AF1EE10FA4F
:10596400DFD47047B0EE640A7047B0EE470A704760
:1059740000000000B34BB44A1B78117899420FD051
:105984001370042B6CD8DFE813F06B009800B2009E
:1059940099018300AD4A10460021DA61C3E9081079
:1059A400AB4BAC4A1B781178994211D01370042B7D
:1059B40000F2FD80DFE813F0FB00C900B5012C0103
:1059C400E301A24AA44B0021C3E90621C3E908115B
:1059D400A24BA34A1B781178994211D01370042B5F
:1059E40000F2FA81DFE813F0F8018301FB00E00123
:1059F4009C00964A9B4B0021C3E90621C3E9081188
:105A0400994B9A4A1B78117899420FD01370042B42
:105A140000F2B580DFE813F0B3003801F6010B00A3
:105A24009E018A4A0021C3E90721596270479049BF
:105A340000229FED907AD1ED007A8F4BF4EEC77A75
:105A44009A61F1EE10FA00F3F4819FED8C7AF4EE92
:105A5400C77AF1EE10FA40F1E282894A1046EAE18F
:105A6400834900229FED837AD1ED007A854BF4EED1
:105A7400C77A9A61F1EE10FA00F3E7819FED7F7A1D
:105A8400F4EEC77AF1EE10FA40F1C2827C4ADDE10D
:105A9400774B9FED787AD3ED007AF4EEC77AF1EE86
:105AA40010FA00F3D8819FED757AF4EEC77AF1EE1F
:105AB40010FA40F1A682724ACEE16D4900229FEDB0
:105AC4006D7AD1ED007A6F4BF4EEC77A1A62F1EE7B
:105AD40010FAC3E9062200F3C6819FED687AF4EE5A
:105AE400C77AF1EE10FA40F18582654ABCE160495B
:105AF40000229FED607AD1ED007A624BF4EEC77A12
:105B0400C3E90622F1EE10FA00F3CA819FED5B7A35
:105B1400F4EEC77AF1EE10FA40F16582584AC0E11A
:105B2400534B9FED547AD3ED007AF4EEC77AF1EE3D
:105B340010FA3FF75EAF9FED517AF4EEC77AF1EEBB
:105B440010FA40F149824E4A54E7494900229FED38
:105B5400497AD1ED007A404BF4EEC77A1A62F1EE3D
:105B640010FAC3E9062200F3A6819FED447AF4EE0D
:105B7400C77AF1EE10FA40F12882414A9CE13C498F
:105B840000229FED3C7AD1ED007A3B4BF4EEC77ACC
:105B94009A61F1EE10FA3FF744AF9FED387AF4EED4
:105BA400C77AF1EE10FA40F10982354A3AE73049F2
:105BB40000229FED307AD1ED007A274BF4EEC77ABC
:105BC4009A61F1EE10FA00F370819FED2C7AF4EEF5
:105BD400C77AF1EE10FA40F1EA81294A66E12449D4
:105BE40000229FED247AD1ED007A1E4BF4EEC77AA1
:105BF400C3E90622F1EE10FA00F346819FED1F7A05
:105C0400F4EEC77AF1EE10FA40F1CA811C4A3CE185
:105C1400174900229FED177AD1ED007A0E4BF4EE6E
:105C2400C77A9A61F1EE10FA00F34D819FED137A71
:105C3400F4EEC77AF1EE10FA40F19681104A10465C
:105C440043E100BF2F9C0320AC6200200000FF7FD3
:105C5400309C0320AD620020247203202D9C03207D
:105C6400AE6200205C7203202E9C0320AF620020F1
:105C74005460002000FEFF469472032000FEFFC61D
:105C840000000180EC710320BC4900229FEDBC7A26
:105C9400D1ED007ABB4BF4EEC77A1A62F1EE10FA3A
:105CA400C3E9062200F3E2809FEDB77AF4EEC77AE7
:105CB400F1EE10FA40F15181B44AD8E0AF49002224
:105CC4009FEDAF7AD1ED007AB14BF4EEC77A9A61C9
:105CD400F1EE10FA3FF75EAE9FEDAB7AF4EEC77AC1
:105CE400F1EE10FA40F12F81A84A104654E6A34978
:105CF40000229FEDA37AD1ED007AA64BF4EEC77A89
:105D04001A62F1EE10FAC3E9062200F3BA809FED9D
:105D14009E7AF4EEC77AF1EE10FA40F10D819B4AB7
:105D2400B0E0964900229FED967AD1ED007A9A4B25
:105D3400F4EEC77AC3E90622F1EE10FA00F3BE804E
:105D44009FED917AF4EEC77AF1EE10FA40F1ED800E
:105D54008E4AB4E0894B9FED8A7AD3ED007AF4EE53
:105D6400C77AF1EE10FA00F384809FED877AF4EE9F
:105D7400C77AF1EE10FA40F1D180844A7AE07F4B81
:105D84009FED7F7AD3ED007AF4EEC77AF1EE10FA44
:105D94003FF717AE9FED7C7AF4EEC77AF1EE10FA76
:105DA40040F1B580794A0DE6744900229FED747A7A
:105DB400D1ED007A774BF4EEC77A9A61F1EE10FADE
:105DC40067DC9FED717AF4EEC77AF1EE10FA40F1D8
:105DD40095806E4A10465EE0684900229FED687A1D
:105DE400D1ED007A6B4BF4EEC77A9A61F1EE10FABA
:105DF40070DC9FED657AF4EEC77AF1EE10FA76D591
:105E0400624A68E05D4900229FED5D7AD1ED007A37
:105E14005C4BF4EEC77AC3E90622F1EE10FA0FDC0C
:105E24009FED597AF4EEC77AF1EE10FA58D5574A35
:105E340007E05A4A10460021DA61C3E908107047A6
:105E4400564A0021C3E908217047544A0021C3E996
:105E540007215962A4E5514A4D4B0021C3E90621AB
:105E6400C3E908119CE54D4A5A6299E54B4A5A62C6
:105E740070474A4A434B0021C3E90621C3E908118C
:105E84007047464A5A62BBE5444A0021C3E90821E7
:105E9400B6E5424A10460021DA61C3E90810AFE5CD
:105EA4003E4A0021C3E908217AE53C4A0021C3E9BE
:105EB400072159628CE5394A5A6289E5374A00213B
:105EC400C3E9082184E5354A10460021DA61C3E9B3
:105ED40008107DE5314A0021C3E9072159628FE5A5
:105EE400B0EE677ABEEEC87A17EE102AA9E7B0EED4
:105EF400677ABEEEC87A17EE102AECE7B0EE677A3E
:105F0400BEEEC87A17EE102AC4D52048C3E7B0EE17
:105F1400677ABEEEC87A17EE102A53E5B0EE677AB8
:105F2400BEEEC87A17EE102AA4E7B0EE677ABEEE8A
:105F3400C87A17EE102AC2E7B0EE677ABEEEC87AC6
:105F440017EE102A9EE7B0EE677ABEEEC87A17EE17
:105F5400102A7FF520AD0D481EE5B0EE677ABEEE3F
:105F6400C87A17EE102A82E7B0EE677ABEEEC87AD6
:105F740017EE102AA8D50548A7E700BF54600020F3
:105F840000FEFF469472032000FEFFC6000001805D
:105F9400EC7103205C720320247203200000FF7F55
:105FA400B0EE677ABEEEC87A17EE102A6DE7B0EE4F
:105FB400677ABEEEC87A17EE102A77E7B0EE677AF2
:105FC400BEEEC87A17EE102A2CE5B0EE677ABEEE64
:105FD400C87A17EE102A6FE7B0EE677ABEEEC87A79
:105FE40017EE102A06E5B0EE677ABEEEC87A17EE11
:105FF400102A56E7B0EE677ABEEEC87A17EE102A7A
:1060040032E7B0EE677ABEEEC87A17EE102A23E7BD
:10601400B0EE677ABEEEC87A17EE102A16E7B0EE35
:10602400677ABEEEC87A17EE102A7FF503AF0148EF
:1060340001E700BF000001806F4A704970482DE9F4
:10604400F0472DED028B92F8563082B092F85750FB
:106054000B70B02B92F858106A4C017092F85500EE
:10606400694A2570107000F0A1802AD9C02B00F075
:106074001283E02B20D107EE901A06EE905A634A61
:10608400B8EEE77B624BB8EEE66BD2ED005AD3ED87
:10609400000A6048F8EEE00A9FED533B9FED544B35
:1060A400A7EE036BB7EEE57A36EE446B26EE076B8C
:1060B400B7EEC60BFFF780FB02B0BDEC028BBDE868
:1060C400F087802B00F0F182902BF5D107EE901A27
:1060D400514A524BB8EE678AD2ED007A93ED007ABA
:1060E4004F4D28EE278AB4EEC78A85ED008AF1EE7B
:1060F40010FA35DC9FED4B0A4B4A4C4B92ED007A7B
:1061040083ED000AB4EEC78AF1EE10FA40F31F8360
:1061140038EE475AB7EE006BB7EEC77AB7EEC55AFA
:10612400F7EE004A36EE477B85EE070BB7EEC00B61
:10613400B4EEE40AF1EE10FA00F3A586B5EEC00A57
:10614400F1EE10FA00F10383B5EE400A384BD3EDBB
:10615400000AF1EE10FA00F0FA821FF0BDFAF8E23C
:1061640038EE475AB7EE006BB7EEC77AB7EEC55AAA
:10617400F7EE004A36EE477B85EE070BB7EEC00B11
:10618400B4EEE40AF1EE10FA00F37186B5EEC00A3B
:10619400F1EE10FAAED4B5EE400A264BD3ED000A68
:1061A400F1EE10FAA6D01FF097FAA5E76B1E0A2BA2
:1061B40082D801A252F823F00939000009390000FD
:1061C40089370000893700004D3D00008937000001
:1061D4000939000089370000893700008937000039
:1061E40009390000AFF300800000000000006040A7
:1061F400000000000000C040807200205B9C03206F
:10620400459C0320449C0320439C032010520020FF
:10621400D05D0020A09F002008520020B88E0020EE
:10622400789C002000000000BC8E0020D09E00203E
:10623400FC510020F8510020D74B1B78AB427FF46F
:106244003BAF07EE901AD54BD549B8EE674AD3ED6C
:10625400007AD44AD44B24EE274AD44DD3ED000A15
:10626400D1ED001AB0EE440A92ED001AD04B85ED40
:10627400004AFFF72BFBF0EE403AD3ED001ACD4B6A
:10628400B0EE440ACC49CD4AC3ED003ACC4B91ED73
:10629400001AD2ED000AFFF719FBD3ED001AC94B1F
:1062A400C94ACA4FD3ED000AC94B92ED001A87EDD3
:1062B400000AB0EE440AFFF709FBC64AD3ED001A00
:1062C400F0EE407AC44BB0EE440AC44ED3ED000A5B
:1062D40092ED001AC6ED007AFFF7F8FAF0EE407A74
:1062E400BF4CB0EE630ABF48F1EE080AC4ED007A71
:1062F400FFF762FAF1EE080A97ED000ABA48FFF7D1
:106304005BFAF1EE080A96ED000AB848FFF754FA72
:10631400F1EE080A94ED000AB548FFF74DFA95ED41
:10632400008ADFEDB47AB44BB4EE678AD3ED000A89
:10633400F1EE10FA00F0A787B0EE480AAF4C1FF058
:10634400CBF9AF4BF0EE407ADFF81893D3ED000AA7
:10635400B0EE480ADFF81083C4ED007A1FF0BCF9F0
:10636400A84BF0EE407AB0EE480AA74FD3ED000AEE
:10637400C9ED007A1FF0B0F9A44BF0EE407AB0EE0C
:10638400480AD3ED000AC8ED007A1FF0A5F9A04B26
:10639400F0EE407AB0EE480AD3ED000AC7ED007A79
:1063A4001FF09AF99B4B9C4ED3ED007A86ED000AC0
:1063B400F5EEC07AF1EE10FA40F3878788EE276A8B
:1063C400964B93ED007AF7EE006AB7EEC77AB4EE17
:1063D400E66AF1EE10FA00F3FA87FFEE006AB4EE13
:1063E400E66AF1EE10FA01F10880B7EEC66AB7EE7C
:1063F400005B35EE466B27EE067B8948F1EE080A12
:10640400B7EEC70BFFF7D8F9864BD3ED007AF5EE5C
:10641400C07AF1EE10FA40F3508795ED007AF7EE6A
:10642400006A814B87EE276A93ED007AB7EEC77A4C
:10643400B4EEE66AF1EE10FA00F3CD87FFEE006ADF
:10644400B4EEE66AF1EE10FA00F1DB87B7EEC66A45
:10645400B7EE005B35EE466B27EE067B7348F1EE34
:10646400080AB7EEC70BFFF7A7F9714B1B78002B8F
:1064740000F080876F4B95ED008A93ED007AB4EEBF
:10648400C78AF1EE10FA40F3148738EE475AB7EE94
:10649400006BB7EEC77AB7EEC55AF7EE004A36EE90
:1064A400476B85EE060BB7EEC00BB4EEE40AF1EED3
:1064B40010FA00F39487B5EEC00AF1EE10FA00F179
:1064C400F886B5EE400A5C4BD3ED000AF1EE10FA03
:1064D40000F0EF861FF000F9584B93ED006A584B1B
:1064E400B4EEC68A83ED000AF1EE10FA40F3DD86BD
:1064F40038EE467AB7EE005BB7EEC66AB7EEC77AF7
:10650400F7EE004A35EE465B87EE050BB7EEC00B9F
:10651400B4EEE40AF1EE10FA00F36887B5EEC00AAF
:10652400F1EE10FA00F1C186B5EE400A454BD3ED09
:10653400000AF1EE10FA00F0B8861FF0CDF8F0EE84
:10654400407A94ED000A404C404B4148D4ED000A97
:10655400C3ED007AFFF730F9D4ED000A99ED000A93
:106564003C48FFF729F9D4ED000A98ED000A3A48AF
:10657400FFF722F9D4ED000A97ED000A3748FFF738
:106584001BF9374BD3ED007AF5EEC07AF1EE10FA31
:106594007FF792AD6AE000BF005D00200852002042
:1065A400208F0020308F0020508F0020789C002006
:1065B400248F0020F49C0020348F0020548F00206E
:1065C400188F0020488F0020288F0020209D002055
:1065D4001C8F00202C8F00204C8F00204C9D00200D
:1065E400789D0020CC9C0020F89C0020249D002055
:1065F400509D00200000000000520020289E002032
:1066040004520020F0510020F89D0020F451002095
:1066140058520020988E0020FC9D0020A08E00205F
:10662400589E00209C8E0020A48E0020809E002076
:106634004A9C0320B88E0020F8510020BC8E002014
:10664400D09E0020FC510020C85D0020FC9E00204C
:10665400009E00202C9E0020A49D0020D09D0020A0
:106664005C520020549E0020CC9D0020F1EE080ACC
:1066740096ED000ACC48FFF79FF81DE507EE901A47
:10668400CA4ACB4BF8EE677A92ED007A67EE877AC6
:10669400C3ED007A10E5C7490122C74B0D601A709B
:1066A40002B0BDEC028BBDE8F087C44B1B78AB4253
:1066B4007FF402AD07EE903AB7EE007AC04B0022A9
:1066C400FBEEEC7ABF4E1A70F4EEC77AC6ED007A90
:1066D400F1EE10FA40F3A484BB4B72B6BB4A00211E
:1066E400D361117662B6BA4B9FEDBA8A96ED000A71
:1066F400D3ED000AB848FFF75FF8B84AB84BB0EEDC
:10670400480AF1EE080AB74882ED008A83ED008A50
:10671400FFF752F8B0EE480AB348F1EE080AFFF763
:106724004BF8B0EE480AF1EE080AB048FFF744F817
:10673400B0EE480AF1EE080AAD48FFF73DF8F1EE75
:10674400080AB0EE480A9848FFF736F8B4E49FED1B
:10675400A10AB5EE408AA24B83ED000AF1EE10FACD
:1067640000F01381A34BB0EE480AD3ED000A1EF0EB
:10677400B3FFF0EE407AA04BB0EE480A9F49A04A1E
:10678400D3ED000A9F4EA04B92ED001AD1ED001AF2
:10679400C6ED007AFFF79AF8D3ED001AB0EE404A3E
:1067A4009A4B9B499B4AD3ED000A9B4B91ED001AEF
:1067B40082ED000AB0EE480AFFF788F8D3ED001A1C
:1067C400964BF0EE407ADFF8AC92B0EE480A93EDC7
:1067D400001A934BC9ED007AD3ED000A914BFFF7F1
:1067E40075F8F0EE407ADFF89082D3ED001AB0EE3F
:1067F400480A8D4BC8ED007A93ED001A8B4B8C4FF1
:10680400D3ED000AFFF762F8F0EE407AF1EE080AE1
:106814008848B0EE440AC7ED007AFEF7CDFFF1EEEA
:10682400080A99ED000A8448FEF7C6FFF1EE080A4B
:1068340098ED000A8148FEF7BFFF97ED000AF1EEDC
:10684400080A7F48FEF7B8FF95ED000AB5EE400A46
:10685400F1EE10FA00F0A5807A4BD3ED000A1EF099
:106864003BFF794F794BD7ED000A5E4883ED000A70
:10687400FEF7A2FF95ED000AB5EE400AF1EE10FA1C
:1068840000F08C80724BD3ED000A1EF025FF714B93
:10689400D7ED000A544883ED000AFEF78DFF95ED0D
:1068A400000AB5EE400AF1EE10FA74D06A4BD3ED4B
:1068B400000A1EF011FF694BD7ED000A4B4883ED27
:1068C400000AFEF779FF95ED000AB5EE400AF1EEF5
:1068D40010FA5DD0624BD3ED000A1EF0FDFE614B51
:1068E400D7ED000A424883ED000AFEF765FF96EDF6
:1068F400000AF1EE080A2C48FEF75EFF23785A4A94
:106904002E4F07EE903A92ED007A3A78FBEEEC7A4D
:106914002C4EB5EEC07A9B1ADFF86081C6ED007A82
:1069240007EE903AF1EE10FAF8EEE77AF0EEE77A35
:10693400C8ED007A40F3A480D5ED007AF7EE006A42
:106944004A4B87EE876A93ED007AB7EEC77AB4EEC6
:10695400E66AF1EE10FA00F38782FFEE006AB4EE05
:10696400E66AF1EE10FA00F1D683B7EEC66AB7EE26
:10697400005B35EE466B27EE067B3D48F1EE080AD8
:10698400B7EEC70BFEF718FF80E0DFED127AF2E6F0
:106994009FED100AA3E79FED0F0A8CE79FED0D0A08
:1069A40075E79FED0C0A5CE77C9D002008520020EF
:1069B400F09F0020408203204D9C0320AA62002007
:1069C4004A9C0320FC5D00200000FF7FC89F00203C
:1069D400D060002000000000F49F0020D09E002022
:1069E400FC9E0020009E00202C9E0020A49D0020E0
:1069F400D09D002058520020508F0020208F00206E
:106A0400308F0020FC9D0020248F0020548F002014
:106A1400348F0020F49C0020188F0020288F002041
:106A2400488F00201C8F00202C8F00204C8F0020CA
:106A3400789D0020CC9C0020F89C0020249D002000
:106A4400509D002000520020C85D0020289E002098
:106A540004520020549E0020F0510020CC9D0020C0
:106A6400F4510020F89D0020988E0020A08E002074
:106A7400589E0020209D00204C9D0020F8C8022034
:106A840072B6654B0022DA611A7662B6634BD3EDB7
:106A9400007AF5EEC07AF1EE10FA28DD95ED007A71
:106AA400F7EE006A5E4B87EE276A93ED007AB7EE45
:106AB400C77AB4EEE66AF1EE10FA00F3D281FFEE83
:106AC400006AB4EEE66AF1EE10FA00F12183B7EE43
:106AD400C66AB7EE005B35EE466B27EE067B51487F
:106AE400F1EE080AB7EEC70BFEF766FE05E072B6D4
:106AF4004C4B0022DA611A7662B64B4D2B78002B90
:106B040000F09981494AD8ED007AD2ED000A484A4A
:106B1400484B92ED007A484A60EE870A60EEA70A75
:106B2400D2ED007AF4EEE70AC3ED000AF1EE10FAB2
:106B340000F1A48196ED000A4048FEF73DFE404B6B
:106B440096ED000AD3ED000A3E48FEF735FE2B7899
:106B540023B13D4B1B78002B40F064813B4BD3EDBC
:106B6400007AF5EE407AF1EE10FA15D0B7EE007A1D
:106B7400F4EEC77AF1EE10FA40F34182344B72B668
:106B84003448C3610023037662B6334B9FED330A66
:106B9400D3ED000AFEF710FE314BD3ED007AF5EE8B
:106BA400407AF1EE10FA15D0B7EE007AF4EEC77A17
:106BB400F1EE10FA40F3C481254B72B62948C36143
:106BC4000023037662B6284B9FED240AD3ED000A16
:106BD400FEF7F2FD254BD3ED007AF5EEC07AF1EE27
:106BE40010FA4BDD224BB7EE007AD3ED007AF4EEC7
:106BF400C77AF1EE10FA40F39281154B72B61D4834
:106C0400C3610023037662B61B4B9FED140AD3EDD8
:106C1400000AFEF7D1FD37E0589E00209C8E00202C
:106C2400A48E0020809E00204A9C0320F09F002018
:106C3400D45D00203482032030820320C89F0020CA
