:0200000460009A
:100000004643464200000156000000000103030081
:1000100000000000000000000000000000000000E0
:1000200000000000000000000000000000000000D0
:1000300000000000000000000000000000000000C0
:1000400000000000010408000000000000000000A3
:100050000000800000000000000000000000000020
:100060000000000000000000000000000000000090
:100070000000000000000000000000000000000080
:10008000EB04180A063204260000000000000000FD
:10009000050404240000000000000000000000002F
:1000A0000000000000000000000000000000000050
:1000B0000604000000000000000000000000000036
:1000C0000000000000000000000000000000000030
:1000D00020041808000000000000000000000000DC
:1000E0000000000000000000000000000000000010
:1000F0000000000000000000000000000000000000
:10010000D8041808000000000000000000000000F3
:100110000204180804200000000000000000000095
:1001200000000000000000000000000000000000CF
:10013000600400000000000000000000000000005B
:1001400000000000000000000000000000000000AF
:10015000000000000000000000000000000000009F
:10016000000000000000000000000000000000008F
:10017000000000000000000000000000000000007F
:10018000000000000000000000000000000000006F
:10019000000000000000000000000000000000005F
:1001A000000000000000000000000000000000004F
:1001B000000000000000000000000000000000003F
:1001C000000100000010000001000000000000001D
:1001D000000001000000000000000000000000001E
:1001E000000000000000000000000000000000000F
:1001F00000000000000000000000000000000000FF
:10020000FFFFFFFFFFFFFFFFFFFFFFFFFFFFFFFFFE
:10021000FFFFFFFFFFFFFFFFFFFFFFFFFFFFFFFFEE
:10100000D10020434D1600600000000000000000E9
:10101000201000600010006000500360000000001D
:1010200000000060005C030000000000FFFFFFFF05
:10103000FFFFFFFFFFFFFFFFFFFFFFFFFFFFFFFFC0
:10104000FFFFFFFFFFFFFFFFFFFFFFFFFFFFFFFFB0
:10105000FFFFFFFFFFFFFFFFFFFFFFFFFFFFFFFFA0
:10106000FFFFFFFFFFFFFFFFFFFFFFFFFFFFFFFF90
:10140000814205D051F8043B40F8043B8242F9D8B0
:10141000704700BF044A05494FF0000342F8043BFF
:101420009142FBD8704700BFC0660020E004042052
:101430002DE98848BFF34F8F00BF00BF00BF00BF3A
:1014400000F07CFA684B0822C3F8542100BF00BFAB
:1014500000BF00BF00BF00BF00BF00BF00BF00BF94
:1014600000BF00BF00BF00BF00BF00BF5F4A6049B0
:101470006048FFF7C5FF604A60496148FFF7C0FF59
:10148000604CFFF7C7FF4FF470004FF0E0210023DE
:101490005D4AC1F8880D44F823200133B02BFAD1FE
:1014A0005A4B80215A4A03F8011B9342FBD14FF05B
:1014B000E0254D4E4FF08039DFF884B1DFF884A18C
:1014C0004FF0FF31C5F8084D0027C6F80491C6F863
:1014D00000B1C6F8F490C6F8F0A0D5F8243DDFF8C6
:1014E000688143F4E0234B4AC5F8243DD8F81C300A
:1014F00023F07F0343F04003C8F81C30D8F82430B1
:1015000023F07F0343F04003C8F824309166D1668E
:101510001167516700F01AFA3F4B4049A363404BF3
:10152000E36363236B610323AF612B613D4BC5F81C
:10153000203DD5F8FC3D43F08073C5F8FC3D3A4BA7
:101540001A6842F001021A605B680B6000F048FC08
:10155000C6F804913548C6F800B1C6F8F490C6F84C
:10156000F0A000F0D5FDD8F86C10314B314A41F4B1
:101570004051C8F86C101F60C3F80871C3F81871A7
:10158000C3F82871C3F83871936BDB0708D442F6AF
:101590001563294951651365936B43F00103936308
:1015A000244A264C936843F00113936000F056FAE6
:1015B00000F07AFD00F0B4FD00F040FC00F0C0F94E
:1015C0002368132BFCD900F0D1FC2368B3F5967F78
:1015D000FBD300F0B9F900F0B5F900F095FD00F08B
:1015E0009BFD30BFFDE700BF00800D4058BF0200EB
:1015F0003429006000000000C066002090E802600E
:1016000000000020006400209525020000E400E0B6
:10161000A0E400E000C00A40E50A0200D0EC03208C
:10162000E90A020000002020001000E00046C32369
:101630000040084000400D400000C056D4EC03209C
:101640001B1018200C0D111300C00F40054B4FF458
:101650002A01054A05485A641864054A9963954663
:10166000FFF7E6FE00C00A40FFAFAAAA070020006D
:101670000000052043690A4A03EB011010B4037A05
:10168000084C02EB0313D3E901321460C2681A60FC
:1016900003690BB142691A605DF8044B704700BFE3
:1016A0005444002061F801004369027E03EB0212FA
:1016B00092F808C08C451CD01A7AFF2A19D09142A2
:1016C00010B5044616D01A7EFF2A06D00121D3E9B0
:1016D000002312681A4201D1217610BD064B052263
:1016E000204603EB0C135B681A60FFF7C3FF2176FB
:1016F000F3E770470021EAE75444002043690A4AAF
:1017000003EB011010B490F82830084C02EB0313DF
:10171000D3E901321460C26A1A60036B0BB1426BE9
:101720001A605DF8044B70475444002061F80100D2
:101730004369427E03EB021292F828C08C451ED00A
:1017400093F82820FF2A1AD0914210B5044617D0EA
:1017500093F83820FF2A06D00121D3E9002312682C
:101760001A4201D1617610BD064B0522204603EBDB
:101770000C135B681A60FFF7C1FF6176F3E77047EF
:101780000021EAE754440020164942698B6B23F498
:101790007C0343F4802370B58B630446124DD2E979
:1017A00000130A681A4303690A60022200211A61C1
:1017B0000E4A19619A6401225A629D624FF43035D3
:1017C000DD624FF001159E6C1E6519629D651A6100
:1017D000017EFFF74FFF617E2046BDE87040FFF7B6
:1017E0008DBF00BF00C00F40B80B05053B3728195F
:1017F0001BB9124B1B6F9B041ED400F03F000F4B14
:1018000022F0604221F0604140F489101867C3F86B
:101810008010C3F890201A6F22F480521A671A6F52
:10182000002AFCDAD3F87011054A0A40C3F8702187
:101830001A6F22F480321A67704700BF00800D4093
:10184000FF7F7FFFB1F5607FF0B50E468DB028BFFA
:101850004FF460760F46054672B62E4B0024702278
:10186000186021462C4B2D481C8000F06DFCCFB138
:1018700021462A484FF0010C4A0901F01F030131AB
:1018800050F822400CFA03F38E4243EA040340F876
:101890002230F1D8284600234380013300F58270BE
:1018A0009E42F9D81E4C257815B162B60DB0F0BD38
:1018B000082000F041FC1B4B80220646009302A941
:1018C0000693194B0271056008A8029300F040FCD2
:1018D00006A9164A304600F03FFC069B08A8DB68C4
:1018E0009847009B02A8DB6898472378002BDCD13F
:1018F0000F4B104AC3F858210F49D0204FF0E02376
:10190000402281F84600C3F808210123237062B603
:101910000DB0F0BD649800204A0404206C980020AB
:101920007504042050410020F50402001B10010042
:10193000006400200105020000E400E0704700BFE1
:10194000704700BF704700BF00BF704710B44FF032
:10195000E023002110243148C3F8941DC3F89C4DA6
:101960001124C3F8A00D2E48C3F89C4D1224C3F8CF
:10197000A00D2C48C3F89C4D2B4AC3F8A00D2B4C4E
:1019800042F015022A48C3F89C4DC3F8A00D294C1B
:101990002948C3F89C4DC3F8A00D284CC3F89C2DD2
:1019A0002748284AC3F8A04DC3F89C0DC3F8A02DC2
:1019B00002F5A022244C0C322448C3F89C4DC3F8F5
:1019C000A02D234AC3F89C0D224CC3F8A02D02F190
:1019D0004062C3F89C4D2048C3F8A02D0C32C3F8D8
:1019E0009C0DC3F8A02D00BF00BF00BF00BF00BF0B
:1019F0000122C3F8942DBFF34F8FBFF36F8FC3F84D
:101A0000501FBFF34F8FBFF36F8FD3F8142D5DF8C6
:101A1000044B42F44032C3F8142D70473F000010CD
:101A20002500080709001000E0040420130020002E
:101A300021000207140000202500081309000010EF
:101A40001600202027000B1317000040180000602C
:101A50002F000B07190000701A000080F0B5B84B7A
:101A60001822B84E0120B84F83B0C3F85C62B74962
:101A7000C3F86072B64DC3F86462A6F53046B54C43
:101A8000C3F86862C3F86C52C3F87052C3F874525A
:101A9000C3F8785248F20C75DA661A675A679A6783
:101AA000DA67C3F88020C3F88420C3F88820C1F81F
:101AB0002C03A94AC1F83003C1F83403C1F8380334
:101AC000C1F83C03C1F85003A169A44B0A40A448E3
:101AD000A4491343A44AA361D4F8843043F00C030F
:101AE000C4F884304FF0FF34036843F0020303600E
:101AF00003682B404FF400551A439C4B026044602E
:101B00008A689B4C13409B4A43F000538360C36830
:101B100023F07803C360036A134023430362036A1C
:101B20001340954A2343954C43628262C26200226D
:101B3000D1F8B83023F03F0343F00103C0F8B830C8
:101B4000D1F8BC308E4923F03F0343F00103C0F8C5
:101B5000BC3040F20563026105660467C0F880305E
:101B6000456644670224C0F88430036823F002030A
:101B700003608161834B8449C46143F8042B8B4229
:101B8000FBD1774A136843F001031360136813F025
:101B90000103FBD17A48022140F2F564906140F2E2
:101BA0009940D16140F26641C2F8004242F20144DC
:101BB000C2F810127549C2F82002C2F8301240F281
:101BC00035417348C2F83442C2F84012714CC2F831
:101BD000500242F201207049C2F854120121C2F8A9
:101BE0006042C2F864025E48C2F8A030C2F8A43075
:101BF000C2F8B0104369DA07FCD5012300244FF482
:101C0000803257494361C0F8A040C0F8A420C0F812
:101C1000B0304B69DB07FCD5012300244FF40030C2
:101C20004F4A4B61C1F8A040C1F8A400C1F8B030E0
:101C30005369DF07FCD50123002458484849536104
:101C4000C2F8A040C2F8A400C2F8B0304B69DE0769
:101C5000FCD5D1F8003145F60D5221209BB24861E8
:101C6000934265D100244FF4802201233C48C1F8FF
:101C7000A040C1F8A420C1F8B0304369DD07FCD50D
:101C800001234FF400040021354A4361C0F8A0400D
:101C9000C0F8A410C0F8B0305369DC07FCD50123AC
:101CA0004FF400044FF480302D495361C2F8A04036
:101CB000C2F8A400C2F8B0304B69D807FCD50123A4
:101CC0004FF400044FF40030254A4B61C1F8A040A6
:101CD000C1F8A400C1F8B0305369D907FCD501237D
:101CE0004FF400042D481E495361C2F8A040C2F8C9
:101CF000A400C2F8B0304B69DA07FCD5D1F8003146
:101D000045F60D5221209BB24861934250D00825E0
:101D10004FF4000422490020224B234A0090157002
:101D20005A1A01232148224400F00AFA03B0F0BDF8
:101D30001E4B0022C3E90022C3E9022203B0F0BD1A
:101D400000801F40F9B00100F910010000841F401D
:101D5000F970010000C00F40FFFCFF1F000300A04E
:101D600000402A4000802A401200FFFFFF37F700A2
:101D70004000008000FFF07CFF000F836300020042
:101D8000F05AF05A00422A4000432A409F0418307B
:101D9000EB06180A3806180A06320126040003006A
:101DA00000000070000000708204042078CA022045
:101DB0004FF400044FF4802201230848C1F8A040EA
:101DC000C1F8A420C1F8B0304369DB07FCD501237A
:101DD00010254FF0807443619CE700BF00402A400B
:101DE000F0B4154A40274FF480314FF480564FF439
:101DF00000554FF4404443F24200136913F0020FC0
:101E00000ED113F4005F0FD013F4805F0ED0002BBF
:101E1000F3DA13F4803F0BD15B060BD5F0BC7047AF
:101E2000946151619061E8E75561E6E75661E4E746
:101E30009161E2E75761E0E700800D403F4A0320EF
:101E40003F49F3EE095AD2F880304FF0000C9FED75
:101E50003D6A23F001039FED3C5A30B4C2F8803054
:101E6000C2F89000D1F8E010384DCBB2384C394868
:101E70002B6007EE903A0B0DC1F30B21F8EEE77AD9
:101E800006EE903A07EE101A334BB8EEC77A21608F
:101E9000F8EEE66A314937EEC66A37EEC55A76EE95
:101EA000C76A77EEE57A26EE266AC3ED006A25EE6C
:101EB000265AD2F8803067EEA64AC0ED007AC6EE08
:101EC000275A274885EE276AC4EEA76A75EE875A17
:101ED000FCEEE55A36EE076A15EE904ABCEEC66A8D
:101EE00043EA045376EE877AC2F8803016EE103A51
:101EF000D2F89041FCEEE77A01EA0341214317EE64
:101F0000903AC2F89011C3F30B03D2F890110B432F
:101F10001449C2F89031D2F8803043F00203C2F87D
:101F20008030114B80F840C0C1F840314FF0E023C1
:101F3000012230BCC3F80821704700BF00810D406A
:101F400000441F400000AA420000B442E0E9032020
:101F5000DCE90320E4E90320E8E903200000FF0FA7
:101F600000E400E00064002081270200314B40F6CD
:101F7000617210B5C3F8202140F2044400F0D8F893
:101F80002D4A2E49D2F880302D4843F00303C2F881
:101F900080302C4BC1F8604102681A4203D1D1F85D
:101FA000A8319A071BD0254A4FF00041244B5963B2
:101FB000D2F8403143F00203C2F84031D2F8403148
:101FC0009B07FBD44FF400304FF0E0211C4B4FF047
:101FD0000042C1F88C0219209A6300F0A5F8184A53
:101FE0004FF08040154C002190630A20164B116081
:101FF0004FF42072C4F8A801184600F0A5F84FF479
:10200000800203464FF4810040F243111860C4F887
:1020100058311A640D4B0E4AC4F84811C3F8042213
:102020004FF0E0224FF400310123C2F80C11C4F844
:10203000403110BD00800D4000C00F4000002E4018
:1020400000900D40001C1E000000002000640020D5
:10205000A129020008B50E4B1B6E9B0700D4FBBEE6
:1020600072B60C4B00200C4AC3F8400103F16043E8
:102070000A49A3F55F2311649D46BFF34F8F4FF4C8
:1020800000130748074ADB6902609B68984700BF56
:1020900000441F4000002E4000C00A400300200002
:1020A00000802020000012EB104BA020104AD96EB7
:1020B00041F4403110B4D96640F23764D96E41F42E
:1020C0004071D96654649064936C1B06FCD4094A31
:1020D00040F23761A02351649364936C13F0800342
:1020E000FBD1054A13705DF8044B704700C00F40E8
:1020F00000400C4000800C407E040420F8B500BF76
:10210000F8BC08BC9E4670475FF800F04D6B0200BB
:102110005FF800F05D1802005FF800F05122020045
:102120005FF800F07D2402005FF800F04D1B020014
:102130005FF800F0DD3002005FF800F09523020048
:102140005FF800F0B54202005FF800F00968020095
:102150005FF800F0690502005FF800F0BD120200B0
:1021600005010000219C00007D160100B52A010038
:10217000B5C70100FDE6010041E9010059E9010090
:1021800071E9010089E90100A1E90100B9E9010053
:10219000D1E90100E9E9010001EA010019EA0100C1
:1021A000ADEF0100C5EF0100DDEF0100F5EF01002B
:1021B0000DF0010025F001003DF0010055F0010097
:1021C00089F00100B9F00100D1F00100E9F001004F
:1021D00001F1010019F1010075040200C1130200B0
:1021E00080C00F4000000003190000001000000034
:1021F000E8841F4001000000FF000000FF00000015
:1022000000000000000000001800000010000000A6
:10221000E4841F4001000000FF000000FF000000F8
:1022200000000000000000001F00000049BB01008A
:1022300070C00F40000C00001100000011000000F1
:10224000E0841F40020000002C000000120000008B
:10225000E0841F4001000000100000001100000099
:10226000DC841F40020000002D000000120000006E
:10227000DC841F40010000001E0000003DBB010087
:1022800070C00F40C00000001200000013000000EA
:10229000D0841F4001000000FF000000FF0000008C
:1022A0000000000000000000130000001300000008
:1022B000CC841F4001000000FF000000FF00000070
:1022C00000000000000000001C00000031BB010005
:1022D0000080C0E0F0F8FCFE000103070F1F3F7F05
:1022E000000000000001800000000000000000006D
:1022F000038000000000000000000007C000000094
:1023000000000000000007C0000000000000000006
:10231000000FC00000000000000000001FE00000EF
:10232000000000000000001FE000000000000000AE
:1023300000003FE00000000000000000003FF0004F
:1023400000000000000000007FF00000000000001E
:10235000001FF87FF0000000000000003FFE7FF04B
:10236000000000000000003FFF7FF00000000000C0
:1023700000001FFFFBE0000000000000000FFFF95D
:10238000FFC00000000000000FFFF9FFF800000090
:1023900000000007FFF1FFFF00000000000003FC49
:1023A00073FFFF80000000000001FE3FFFFF800080
:1023B0000000000000FF1E0FFF00000000000000F2
:1023C0007FFE1FFC000000000000003FFFFFF80040
:1023D0000000000000000FDFFFE000000000000030
:1023E000001F19FFC0000000000000003F3CFF007C
:1023F000000000000000007E7CF8000000000000EB
:1024000000007FFE7C0000000000000000FFFFFCD9
:102410000000000000000000FFFFFE0000000000C0
:10242000000000FFFFFE0000000000000001FFEFC1
:10243000FE0000000000000001FFCFFE00000000D1
:1024400000000003FF07FE0000000000000003FC86
:1024500007FE0000000000000003F003FE00000083
:1024600000000000018000FE0000000000000000ED
:1024700000007E000000000000000000003E0000A0
:1024800000000000000000000C0000000000000739
:102490008000FC000003C0000000078001FC000079
:1024A00003C0000000078001FC000003C000000022
:1024B000078001E00000001E000000078001E0002E
:1024C00000001E007FE3F79FF9FDE7787BDFC0FF88
:1024D000F7FFBFFDFDFF787BDFC0FFF7FFBFFDFD0E
:1024E000FF787BDFC0F0F787BC3DE1FF787BDE0043
:1024F000F0F787BC3DE1F0787BDE0000F787803D98
:10250000E1E0787BDE007FF7879FFDE1E0787BDE0E
:1025100000FFF787BFFDE1E0787BDE00F0F787BCC6
:102520003DE1E0787BDE00F0F787BC3DE1E0787BC1
:10253000DE00F0F787BC3DE1E0787BDE00FFF7FFCF
:10254000BFFDE1E07FFBDFC0FFF7FFBFFDE1E07F04
:10255000FBDFC07CF3F39F3DE1E03E7BCFC000009A
:10256000000000000000000000FFFFFFFFFFFFFF72
:10257000FFFFFFC0FFFFFFFFFD68DB111A31C0FF47
:10258000FFFFFFFD2B5AFB6AEFC0FFFFFFFFFD4B74
:102590005B3B1A33C0FFFFFFFFFD6B5BDB6AFDC0D7
:1025A00000006000000000000000000000000000CB
:1025B00000E000000000000000000000000000013A
:1025C000E00000000000000000000000000001F03A
:1025D0000000000000000000000000000003F00008
:1025E00000000000000000000000000007F00000F4
:1025F000000000000000000000000007F8000000DC
:10260000000000000000000000000FF800000003C0
:10261000C0007E000001E0007F0FF800000003C052
:1026200000FE000001E000FFEFF800000003C00022
:10263000FE000001E000FFFFF800000003C000F012
:102640000000000F007FFE7FC0000003C000F0000C
:1026500000000F003FFE7FF83FF1FBCFFCFEF3BC14
:102660003DEFE01FFE7FFF7FFBFFDFFEFEFFBC3D77
:10267000EFE01FC6FFFF7FFBFFDFFEFEFFBC3DEF6D
:10268000E00FE3C7FE787BC3DE1EF0FFBC3DEF002A
:1026900007FF87FC787BC3DE1EF0F83C3DEF0001AE
:1026A000FFFFF0007BC3C01EF0F03C3DEF0001F3E4
:1026B0007FE03FFBC3CFFEF0F03C3DEF0003E33F84
:1026C000807FFBC3DFFEF0F03C3DEF0007E73C00FE
:1026D000787BC3DE1EF0F03C3DEF0007FFBE0078C4
:1026E0007BC3DE1EF0F03C3DEF0007FFFE00787B71
:1026F000C3DE1EF0F03C3DEF000FFFFE007FFBFF4E
:10270000DFFEF0F03FFDEFE00FFFFF007FFBFFDF9C
:10271000FEF0F03FFDEFE00FF9FF003E79F9CF9EAC
:10272000F0F01F3DE7E01FF1FF0000000000000097
:1027300000000000001F80FF007FFFFFFFFFFFFF82
:10274000FFFFFFE01C007F007FFFFFFFFEB46D88EE
:102750008D18E000001F007FFFFFFFFE95AD7DB5E7
:1027600077E000000F007FFFFFFFFEA5AD9D8D19F4
:10277000E0000006007FFFFFFFFEB5ADEDB57EE097
:10278000AED580A8D300408D2000A1C8DB40A4A610
:102790002EAF00002200FF210000000026000000F4
:1027A00000FF2F002700000000FF2F00A300000003
:1027B00029000000012F0000A30000002A000000F3
:1027C000012F000018035400650065006E007300BF
:1027D000790020004D0049004400490018035400CE
:1027E000650065006E007300790064007500690083
:1027F0006E006F000403090409029500030100C084
:1028000032080B000202020100090400000102026A
:102810000100052400100105240101010424020621
:1028200005240600010705820310001009040100B9
:10283000020A0000000705030240000007058302AA
:102840004000000904020002010300000724010007
:1028500001250006240201010006240202020009EB
:102860002403010301020100092403020401010100
:1028700000090504024000000000052501010109CE
:10288000058402400000000005250101030000004E
:1028900009029500030100C032080B000202020188
:1028A00000090400000102020100052400100105D6
:1028B0002401010104240206052406000107058203
:1028C0000310000509040100020A000000070503C7
:1028D0000200020007058302000200090402000250
:1028E0000103000007240100012500062402010164
:1028F0000006240202020009240301030102010070
:102900000924030204010101000905040200020078
:1029100000000525010101090584020002000000F4
:1029200005250101030000000A060002EF02014034
:0429300001000000A2
:102934000000000000000000000000000000000093
:102944000000000000000000000000000000000083
:10295400F8B54FF084439D695A6915400DD0254F51
:1029640001269D6195FAA5F4B4FA84F457F824304D
:1029740006FA04F49847A543F4D11F4B9D695A699C
:1029840015400DD01D4F01269D6195FAA5F4B4FAAA
:1029940084F457F8243006FA04F49847A543F4D194
:1029A400174B9D695A6915400DD0164F01269D613C
:1029B40095FAA5F4B4FA84F457F8243006FA04F42A
:1029C4009847A543F4D1104B9D695A6915400DD021
:1029D4000E4F01269D6195FAA5F4B4FA84F457F8D4
:1029E400243006FA04F49847A543F4D1BFF34F8F7B
:1029F400F8BD00BF645F002000400042E45F002097
:102A0400008000426460002000C00042E4600020B6
:102A14000548064B1B1AD90F01EBA301491002D03C
:102A2400034B03B118477047C0660020C0660020FE
:102A34000000000008B5054B1BB105490548AFF37C
:102A44000080BDE80840FFF7E3BF00BF00000000BE
:102A540010DD0320005C036000207047704700BF56
:102A6400006910B10368DB6818477047006910B14A
:102A740003681B6918477047006910B103685B69F4
:102A840018474FF0FF307047006910B103689B6925
:102A940018477047006980B10368012200B583B00C
:102AA4009B680DF10701984720B19DF8070003B01A
:102AB4005DF804FB4FF0FF30F9E74FF0FF3070474B
:102AC40000B5006983B08DF8071028B103680122AE
:102AD4000DF10701DB68984703B05DF804FB00BF04
:102AE400704700BF704700BF036D0BB101207047F2
:102AF400406D003818BF0120704700BF704700BF09
:102B040010B50446806D18B125F05EFC0023A36562
:102B1400236D2BB104F11800BDE8104017F0EEBD91
:102B2400636D002BF6D110BD10B50446806D00B165
:102B340010BD4FF4807025F03FFCA065B0B10022B9
:102B4400236D02703BB101464FF48072184617F0B2
:102B540025FAA06D10BD636D002BE9D001464FF43A
:102B64008072184614F0E6FEA06D10BD014B1846A5
:102B7400A36510BD7C04042000B5836C83B08DF87C
:102B8400071043B101220DF10701184616F03CF974
:102B940003B05DF804FBC06C0028F9D001220DF1EC
:102BA400070114F005FA03B05DF804FB38B5056DB0
:102BB4006DB10BB1002038BD1146284615F048FF11
:102BC4000028F7D02846BDE8384016F0E3B8446D35
:102BD400002CEFD0204613F0FFFA0028EAD020465C
:102BE400BDE8384014F072B98A79A2F150031B068B
:102BF40022D402F26C72F0B54B7985B0046D0133C6
:102C04000D798E784F78DBB209784CB12046019665
:102C14000095CDE90271042116F050F805B0F0BD1D
:102C2400406D0028FAD001960095CDE90271042187
:102C340014F090F805B0F0BD00207047836C13B118
:102C4400184616F035B8C06C08B113F00DBF7047C4
:102C5400836C00B583B063B101220DF107011846FE
:102C640015F0AEFC01280CD19DF8070003B05DF807
:102C740004FBC06C28B101220DF1070113F0C6F961
:102C8400F0E74FF0FF30F1E7836C13B1184615F00D
:102C94006BBDC06C08B113F089BA4FF0FF307047B8
:102CA40010B50446006D80B1037813F0700F00D1A5
:102CB40010BD002115F0CCFE606D0028F8D0002274
:102CC4000023BDE8104013F087BA606D0028EFD0F0
:102CD40090F8313013F0500FEAD000220023BDE801
:102CE400104013F079BA00BF036D10B50C4682B0E2
:102CF4002BB30DF1060201A9184615F04FFA38B3AB
:102D0400BDF80430BDF8062053EA020120D0C2F316
:102D1400451C02F01F00D20AC3F34311400084F89B
:102D240001C0A2705A0A013903F01F0302F5EA62D6
:102D34002070012061712371A27102B010BD406D39
:102D440030B10DF1060201A913F0ECF80028D7D137
:102D5400002002B010BD00BF036D10B50C4682B058
:102D64002BB30DF1060201A9184615F007FA38B382
:102D7400BDF80430BDF8062053EA020120D0C2F3A6
:102D8400451C02F01F00D20AC3F34311400084F82B
:102D940001C0A2705A0A013903F01F0302F5EA6266
:102DA4002070012061712371A27102B010BD406DC9
:102DB40030B10DF1060201A913F0A2F80028D7D111
:102DC400002002B010BD00BF836C53B1187810F01E
:102DD40008000DD0D8695B69C01A48BF6FF0004085
:102DE4007047C36CA3B193F8310010F0080000D110
:102DF4007047186919685A69401A5B6862EB0303E3
:102E0400B0F1004F73F10003F2D36FF0004070474C
:102E14001846EDE769B170B5054608460C4626F03C
:102E240007FC2B680246214628465B68BDE87040D3
:102E340018477047036D13B1586900217047436DFB
:102E440013B1D3E90001704718461946704700BF13
:102E5400036D13B1D86900217047436D13B1D3E9F1
:102E64000401704718461946704700BFF0B595B085
:102E740000224FF47A74244F1831054604A88DF8C3
:102E84000C200097CDE90124CDE9122217F0A2FC11
:102E9400129B002B2DD05C20002621F013FF019BF8
:102EA40004464660C36004A9029B183040F8083CFD
:102EB4009DF80C3000F8043C144B40F8183C144BBB
:102EC40040F8103C17F0D8FB124B4FF47A72A7600D
:102ED4002B606368A66501336E602E73AA602C6153
:102EE40063600D4B04A8009317F008FC284615B046
:102EF400F0BD139B002BCED1064A2B732A602B61A5
:102F0400C5E90134EDE700BFE83F00200C40002094
:102F140068400020AC3F0020083D0020036D13B141
:102F2400184615F021BC406D08B113F03FB94FF0BD
:102F3400FF307047036D33B11B7813F0700F14BF6B
:102F4400012000207047406D30B190F8313013F00B
:102F5400500F14BF01200020704700BF036D13B150
:102F6400184615F02DBB406D08B113F04FB84FF063
:102F7400FF307047036D13B1184615F099BE406DCC
:102F840008B113F071BD704738B504460C4B806D21
:102F9400236018B125F018FA0023A365236D04F10A
:102FA40018054BB1284617F0A9FB064B2846A36029
:102FB40017F0A4FB204638BD636D002BF2D1F4E773
:102FC4000C400020083D0020036D13B1184615F095
:102FD4001BBF406D08B113F0EBBF7047836C13B196
:102FE400184615F011BFC06C08B113F0E1BF70476B
:102FF4008A79A2F150031B0622D402F26C72F0B556
:103004004B7985B0046D01330D798E784F78DBB23E
:1030140009784CB1204601960095CDE90271022150
:1030240015F04CFE05B0F0BD406D0028FAD00196B5
:103034000095CDE90271022113F08CFE05B0F0BDBC
:103044000020704738B504460E4B806D236018B1DC
:1030540025F0BAF90023A365236D04F118056BB1BB
:10306400284617F04BFB084B2846A36017F046FB95
:1030740020465C2121F028FE204638BD636D002BDC
:10308400EED1F0E70C400020083D0020036D53B161
:10309400187810F008000DD0D8695B69C01A48BFD1
:1030A4006FF000407047436DA3B193F8310010F006
:1030B400080000D17047186919685A69401A5B689A
:1030C40062EB0303B0F1004F73F10003F2D36FF02E
:1030D400004070471846EDE730B4029C11469C4608
:1030E40034B1012C1CD0022C0ED0002030BC70470F
:1030F400056DF5B14FF0FF33934274EB0C04F4D338
:10310400284630BC15F0A4BC026D0AB3D369591823
:103114004CF10003002BE8D1104630BC15F098BCEC
:10312400026D62B1536959184CF10003002BDCD1D4
:10313400F2E7406D0028D8D030BC13F04DB8406D94
:103144000028D2D0D0E900238A184CEB0303F3E71C
:10315400406D0028C9D0D0E9042330BC8A184CEB58
:10316400030313F039B800BF38B5044649B1084623
:103174000D4626F05DFA2368024629465B68204620
:1031840098472046BDE8384020F040BE10B5094BB2
:1031940004460069236058B14368013B43603BB96E
:1031A4000368DB6A9847206910B103685B68984735
:1031B400204610BDAC3F002010B50B4B04460069FF
:1031C400236058B14368013B43603BB90368DB6A41
:1031D4009847206910B103685B689847204614211A
:1031E40021F072FD204610BDAC3F0020214B5A6BEC
:1031F400D2E90010D3680968006810B418429468D2
:1032040001EA04012ED0137C03F00303D9B943F07F
:1032140008039908013B11740D2B0BD8DFE803F068
:103224000D071C070A160D0D160A071C070D536916
:10323400013B53615DF8044B704753695DF8044BDF
:1032440001335361704743F00403E0E753695DF8C9
:10325400044B023B5361704753695DF8044B0233DE
:1032640053617047137C03F003030029D1D043F06A
:103274000403CEE7049A0020224BD3F8D420D2E9E9
:103284000010D3680968006810B41842946801EA11
:1032940004012ED0137C03F00303D9B943F00803CF
:1032A4009908013B11740D2B0BD8DFE803F00D07CF
:1032B4001C070A160D0D160A071C070D5369013B5E
:1032C40053615DF8044B704753695DF8044B013357
:1032D4005361704743F00403E0E753695DF8044B1E
:1032E400023B5361704753695DF8044B02335361E9
:1032F4007047137C03F003030029D1D043F0040387
:10330400CEE700BF049A0020224BD3F8D820D2E99C
:103314000010D3680968006810B41842946801EA80
:1033240004012ED0137C03F00303D9B943F008033E
:103334009908013B11740D2B0BD8DFE803F00D073E
:103344001C070A160D0D160A071C070D5369013BCD
:1033540053615DF8044B704753695DF8044B0133C6
:103364005361704743F00403E0E753695DF8044B8D
:10337400023B5361704753695DF8044B0233536158
:103384007047137C03F003030029D1D043F00403F6
:10339400CEE700BF049A0020214B5A68D2E90010FE
:1033A400D3680968006810B41842946801EA0401FB
:1033B4002ED0137C03F00303D9B943F00803990812
:1033C400013B11740D2B0BD8DFE803F00D071C072C
:1033D4000A160D0D160A071C070D5369013B5361AC
:1033E4005DF8044B704753695DF8044B0133536136
:1033F400704743F00403E0E753695DF8044B023B74
:103404005361704753695DF8044B0233536170474D
:10341400137C03F003030029D1D043F00403CEE767
:10342400049A0020214B9A68D2E90010D3680968F5
:10343400006810B41842946801EA04012ED0137C89
:1034440003F00303D9B943F008039908013B11744D
:103454000D2B0BD8DFE803F00D071C070A160D0D22
:10346400160A071C070D5369013B53615DF8044BB1
:10347400704753695DF8044B01335361704743F05F
:103484000403E0E753695DF8044B023B5361704762
:1034940053695DF8044B023353617047137C03F0A6
:1034A40003030029D1D043F00403CEE7049A00209B
:1034B400214BDA68D2E90010D3680968006810B4B7
:1034C4001842946801EA04012ED0137C03F003032C
:1034D400D9B943F008039908013B11740D2B0BD89B
:1034E400DFE803F00D071C070A160D0D160A071C6A
:1034F400070D5369013B53615DF8044B70475369F1
:103504005DF8044B01335361704743F00403E0E773
:1035140053695DF8044B023B5361704753695DF88E
:10352400044B023353617047137C03F003030029F7
:10353400D1D043F00403CEE7049A0020214B1A694A
:10354400D2E90010D3680968006810B4184294687E
:1035540001EA04012ED0137C03F00303D9B943F02C
:1035640008039908013B11740D2B0BD8DFE803F015
:103574000D071C070A160D0D160A071C070D5369C3
:10358400013B53615DF8044B704753695DF8044B8C
:1035940001335361704743F00403E0E753695DF876
:1035A400044B023B5361704753695DF8044B02338B
:1035B40053617047137C03F003030029D1D043F017
:1035C4000403CEE7049A0020214B5A6FD2E900107D
:1035D400D3680968006810B41842946801EA0401C9
:1035E4002ED0137C03F00303D9B943F008039908E0
:1035F400013B11740D2B0BD8DFE803F00D071C07FA
:103604000A160D0D160A071C070D5369013B536179
:103614005DF8044B704753695DF8044B0133536103
:10362400704743F00403E0E753695DF8044B023B41
:103634005361704753695DF8044B0233536170471B
:10364400137C03F003030029D1D043F00403CEE735
:10365400049A0020214B9A6FD2E90010D3680968BC
:10366400006810B41842946801EA04012ED0137C57
:1036740003F00303D9B943F008039908013B11741B
:103684000D2B0BD8DFE803F00D071C070A160D0DF0
:10369400160A071C070D5369013B53615DF8044B7F
:1036A400704753695DF8044B01335361704743F02D
:1036B4000403E0E753695DF8044B023B5361704730
:1036C40053695DF8044B023353617047137C03F074
:1036D40003030029D1D043F00403CEE7049A002069
:1036E400214BDA6FD2E90010D3680968006810B47E
:1036F4001842946801EA04012ED0137C03F00303FA
:10370400D9B943F008039908013B11740D2B0BD868
:10371400DFE803F00D071C070A160D0D160A071C37
:10372400070D5369013B53615DF8044B70475369BE
:103734005DF8044B01335361704743F00403E0E741
:1037440053695DF8044B023B5361704753695DF85C
:10375400044B023353617047137C03F003030029C5
:10376400D1D043F00403CEE7049A0020224BD3F8CF
:103774008020D2E90010D3680968006810B41842A8
:10378400946801EA04012ED0137C03F00303D9B931
:1037940043F008039908013B11740D2B0BD8DFE8A3
:1037A40003F00D071C070A160D0D160A071C070D5A
:1037B4005369013B53615DF8044B704753695DF8ED
:1037C400044B01335361704743F00403E0E753694A
:1037D4005DF8044B023B5361704753695DF8044B39
:1037E400023353617047137C03F003030029D1D0E3
:1037F40043F00403CEE700BF049A0020224BD3F821
:103804008420D2E90010D3680968006810B4184213
:10381400946801EA04012ED0137C03F00303D9B9A0
:1038240043F008039908013B11740D2B0BD8DFE812
:1038340003F00D071C070A160D0D160A071C070DC9
:103844005369013B53615DF8044B704753695DF85C
:10385400044B01335361704743F00403E0E75369B9
:103864005DF8044B023B5361704753695DF8044BA8
:10387400023353617047137C03F003030029D1D052
:1038840043F00403CEE700BF049A0020224BD3F890
:103894008820D2E90010D3680968006810B418427F
:1038A400946801EA04012ED0137C03F00303D9B910
:1038B40043F008039908013B11740D2B0BD8DFE882
:1038C40003F00D071C070A160D0D160A071C070D39
:1038D4005369013B53615DF8044B704753695DF8CC
:1038E400044B01335361704743F00403E0E7536929
:1038F4005DF8044B023B5361704753695DF8044B18
:10390400023353617047137C03F003030029D1D0C1
:1039140043F00403CEE700BF049A0020224BD3F8FF
:103924008C20D2E90010D3680968006810B41842EA
:10393400946801EA04012ED0137C03F00303D9B97F
:1039440043F008039908013B11740D2B0BD8DFE8F1
:1039540003F00D071C070A160D0D160A071C070DA8
:103964005369013B53615DF8044B704753695DF83B
:10397400044B01335361704743F00403E0E7536998
:103984005DF8044B023B5361704753695DF8044B87
:10399400023353617047137C03F003030029D1D031
:1039A40043F00403CEE700BF049A0020224BD3F86F
:1039B4009020D2E90010D3680968006810B4184256
:1039C400946801EA04012ED0137C03F00303D9B9EF
:1039D40043F008039908013B11740D2B0BD8DFE861
:1039E40003F00D071C070A160D0D160A071C070D18
:1039F4005369013B53615DF8044B704753695DF8AB
:103A0400044B01335361704743F00403E0E7536907
:103A14005DF8044B023B5361704753695DF8044BF6
:103A2400023353617047137C03F003030029D1D0A0
:103A340043F00403CEE700BF049A0020224BD3F8DE
:103A44009420D2E90010D3680968006810B41842C1
:103A5400946801EA04012ED0137C03F00303D9B95E
:103A640043F008039908013B11740D2B0BD8DFE8D0
:103A740003F00D071C070A160D0D160A071C070D87
:103A84005369013B53615DF8044B704753695DF81A
:103A9400044B01335361704743F00403E0E7536977
:103AA4005DF8044B023B5361704753695DF8044B66
:103AB400023353617047137C03F003030029D1D010
:103AC40043F00403CEE700BF049A0020224BD3F84E
:103AD4009820D2E90010D3680968006810B418422D
:103AE400946801EA04012ED0137C03F00303D9B9CE
:103AF40043F008039908013B11740D2B0BD8DFE840
:103B040003F00D071C070A160D0D160A071C070DF6
:103B14005369013B53615DF8044B704753695DF889
:103B2400044B01335361704743F00403E0E75369E6
:103B34005DF8044B023B5361704753695DF8044BD5
:103B4400023353617047137C03F003030029D1D07F
:103B540043F00403CEE700BF049A0020224BD3F8BD
:103B64009C20D2E90010D3680968006810B4184298
:103B7400946801EA04012ED0137C03F00303D9B93D
:103B840043F008039908013B11740D2B0BD8DFE8AF
:103B940003F00D071C070A160D0D160A071C070D66
:103BA4005369013B53615DF8044B704753695DF8F9
:103BB400044B01335361704743F00403E0E7536956
:103BC4005DF8044B023B5361704753695DF8044B45
:103BD400023353617047137C03F003030029D1D0EF
:103BE40043F00403CEE700BF049A0020224BD3F82D
:103BF400A020D2E90010D3680968006810B4184204
:103C0400946801EA04012ED0137C03F00303D9B9AC
:103C140043F008039908013B11740D2B0BD8DFE81E
:103C240003F00D071C070A160D0D160A071C070DD5
:103C34005369013B53615DF8044B704753695DF868
:103C4400044B01335361704743F00403E0E75369C5
:103C54005DF8044B023B5361704753695DF8044BB4
:103C6400023353617047137C03F003030029D1D05E
:103C740043F00403CEE700BF049A0020224BD3F89C
:103C8400A420D2E90010D3680968006810B418426F
:103C9400946801EA04012ED0137C03F00303D9B91C
:103CA40043F008039908013B11740D2B0BD8DFE88E
:103CB40003F00D071C070A160D0D160A071C070D45
:103CC4005369013B53615DF8044B704753695DF8D8
:103CD400044B01335361704743F00403E0E7536935
:103CE4005DF8044B023B5361704753695DF8044B24
:103CF400023353617047137C03F003030029D1D0CE
:103D040043F00403CEE700BF049A0020224BD3F80B
:103D1400A820D2E90010D3680968006810B41842DA
:103D2400946801EA04012ED0137C03F00303D9B98B
:103D340043F008039908013B11740D2B0BD8DFE8FD
:103D440003F00D071C070A160D0D160A071C070DB4
:103D54005369013B53615DF8044B704753695DF847
:103D6400044B01335361704743F00403E0E75369A4
:103D74005DF8044B023B5361704753695DF8044B93
:103D8400023353617047137C03F003030029D1D03D
:103D940043F00403CEE700BF049A0020224BD3F87B
:103DA400AC20D2E90010D3680968006810B4184246
:103DB400946801EA04012ED0137C03F00303D9B9FB
:103DC40043F008039908013B11740D2B0BD8DFE86D
:103DD40003F00D071C070A160D0D160A071C070D24
:103DE4005369013B53615DF8044B704753695DF8B7
:103DF400044B01335361704743F00403E0E7536914
:103E04005DF8044B023B5361704753695DF8044B02
:103E1400023353617047137C03F003030029D1D0AC
:103E240043F00403CEE700BF049A0020224BD3F8EA
:103E3400B020D2E90010D3680968006810B41842B1
:103E4400946801EA04012ED0137C03F00303D9B96A
:103E540043F008039908013B11740D2B0BD8DFE8DC
:103E640003F00D071C070A160D0D160A071C070D93
:103E74005369013B53615DF8044B704753695DF826
:103E8400044B01335361704743F00403E0E7536983
:103E94005DF8044B023B5361704753695DF8044B72
:103EA400023353617047137C03F003030029D1D01C
:103EB40043F00403CEE700BF049A0020214B5A6D5F
:103EC400D2E90010D3680968006810B418429468F5
:103ED40001EA04012ED0137C03F00303D9B943F0A3
:103EE40008039908013B11740D2B0BD8DFE803F08C
:103EF4000D071C070A160D0D160A071C070D53693A
:103F0400013B53615DF8044B704753695DF8044B02
:103F140001335361704743F00403E0E753695DF8EC
:103F2400044B023B5361704753695DF8044B023301
:103F340053617047137C03F003030029D1D043F08D
:103F44000403CEE7049A0020214B9A6DD2E90010B5
:103F5400D3680968006810B41842946801EA04013F
:103F64002ED0137C03F00303D9B943F00803990856
:103F7400013B11740D2B0BD8DFE803F00D071C0770
:103F84000A160D0D160A071C070D5369013B5361F0
:103F94005DF8044B704753695DF8044B013353617A
:103FA400704743F00403E0E753695DF8044B023BB8
:103FB4005361704753695DF8044B02335361704792
:103FC400137C03F003030029D1D043F00403CEE7AC
:103FD400049A0020214BDA6DD2E90010D3680968F5
:103FE400006810B41842946801EA04012ED0137CCE
:103FF40003F00303D9B943F008039908013B117492
:104004000D2B0BD8DFE803F00D071C070A160D0D66
:10401400160A071C070D5369013B53615DF8044BF5
:10402400704753695DF8044B01335361704743F0A3
:104034000403E0E753695DF8044B023B53617047A6
:1040440053695DF8044B023353617047137C03F0EA
:1040540003030029D1D043F00403CEE7049A0020DF
:10406400214B1A6ED2E90010D3680968006810B4B5
:104074001842946801EA04012ED0137C03F0030370
:10408400D9B943F008039908013B11740D2B0BD8DF
:10409400DFE803F00D071C070A160D0D160A071CAE
:1040A400070D5369013B53615DF8044B7047536935
:1040B4005DF8044B01335361704743F00403E0E7B8
:1040C40053695DF8044B023B5361704753695DF8D3
:1040D400044B023353617047137C03F0030300293C
:1040E400D1D043F00403CEE7049A0020214B5A6E4A
:1040F400D2E90010D3680968006810B418429468C3
:1041040001EA04012ED0137C03F00303D9B943F070
:1041140008039908013B11740D2B0BD8DFE803F059
:104124000D071C070A160D0D160A071C070D536907
:10413400013B53615DF8044B704753695DF8044BD0
:1041440001335361704743F00403E0E753695DF8BA
:10415400044B023B5361704753695DF8044B0233CF
:1041640053617047137C03F003030029D1D043F05B
:104174000403CEE7049A0020214B9A6ED2E9001082
:10418400D3680968006810B41842946801EA04010D
:104194002ED0137C03F00303D9B943F00803990824
:1041A400013B11740D2B0BD8DFE803F00D071C073E
:1041B4000A160D0D160A071C070D5369013B5361BE
:1041C4005DF8044B704753695DF8044B0133536148
:1041D400704743F00403E0E753695DF8044B023B86
:1041E4005361704753695DF8044B02335361704760
:1041F400137C03F003030029D1D043F00403CEE77A
:10420400049A0020214BDA6ED2E90010D3680968C1
:10421400006810B41842946801EA04012ED0137C9B
:1042240003F00303D9B943F008039908013B11745F
:104234000D2B0BD8DFE803F00D071C070A160D0D34
:10424400160A071C070D5369013B53615DF8044BC3
:10425400704753695DF8044B01335361704743F071
:104264000403E0E753695DF8044B023B5361704774
:1042740053695DF8044B023353617047137C03F0B8
:1042840003030029D1D043F00403CEE7049A0020AD
:10429400214B1A6FD2E90010D3680968006810B482
:1042A4001842946801EA04012ED0137C03F003033E
:1042B400D9B943F008039908013B11740D2B0BD8AD
:1042C400DFE803F00D071C070A160D0D160A071C7C
:1042D400070D5369013B53615DF8044B7047536903
:1042E4005DF8044B01335361704743F00403E0E786
:1042F40053695DF8044B023B5361704753695DF8A1
:10430400044B023353617047137C03F00303002909
:10431400D1D043F00403CEE7049A0020214B5A6C19
:10432400D2E90010D3680968006810B41842946890
:1043340001EA04012ED0137C03F00303D9B943F03E
:1043440008039908013B11740D2B0BD8DFE803F027
:104354000D071C070A160D0D160A071C070D5369D5
:10436400013B53615DF8044B704753695DF8044B9E
:1043740001335361704743F00403E0E753695DF888
:10438400044B023B5361704753695DF8044B02339D
:1043940053617047137C03F003030029D1D043F029
:1043A4000403CEE7049A0020214B9A6CD2E9001052
:1043B400D3680968006810B41842946801EA0401DB
:1043C4002ED0137C03F00303D9B943F008039908F2
:1043D400013B11740D2B0BD8DFE803F00D071C070C
:1043E4000A160D0D160A071C070D5369013B53618C
:1043F4005DF8044B704753695DF8044B0133536116
:10440400704743F00403E0E753695DF8044B023B53
:104414005361704753695DF8044B0233536170472D
:10442400137C03F003030029D1D043F00403CEE747
:10443400049A0020214BDA6CD2E90010D368096891
:10444400006810B41842946801EA04012ED0137C69
:1044540003F00303D9B943F008039908013B11742D
:104464000D2B0BD8DFE803F00D071C070A160D0D02
:10447400160A071C070D5369013B53615DF8044B91
:10448400704753695DF8044B01335361704743F03F
:104494000403E0E753695DF8044B023B5361704742
:1044A40053695DF8044B023353617047137C03F086
:1044B40003030029D1D043F00403CEE7049A00207B
:1044C400214B1A6DD2E90010D3680968006810B452
:1044D4001842946801EA04012ED0137C03F003030C
:1044E400D9B943F008039908013B11740D2B0BD87B
:1044F400DFE803F00D071C070A160D0D160A071C4A
:10450400070D5369013B53615DF8044B70475369D0
:104514005DF8044B01335361704743F00403E0E753
:1045240053695DF8044B023B5361704753695DF86E
:10453400044B023353617047137C03F003030029D7
:10454400D1D043F00403CEE7049A0020214BDA6B68
:10455400D2E90010D3680968006810B4184294685E
:1045640001EA04012ED0137C03F00303D9B943F00C
:1045740008039908013B11740D2B0BD8DFE803F0F5
:104584000D071C070A160D0D160A071C070D5369A3
:10459400013B53615DF8044B704753695DF8044B6C
:1045A40001335361704743F00403E0E753695DF856
:1045B400044B023B5361704753695DF8044B02336B
:1045C40053617047137C03F003030029D1D043F0F7
:1045D4000403CEE7049A0020214B1A6CD2E90010A0
:1045E400D3680968006810B41842946801EA0401A9
:1045F4002ED0137C03F00303D9B943F008039908C0
:10460400013B11740D2B0BD8DFE803F00D071C07D9
:104614000A160D0D160A071C070D5369013B536159
:104624005DF8044B704753695DF8044B01335361E3
:10463400704743F00403E0E753695DF8044B023B21
:104644005361704753695DF8044B023353617047FB
:10465400137C03F003030029D1D043F00403CEE715
:10466400049A0020214B9A6BD2E90010D3680968A0
:10467400006810B41842946801EA04012ED0137C37
:1046840003F00303D9B943F008039908013B1174FB
:104694000D2B0BD8DFE803F00D071C070A160D0DD0
:1046A400160A071C070D5369013B53615DF8044B5F
:1046B400704753695DF8044B01335361704743F00D
:1046C4000403E0E753695DF8044B023B5361704710
:1046D40053695DF8044B023353617047137C03F054
:1046E40003030029D1D043F00403CEE7049A002049
:1046F400214B5A69D2E90010D3680968006810B4E4
:104704001842946801EA04012ED0137C03F00303D9
:10471400D9B943F008039908013B11740D2B0BD848
:10472400DFE803F00D071C070A160D0D160A071C17
:10473400070D5369013B53615DF8044B704753699E
:104744005DF8044B01335361704743F00403E0E721
:1047540053695DF8044B023B5361704753695DF83C
:10476400044B023353617047137C03F003030029A5
:10477400D1D043F00403CEE7049A0020214B9A6978
:10478400D2E90010D3680968006810B4184294682C
:1047940001EA04012ED0137C03F00303D9B943F0DA
:1047A40008039908013B11740D2B0BD8DFE803F0C3
:1047B4000D071C070A160D0D160A071C070D536971
:1047C400013B53615DF8044B704753695DF8044B3A
:1047D40001335361704743F00403E0E753695DF824
:1047E400044B023B5361704753695DF8044B023339
:1047F40053617047137C03F003030029D1D043F0C5
:104804000403CEE7049A0020214BDA69D2E90010B0
:10481400D3680968006810B41842946801EA040176
:104824002ED0137C03F00303D9B943F0080399088D
:10483400013B11740D2B0BD8DFE803F00D071C07A7
:104844000A160D0D160A071C070D5369013B536127
:104854005DF8044B704753695DF8044B01335361B1
:10486400704743F00403E0E753695DF8044B023BEF
:104874005361704753695DF8044B023353617047C9
:10488400137C03F003030029D1D043F00403CEE7E3
:10489400049A0020214B1A6AD2E90010D3680968EF
:1048A400006810B41842946801EA04012ED0137C05
:1048B40003F00303D9B943F008039908013B1174C9
:1048C4000D2B0BD8DFE803F00D071C070A160D0D9E
:1048D400160A071C070D5369013B53615DF8044B2D
:1048E400704753695DF8044B01335361704743F0DB
:1048F4000403E0E753695DF8044B023B53617047DE
:1049040053695DF8044B023353617047137C03F021
:1049140003030029D1D043F00403CEE7049A002016
:10492400214B5A6AD2E90010D3680968006810B4B0
:104934001842946801EA04012ED0137C03F00303A7
:10494400D9B943F008039908013B11740D2B0BD816
:10495400DFE803F00D071C070A160D0D160A071CE5
:10496400070D5369013B53615DF8044B704753696C
:104974005DF8044B01335361704743F00403E0E7EF
:1049840053695DF8044B023B5361704753695DF80A
:10499400044B023353617047137C03F00303002973
:1049A400D1D043F00403CEE7049A0020214B9A6A45
:1049B400D2E90010D3680968006810B418429468FA
:1049C40001EA04012ED0137C03F00303D9B943F0A8
:1049D40008039908013B11740D2B0BD8DFE803F091
:1049E4000D071C070A160D0D160A071C070D53693F
:1049F400013B53615DF8044B704753695DF8044B08
:104A040001335361704743F00403E0E753695DF8F1
:104A1400044B023B5361704753695DF8044B023306
:104A240053617047137C03F003030029D1D043F092
:104A34000403CEE7049A0020214BDA6AD2E900107D
:104A4400D3680968006810B41842946801EA040144
:104A54002ED0137C03F00303D9B943F0080399085B
:104A6400013B11740D2B0BD8DFE803F00D071C0775
:104A74000A160D0D160A071C070D5369013B5361F5
:104A84005DF8044B704753695DF8044B013353617F
:104A9400704743F00403E0E753695DF8044B023BBD
:104AA4005361704753695DF8044B02335361704797
:104AB400137C03F003030029D1D043F00403CEE7B1
:104AC400049A0020214B1A6BD2E90010D3680968BC
:104AD400006810B41842946801EA04012ED0137CD3
:104AE40003F00303D9B943F008039908013B117497
:104AF4000D2B0BD8DFE803F00D071C070A160D0D6C
:104B0400160A071C070D5369013B53615DF8044BFA
:104B1400704753695DF8044B01335361704743F0A8
:104B24000403E0E753695DF8044B023B53617047AB
:104B340053695DF8044B023353617047137C03F0EF
:104B440003030029D1D043F00403CEE7049A0020E4
:104B5400224BD3F8B420D2E90010D3680968006866
:104B640010B41842946801EA04012ED0137C03F0B7
:104B74000303D9B943F008039908013B11740D2BC1
:104B84000BD8DFE803F00D071C070A160D0D160AF3
:104B9400071C070D5369013B53615DF8044B7047D3
:104BA40053695DF8044B01335361704743F00403C8
:104BB400E0E753695DF8044B023B53617047536966
:104BC4005DF8044B023353617047137C03F0030315
:104BD4000029D1D043F00403CEE700BF049A00209B
:104BE400224BD3F8B820D2E90010D36809680068D2
:104BF40010B41842946801EA04012ED0137C03F027
:104C04000303D9B943F008039908013B11740D2B30
:104C14000BD8DFE803F00D071C070A160D0D160A62
:104C2400071C070D5369013B53615DF8044B704742
:104C340053695DF8044B01335361704743F0040337
:104C4400E0E753695DF8044B023B536170475369D5
:104C54005DF8044B023353617047137C03F0030384
:104C64000029D1D043F00403CEE700BF049A00200A
:104C7400224BD3F8BC20D2E90010D368096800683D
:104C840010B41842946801EA04012ED0137C03F096
:104C94000303D9B943F008039908013B11740D2BA0
:104CA4000BD8DFE803F00D071C070A160D0D160AD2
:104CB400071C070D5369013B53615DF8044B7047B2
:104CC40053695DF8044B01335361704743F00403A7
:104CD400E0E753695DF8044B023B53617047536945
:104CE4005DF8044B023353617047137C03F00303F4
:104CF4000029D1D043F00403CEE700BF049A00207A
:104D0400224BD3F8C020D2E90010D36809680068A8
:104D140010B41842946801EA04012ED0137C03F005
:104D24000303D9B943F008039908013B11740D2B0F
:104D34000BD8DFE803F00D071C070A160D0D160A41
:104D4400071C070D5369013B53615DF8044B704721
:104D540053695DF8044B01335361704743F0040316
:104D6400E0E753695DF8044B023B536170475369B4
:104D74005DF8044B023353617047137C03F0030363
:104D84000029D1D043F00403CEE700BF049A0020E9
:104D9400224BD3F8C420D2E90010D3680968006814
:104DA40010B41842946801EA04012ED0137C03F075
:104DB4000303D9B943F008039908013B11740D2B7F
:104DC4000BD8DFE803F00D071C070A160D0D160AB1
:104DD400071C070D5369013B53615DF8044B704791
:104DE40053695DF8044B01335361704743F0040386
:104DF400E0E753695DF8044B023B53617047536924
:104E04005DF8044B023353617047137C03F00303D2
:104E14000029D1D043F00403CEE700BF049A002058
:104E2400224BD3F8C820D2E90010D368096800687F
:104E340010B41842946801EA04012ED0137C03F0E4
:104E44000303D9B943F008039908013B11740D2BEE
:104E54000BD8DFE803F00D071C070A160D0D160A20
:104E6400071C070D5369013B53615DF8044B704700
:104E740053695DF8044B01335361704743F00403F5
:104E8400E0E753695DF8044B023B53617047536993
:104E94005DF8044B023353617047137C03F0030342
:104EA4000029D1D043F00403CEE700BF049A0020C8
:104EB400224BD3F8CC20D2E90010D36809680068EB
:104EC40010B41842946801EA04012ED0137C03F054
:104ED4000303D9B943F008039908013B11740D2B5E
:104EE4000BD8DFE803F00D071C070A160D0D160A90
:104EF400071C070D5369013B53615DF8044B704770
:104F040053695DF8044B01335361704743F0040364
:104F1400E0E753695DF8044B023B53617047536902
:104F24005DF8044B023353617047137C03F00303B1
:104F34000029D1D043F00403CEE700BF049A002037
:104F4400224BD3F8D020D2E90010D3680968006856
:104F540010B41842946801EA04012ED0137C03F0C3
:104F64000303D9B943F008039908013B11740D2BCD
:104F74000BD8DFE803F00D071C070A160D0D160AFF
:104F8400071C070D5369013B53615DF8044B7047DF
:104F940053695DF8044B01335361704743F00403D4
:104FA400E0E753695DF8044B023B53617047536972
:104FB4005DF8044B023353617047137C03F0030321
:104FC4000029D1D043F00403CEE700BF049A0020A7
:104FD400214B1A68D2E90010D3680968006810B43C
:104FE4001842946801EA04012ED0137C03F00303F1
:104FF400D9B943F008039908013B11740D2B0BD860
:10500400DFE803F00D071C070A160D0D160A071C2E
:10501400070D5369013B53615DF8044B70475369B5
:105024005DF8044B01335361704743F00403E0E738
:1050340053695DF8044B023B5361704753695DF853
:10504400044B023353617047137C03F003030029BC
:10505400D1D043F00403CEE7049A00200B4610B5E8
:10506400362800F29782DFE810F08C02820279027F
:10507400700267025E0255024C0243023A02310298
:1050840028021F02BF01B601AD01A4019B019201D8
:105094008901800177016E0165015C0153014A01B8
:1050A400410138012F0126011D0113010901FF00EF
:1050B400F500EB00E100D700CD00C300B900AF005C
:1050C400A5009B00910087007D00730069005F00CC
:1050D40055004B0041003700C84C0422C849362013
:1050E400C4F8D8301FF0CAFC012010BDC34C042200
:1050F400C4493520C4F8D4301FF0C0FC012010BDD1
:10510400BE4C0422C0493420C4F8D0301FF0B6FC91
:10511400012010BDB94C0422BC493320C4F8CC3062
:105124001FF0ACFC012010BDB44C0422B84932205D
:10513400C4F8C8301FF0A2FC012010BDAF4C0422FB
:10514400B4493120C4F8C4301FF098FC012010BDCC
:10515400AA4C0422B0493020C4F8C0301FF08EFCA1
:10516400012010BDA54C0422AC492F20C4F8BC304A
:105174001FF084FC012010BDA04C0422A8492E205D
:10518400C4F8B8301FF07AFC012010BD9B4C0422F7
:10519400A4492D20C4F8B4301FF070FC012010BDC8
:1051A400964C0422A0492C20C4F8B0301FF066FCB1
:1051B400012010BD914C04229C492B20C4F8AC3032
:1051C4001FF05CFC012010BD8C4C042298492A205D
:1051D400C4F8A8301FF052FC012010BD874C0422F3
:1051E40094492920C4F8A4301FF048FC012010BDC4
:1051F400824C042290492820C4F8A0301FF03EFCC1
:10520400012010BD7D4C04228C492720C4F89C3019
:105214001FF034FC012010BD784C0422884926205C
:10522400C4F898301FF02AFC012010BD734C0422EE
:1052340084492520C4F894301FF020FC012010BDBF
:105244006E4C042280492420C4F890301FF016FCD0
:10525400012010BD694C04227C492320C4F88C3001
:105264001FF00CFC012010BD644C0422784922205C
:10527400C4F888301FF002FC012010BD5F4C0422EA
:1052840074492120C4F884301FF0F8FB012010BDBC
:105294005A4C042270492020C4F880301FF0EEFBE1
:1052A400012010BD554C04226C491F20E3671FF0F8
:1052B400E5FB012010BD514C042269491E20A3675F
:1052C4001FF0DCFB012010BD4C4C042265491D205D
:1052D40063671FF0D3FB012010BD484C04226249D0
:1052E4001C2023671FF0CAFB012010BD434C04227D
:1052F4005E491B20E3661FF0C1FB012010BD3F4C3B
:1053040004225B491A20A3661FF0B8FB012010BDDC
:105314003A4C04225749192063661FF0AFFB012061
:1053240010BD364C04225449182023661FF0A6FBF6
:10533400012010BD314C042250491720E3651FF0B1
:105344009DFB012010BD2D4C04224D491620A36560
:105354001FF094FB012010BD284C0422494915205C
:1053640063651FF08BFB012010BD244C04224649C9
:10537400142023651FF082FB012010BD1F4C042262
:1053840042491320E3641FF079FB012010BD1B4C3C
:1053940004223F491220A3641FF070FB012010BDBA
:1053A400164C04223B49112063641FF067FB012063
:1053B40010BD124C04223849102023641FF05EFBF8
:1053C400012010BD0D4C042234490F20E3631FF06B
:1053D40055FB012010BD094C042231490E20A36362
:1053E4001FF04CFB012010BD044C04222D490D205C
:1053F40063631FF043FB012010BD00BF049A00202B
:10540400D909000049090000112600008125000087
:10541400F124000061240000D12300004123000096
:10542400B122000021220000FD1400006D140000D0
:10543400DD1300004D130000BD1200002D1200000A
:105444009D1100000D1100007D100000ED0F000003
:105454005D0F0000CD0E00003D0E0000B10D0000F8
:10546400250D0000990C000061190000D5180000FA
:1054740049180000BD17000031170000A5160000F0
:10548400191600008D150000911B0000051B00007B
:10549400791A0000ED190000A91C00001D1C000071
:1054A400351D0000BD0800003B4C04223B490C2084
:1054B40023631FF0E3FA012010BD374C042238495E
:1054C4000B20E3621FF0DAFA012010BD324C0422F3
:1054D40034490A20A3621FF0D1FA012010BD2E4CDA
:1054E40004223149092063621FF0C8FA012010BD6B
:1054F400294C04222D49082023621FF0BFFA012001
:1055040010BD254C04222A490720E3611FF0B6FA96
:10551400012010BD204C042226490620A3611FF05F
:10552400ADFA012010BD1C4C0422234905206361FF
:105534001FF0A4FA012010BD0422174C1F49104685
:1055440023611FF09BFA012010BD134C04221C4957
:105554000320E3601FF092FA012010BD0E4C0422D8
:1055640018490220A3601FF089FA012010BD0446E7
:10557400094804221449436001201FF07FFA2046A1
:1055840010BD054C04221149002023601FF076FA57
:10559400012010BD002010BD049A002095210000B8
:1055A400092100007D200000F11F0000651F00009C
:1055B400D91E00004D1E0000C11D00000D0C00008E
:1055C400810B0000F50A0000690A0000A126000012
:1055D40010B584B00446039102921DF039FD0022F7
:1055E4002046DDE9023100921DF0A6FD204604B0FC
:1055F40010BD00BF10B50023044610460D4A617269
:1056040023722260C4E9033019B18A00194623F0D9
:1056140093FD094A136853B11A465B69002BFBD109
:1056240054610023204663616360A37210BD14605B
:10563400F7E700BF383D00206898002003460022A9
:10564400144910B4144C43F8344B4FF40074C0E9BB
:1056540003230B680481C0E90D22CBB11A465B69B0
:10566400002BFBD150610D4900230D4A0D4C016004
:105674004FF4805182610C4A436143608372C0E9F4
:105684000741C0E909235DF8044BC0E90B337047B7
:105694000860E8E768980020383D0020883F002033
:1056A40090298F0460EA8E0480F9855A002203460B
:1056B40013494FF4806C10B4124C43F8284BA0F8F3
:1056C40008C0C0E903230B68C0E90A22C0E90C2220
:1056D4009BB11A465B69002BFBD1506100224FF449
:1056E400803309495DF8044B426142608272016073
:1056F400C0E90633C0E9083370470860EEE700BF2D
:1057040068980020383D00202C3D002038B5002248
:10571400044603461549164D4FF4007043F8185BD0
:105724002081C4E903230B68C4E90622DBB11A46CD
:105734005B69002BFBD1546100230E494FF40042F6
:1057440004F50F7063616360A37221602363C4F87E
:105754003432A4F83832C4E90833C4E90A231CF00B
:105764004BFF204638BD0C60E6E700BF6898002078
:10577400383D0020A03F00200D49002210B40B68E2
:105784000C4C026104600281C2607BB11A465B6901
:10579400002BFBD150610023074A5DF8044B4361A1
:1057A4004360837202600376C36170470860F2E766
:1057B40068980020383D0020483F0020F5EEC00ADC
:1057C400F7EE007AF1EE10FAB4EEE70A4AD9F1EEF8
:1057D40010FA28DD3A4ADFED3B7A60EEA70AFDEEC7
:1057E400E07A17EE903ABBB372B6C1690262914295
:1057F40060D010B481FAA2F4EFF3008C1CF0006FB7
:1058040053D003F1010CBCF1020F04D992FBF3F461
:1058140091FBF3F3E41A7CB344620123037662B68A
:105824005DF8044B7047FFEE007AB4EEE70AF1EE40
:1058340010FA28D4DFED237A60EEA70AFDEEE07AB1
:1058440017EE903ADFED207A20EE270AFDEEC07ABB
:1058540017EE902A002BC7D172B60023C2610376DB
:1058640062B67047F1EE10FA0FDD154B72B60022E6
:10587400C361027662B670479142B4BF01214FF012
:10588400FF314162C9E7114AA5E7FFEE007AB4EEA1
:10589400E70AF1EE10FA11D4DFED0B7A20EE270AB5
:1058A400FDEEC07A17EE903AE0E794FBF3F4002C97
:1058B400E2D0B1E70023037662B67047034BD5E725
:1058C4000000FF7F6666304200FEFF4E000001804C
:1058D400F5EEC01AF1EE10FAB4EEE00A26D4F1EEB9
:1058E40010FA20DD30EE600AB7EEE07AB7EE005B26
:1058F40060EE211AB7EEC16A35EE475BB7EEE17A86
:10590400F7EE004A87EE050B30EE060BB7EEC00B40
:10591400B4EEE40AF1EE10FA26DCB5EEC00AF1EEBC
:1059240010FA00D470479FED130A7047F1EE10FA95
:10593400F9D5C0EE207AB7EEC15AB7EEE16AB7EEF8
:10594400007AB7EEE70A30EE450B20EE060BB7EE11
:10595400C00BB4EEC70AF1EE10FA08DCB5EEC00ACB
:10596400F1EE10FADFD47047B0EE640A7047B0EE7F
:10597400470A704700000000B34BB44A1B78117803
:1059840099420FD01370042B6CD8DFE813F06B002E
:105994009800B20099018300AD4A10460021DA61F3
:1059A400C3E90810AB4BAC4A1B781178994211D06B
:1059B4001370042B00F2FD80DFE813F0FB00C90034
:1059C400B5012C01E301A24AA44B0021C3E906213D
:1059D400C3E90811A24BA34A1B781178994211D04C
:1059E4001370042B00F2FA81DFE813F0F80183014D
:1059F400FB00E0019C00964A9B4B0021C3E9062171
:105A0400C3E90811994B9A4A1B78117899420FD02F
:105A14001370042B00F2B580DFE813F0B3003801F3
:105A2400F6010B009E018A4A0021C3E9072159624D
:105A34007047904900229FED907AD1ED007A8F4B08
:105A4400F4EEC77A9A61F1EE10FA00F3F4819FED57
:105A54008C7AF4EEC77AF1EE10FA40F1E282894AC8
:105A64001046EAE1834900229FED837AD1ED007A62
:105A7400854BF4EEC77A9A61F1EE10FA00F3E781F0
:105A84009FED7F7AF4EEC77AF1EE10FA40F1C2820C
:105A94007C4ADDE1774B9FED787AD3ED007AF4EE22
:105AA400C77AF1EE10FA00F3D8819FED757AF4EE1F
:105AB400C77AF1EE10FA40F1A682724ACEE16D493E
:105AC40000229FED6D7AD1ED007A6F4BF4EEC77A28
:105AD4001A62F1EE10FAC3E9062200F3C6819FEDC3
:105AE400687AF4EEC77AF1EE10FA40F18582654ADD
:105AF400BCE1604900229FED607AD1ED007A624BEF
:105B0400F4EEC77AC3E90622F1EE10FA00F3CA8173
:105B14009FED5B7AF4EEC77AF1EE10FA40F16582FC
:105B2400584AC0E1534B9FED547AD3ED007AF4EE1A
:105B3400C77AF1EE10FA3FF75EAF9FED517AF4EEBB
:105B4400C77AF1EE10FA40F149824E4A54E74949C6
:105B540000229FED497AD1ED007A404BF4EEC77AEA
:105B64001A62F1EE10FAC3E9062200F3A6819FED52
:105B7400447AF4EEC77AF1EE10FA40F12882414AF1
:105B84009CE13C4900229FED3C7AD1ED007A3B4BED
:105B9400F4EEC77A9A61F1EE10FA3FF744AF9FED45
:105BA400387AF4EEC77AF1EE10FA40F10982354AF8
:105BB4003AE7304900229FED307AD1ED007A274B45
:105BC400F4EEC77A9A61F1EE10FA00F370819FED5A
:105BD4002C7AF4EEC77AF1EE10FA40F1EA81294A00
:105BE40066E1244900229FED247AD1ED007A1E4B10
:105BF400F4EEC77AC3E90622F1EE10FA00F3468107
:105C04009FED1F7AF4EEC77AF1EE10FA40F1CA81E3
:105C14001C4A3CE1174900229FED177AD1ED007A26
:105C24000E4BF4EEC77A9A61F1EE10FA00F34D814F
:105C34009FED137AF4EEC77AF1EE10FA40F19681F3
:105C4400104A104643E100BF6B0404202C6300207B
:105C54000000FF7F6C0404202D630020D4D80320AF
:105C6400690404202E6300200CD903206A04042054
:105C74002F630020AC61002000FEFF4644D90320BE
:105C840000FEFFC6000001809CD80320BC4900220E
:105C94009FEDBC7AD1ED007ABB4BF4EEC77A1A6261
:105CA400F1EE10FAC3E9062200F3E2809FEDB77A21
:105CB400F4EEC77AF1EE10FA40F15181B44AD8E01B
:105CC400AF4900229FEDAF7AD1ED007AB14BF4EEEB
:105CD400C77A9A61F1EE10FA3FF75EAE9FEDAB7AA8
:105CE400F4EEC77AF1EE10FA40F12F81A84A10467B
:105CF40054E6A34900229FEDA37AD1ED007AA64B86
:105D0400F4EEC77A1A62F1EE10FAC3E9062200F340
:105D1400BA809FED9E7AF4EEC77AF1EE10FA40F164
:105D24000D819B4AB0E0964900229FED967AD1ED11
:105D3400007A9A4BF4EEC77AC3E90622F1EE10FA20
:105D440000F3BE809FED917AF4EEC77AF1EE10FA7B
:105D540040F1ED808E4AB4E0894B9FED8A7AD3ED11
:105D6400007AF4EEC77AF1EE10FA00F384809FED26
:105D7400877AF4EEC77AF1EE10FA40F1D180844AC2
:105D84007AE07F4B9FED7F7AD3ED007AF4EEC77A09
:105D9400F1EE10FA3FF717AE9FED7C7AF4EEC77A76
:105DA400F1EE10FA40F1B580794A0DE6744900220B
:105DB4009FED747AD1ED007A774BF4EEC77A9A614D
:105DC400F1EE10FA67DC9FED717AF4EEC77AF1EE2A
:105DD40010FA40F195806E4A10465EE06849002250
:105DE4009FED687AD1ED007A6B4BF4EEC77A9A6135
:105DF400F1EE10FA70DC9FED657AF4EEC77AF1EEFD
:105E040010FA76D5624A68E05D4900229FED5D7A1A
:105E1400D1ED007A5C4BF4EEC77AC3E90622F1EEC9
:105E240010FA0FDC9FED597AF4EEC77AF1EE10FA0E
:105E340058D5574A07E05A4A10460021DA61C3E9A7
:105E440008107047564A0021C3E908217047544A94
:105E54000021C3E907215962A4E5514A4D4B0021B1
:105E6400C3E90621C3E908119CE54D4A5A6299E544
:105E74004B4A5A6270474A4A434B0021C3E9062100
:105E8400C3E908117047464A5A62BBE5444A0021F7
:105E9400C3E90821B6E5424A10460021DA61C3E9A4
:105EA4000810AFE53E4A0021C3E908217AE53C4ADF
:105EB4000021C3E9072159628CE5394A5A6289E510
:105EC400374A0021C3E9082184E5354A10460021F8
:105ED400DA61C3E908107DE5314A0021C3E90721ED
:105EE40059628FE5B0EE677ABEEEC87A17EE102AD3
:105EF400A9E7B0EE677ABEEEC87A17EE102AECE78F
:105F0400B0EE677ABEEEC87A17EE102AC4D52048E0
:105F1400C3E7B0EE677ABEEEC87A17EE102A53E5EF
:105F2400B0EE677ABEEEC87A17EE102AA4E7B0EE98
:105F3400677ABEEEC87A17EE102AC2E7B0EE677A27
:105F4400BEEEC87A17EE102A9EE7B0EE677ABEEE70
:105F5400C87A17EE102A7FF520AD0D481EE5B0EE85
:105F6400677ABEEEC87A17EE102A82E7B0EE677A37
:105F7400BEEEC87A17EE102AA8D50548A7E700BFD9
:105F8400AC61002000FEFF4644D9032000FEFFC69A
:105F9400000001809CD803200CD90320D4D803200E
:105FA4000000FF7FB0EE677ABEEEC87A17EE102AC3
:105FB4006DE7B0EE677ABEEEC87A17EE102A77E77F
:105FC400B0EE677ABEEEC87A17EE102A2CE5B0EE72
:105FD400677ABEEEC87A17EE102A6FE7B0EE677ADA
:105FE400BEEEC87A17EE102A06E5B0EE677ABEEE6A
:105FF400C87A17EE102A56E7B0EE677ABEEEC87A72
:1060040017EE102A32E7B0EE677ABEEEC87A17EEC2
:10601400102A23E7B0EE677ABEEEC87A17EE102A8C
:1060240016E7B0EE677ABEEEC87A17EE102A7FF54F
:1060340003AF014801E700BF00000180F0B585B05F
:1060440006460446071D03AD0191204601341EF0A7
:1060540059FB05F8010BBC42F7D1039A019B9A4204
:1060640005D0042231460DEB02001EF0F5FC05B00C
:10607400F0BD00BF0000000038B50446EC4BED4A0B
:10608400D3ED002AEC492DED0A8B90F8220094F808
:106094002B3003EE100A92ED008A06EE103A94F8C3
:1060A4002330B8EE433B94F82C2007EE103A94F8D2
:1060B4002030B8EE466B02EE102AB8EE477B04EEB1
:1060C400103A94F82130B8EE422AB8EE444ADB4A3A
:1060D40091ED00BA22EE082AD948DA499FEDCC1B8B
:1060E4009FEDCD9B9FEDCE0B33EE413B37EE417BD5
:1060F40036EE411B06EE903A83EE095B9FEDD26AC1
:1061040094F82930F8EE666A34EE464A27EE003BEE
:1061140007EE903A94F82A3082ED004A76EEC66A89
:10612400CA4AF8EE677A04EE903A21EE001BC84B97
:10613400C2ED006A94F82820B7EEC33B04EE102A9F
:1061440094F8252067EE887A06EE102A94F8262023
:10615400B8EE444A06EE902ABE4AB8EE466A82ED8C
:10616400003AF8EE666A94F8272067EE8B7A26EEFA
:10617400086A07EE102AE8EE042AB74AF8EE644AE1
:10618400B8EE477AC0ED007AB5EEC02A82ED006A17
:10619400B7EEC11BB14A66EE886AB14864EE884A1C
:1061A40067EE087A81ED001AB7EEC55BC2ED006AAE
:1061B400F1EE10FAAB49AC4AC0ED004AC1ED002A39
:1061C400C2ED007A83ED005A41F25280DFEDA77AE6
:1061D400B4EEE72AF1EE10FA01F14480DFEDA47A7F
:1061E4009FEDA40AB4EEE72A9FEDB57ADFEDB58AF8
:1061F400DFEDB57AF1EE10FA58BFB0EE470A58BF9A
:10620400F0EE678A22EE000A21F090F994F82D301E
:10621400B7EE006A984907EE103A94F82E3020EE53
:10622400280A964AB8EE477B06EE903A94F82F3047
:10623400B0EE061BF8EE666A81ED000A05EE903AB0
:106244008F4BF1EE488AF8EE655A66EE886A9FED48
:10625400709B9FED73ABA8EE656AC2ED006A37EEE2
:10626400497B9FED6DCB27EE0A7BB7EEC60AB7EEEE
:10627400C77B83ED007A20F09BFE94F8343094F8C9
:10628400312002EE103A94F835307E48B8EE422BB5
:1062940006EE103A94F83030B8EE466BDFED6A1A29
:1062A40032EE492B03EE103A94F83D3036EE496B4A
:1062B400754982EE0C5B04EE103A94F83A3003EE22
:1062C400903A94F83B30B8EE444BF8EE633A26EE3D
:1062D4000A6B34EE494B09EE102AB8EE433A6B4A86
:1062E400B8EE499A24EE0A4BF7EEC66B23EE083A51
:1062F4009FED4D7B20EE070B07EE903A644BD3EDF8
:10630400002AB7EEC47B94F83230F8EE677AE8EEF0
:10631400232AB7EEC00B67EE887A69EE080AB7EE57
:10632400C52B05EE103A94F8333027EE8B1AB8EEED
:10633400455AC1ED000A05EE903A94F8373080EDE5
:10634400002A03EE903A94F838305248F8EE655A31
:1063540004EE103A94F83930F8EE633AC0ED006A6E
:1063640004EE903A94F83C30B8EE444A4A4806EEBB
:10637400103A94F83E3035EE615A484907EE903AA7
:10638400474B63EE883A81ED001AF8EE677A83EDA5
:10639400000A444BF8EE644AB8EE466AC0ED003A8F
:1063A40067EE887A83ED003A3F4B75EEE15A24EEAE
:1063B400084A3E48F5EEC07A83ED005A3C4B64EE41
:1063C400884A26EE086A80ED004AF1EE10FAC2ED22
:1063D400005AC3ED002A3748374A384BC0ED004A0B
:1063E40082ED006A83ED007A40F263879FED1F7AA5
:1063F400F4EEC77AF1EE10FA00F167879FED1C7A8C
:106404009FED1C0AF4EEC77A60E000BFAFF3008092
:10641400000000000000504000000000000059404F
:10642400000000000000903F9A9999999999294099
:106434008890002008530020B8610020709000204C
:10644400A0900020A895002000008042989500208C
:10645400008F0020908E00209495002098540020F6
:106464009890002090900020809000203333333F98
:106474006666663FE63FCE40C0950020988E0020B9
:10648400A08E0020048F0020108F00209C950020F7
:106494008C900020948E0020C0530020A4900020F3
:1064A400F8520020B88E002074900020D895002067
:1064B40094900020849000209C900020AC950020B3
:1064C400F62882416666064052499D395FED046AAA
:1064D4001FED04BA1FED047AF1EE10FA58BFB0EEC6
:1064E400660A58BFB0EE47BA27EE800A21F01EF8BC
:1064F40094F83F30B7EE006AEB4907EE103A94F88F
:10650400403020EE0B0AE94AB8EE477B06EE903A9B
:1065140094F84130B0EE061BF8EE666A81ED000A8D
:1065240005EE903AE24B9FEDD69B9FEDD7ABF8EE8C
:10653400655A37EE497B66EE886AA8EEA56A27EEAF
:106544000A7BC2ED006AB7EEC60AB7EEC77B83EDDD
:10655400007A20F02DFD94F84530B2EE081B94F833
:10656400442005EE103A94F84230D24907EE903AAE
:1065740094F84330B8EE455BCF4807EE103AF8EE96
:10658400677ACE4BB8EE477A67EE887A9FEDC06B98
:1065940027EE087AC1ED007A20EE060B83ED007A2F
:1065A400C74B9FEDBD6B1A7035EE465BF7EEC06BC3
:1065B400B0EE000B85EE011BC0ED006A20F0F8FC84
:1065C40094F8493094F8472007EE903A94F846300E
:1065D400B2EE045A02EE902AF8EE677A05EE903A8B
:1065E40094F84B30F8EE622AF8EE655A9FEDB52A1E
:1065F40007EE103A67EE887AB34B72EEC22AB8EE11
:10660400471BB24A85EE853A93ED004A94F8483028
:10661400AF4903EE903A94F84D30C1ED002AB7EE3D
:10662400E75AAC4931EE497BB7EEC44A25EE055B27
:1066340027EE0A7B24EE054B82ED003AF7EEC75BAA
:10664400A54AF8EE633A9FED966BB7EEC44BC1EDE5
:10665400005A63EE884A20EE060B06EE103A94F8D0
:106664004A3082ED004A05EE103A94F84C30B8EE08
:10667400466B9A4A07EE103A94F84E30B7EEC00BC8
:1066840007EE903A36EE496B954BB8EE455AF8EE64
:10669400677A26EE0A6B83ED000A924B67EE887ADE
:1066A400C3ED004AB8EE477A8F4B25EE085AF5EE53
:1066B400C07A27EE087AB7EEC66B83ED005AF1EE86
:1066C40010FA8A4B82ED007A83ED006A40F2EB8582
:1066D4009FED947AF4EEC77AF1EE10FA00F1EF85AB
:1066E4009FED917A9FED910AF4EEC77ADFED906AFF
:1066F4009FED919A9FED8F7AF1EE10FA58BFB0EEAC
:10670400660A58BFB0EE479A27EE800A20F00EFFC3
:1067140094F84F30F7EE007A94F8501005EE903A62
:1067240094F85130B2EE081B714AF8EE655A06EE41
:10673400103A20EE097A6F4BB8EE466B6E48E8EEDD
:10674400A57A1170B0EE000B80ED007A9FED524BEC
:1067540036EE446B77EEA77A86EE011BC3ED007A22
:1067640020F026FC94F8553094F8532006EE103AA5
:1067740094F85230B2EE047A01EE102A07EE903A01
:1067840094F85730B8EE466ADFED4E6A05EE103ADB
:10679400F8EE677A94F85930B8EE411AB8EE455BD2
:1067A40094F8542087EE879A07EE103A534B01EE83
:1067B400902A5349D3ED009A94F8563026EE086A8D
:1067C400504A07EE903A94F8583031EE661AF8EED3
:1067D400677AF8EE611A9FED2A2B9FED2B3B9FED14
:1067E400304B35EE425B61EE881A20EE040B25EE49
:1067F400035BB7EEC64A06EE103A94F85A30B7EE89
:10680400C00BB8EE466AB7EEC55B06EE903A67EE8B
:10681400885A3D4B24EE044B83ED000A3B4BB8EE03
:10682400477BC1ED005AB7EEE90A83ED009AF8EE12
:10683400666A374B37EE427B364924EE004B83EDD4
:10684400001A354B27EE037BC3ED001A334B66EE7B
:10685400886A83ED005A26EE086A314BB7EEC44BC2
:10686400F5EEC06AB7EEC77B81ED006A82ED004A9F
:10687400F1EE10FA83ED007A40F20F855EE000BF7E
:106884000000000000005040000000000000903FA5
:106894009A99999999992940000000000040514023
:1068A4000000000000807B40C49500209C8E0020E6
:1068B400A48E0020BC8E0020FC520020148F0020E7
:1068C4006B040420000080429C6100206853002077
:1068D40048530020208F0020408F0020508F00203C
:1068E40034530020B08E0020308F0020B09500205B
:1068F4006C04042000530020C8950020A0610020EF
:10690400348F0020448F0020385300206C53002023
:106914004C530020548F0020B48E0020248F00207C
:10692400B49500203333333F6666663FE63FCE407E
:10693400F628824152499D39666606405FED077A22
:10694400F4EEE76AF1EE10FA00F1CA845FED0A7A18
:106954001FED0A0AF4EEE76A1FED0B7A1FED0A9A9F
:106964005FED0C7AF1EE10FA58BFB0EE470A58BF4B
:10697400B0EE679A26EE800A20F0D8FD94F85B30DA
:10698400F7EE007A94F85C1005EE903A94F85D30D6
:10699400B2EE081BEC4AF8EE655A06EE103A20EE09
:1069A400097AEA4BB8EE466BE948E8EEA57A11702D
:1069B400B0EE000B80ED007A9FEDDB4B9FEDDC9B8E
:1069C40036EE446B77EEA77A86EE011BC3ED007AB0
:1069D40020F0EEFA94F8613094F85F2007EE103A54
:1069E40094F85E30F2EE045ADA4907EE903AB8EEC3
:1069F400477A94F86330F8EE677A0AEE103A94F81E
:106A0400653027EE087AC7EEA51A0BEE103AD24B82
:106A140005EE902A94F8602093ED002A94F86230F1
:106A2400B7EEC74AB8EE4AAB07EE103AB8EE4BBB26
:106A340094F8663024EE044B07EE903A94F86430F0
:106A44003AEE49AB3BEE499BF8EE677AB7EEC22AC1
:106A5400F8EE655A67EE887A22EE044BB8EE477A70
:106A6400F5EEC07A9FEDB46B9FEDB53B27EE087A47
:106A740020EE060B06EE102ADFEDB86AB84A2AEEBD
:106A840003AB29EE033BB8EE466A75EEE65A06EE12
:106A9400903AB44BB7EEC00B26EE086AC3ED001A69
:106AA400F8EE666AB04BF7EEC33B81ED000AB7EE31
:106AB400CAAB83ED006AB7EEC45BAC4966EE886A84
:106AC400AB4BF1EE10FAC1ED005AC2ED003A83ED82
:106AD400007AA849A84AA94B81ED005A82ED00AA80
:106AE400C3ED006A40F2D4839FEDA57AF4EEC77A31
:106AF400F1EE10FA00F1EF839FEDB57A9FEDA10A54
:106B0400F4EEC77ADFEDA06A9FEDA09A9FEDA07A1C
:106B1400F1EE10FA58BFB0EE660A58BFB0EE479ACD
:106B240027EE800A20F002FD94F86730F7EE007A31
:106B340094F8681005EE903A94F86930B2EE081BA8
:106B4400944AF8EE655A06EE103A20EE097A924B12
:106B5400B8EE466B9148E8EEA57A1170B0EE000BE2
:106B640080ED007A9FED704B9FED719B36EE446B88
:106B740077EEA77A86EE011BC3ED007A20F018FAAF
:106B840094F86D3094F86B2007EE103A94F86A305C
:106B9400F2EE045A824907EE903AB8EE477A94F836
:106BA4006F30F8EE677A0AEE103A94F8713027EEF7
:106BB400087AC7EEA51A0BEE103A7A4B05EE902A26
:106BC40094F86C2093ED002A94F86E30B7EEC74A1F
:106BD400B8EE4AAB07EE103AB8EE4BBB94F87230FD
:106BE40024EE044B07EE903A94F870303AEE49AB39
:106BF4003BEE499BF8EE677AB7EEC22AF8EE655A87
:106C040067EE887A22EE044BB8EE477AF5EEC07A46
:106C14009FED496B9FED4A3B27EE087A20EE060B69
:106C240006EE102ADFED4D6A5F4A2AEE03AB29EE29
:106C3400033BB8EE466A75EEE65A06EE903A5B4BB5
